:020000040800F2
:10000000E815002089020008297F0008156E000805
:10001000257F0008AD1F0008E598000800000000DB
:1000200000000000000000000000000075800008D3
:10003000F120000800000000997F0008BD81000841
:10004000A3020008A3020008A3020008A3020008FC
:10005000A3020008A3020008A3020008A3020008EC
:10006000A3020008A3020008A3020008B11F0008B1
:10007000C11F0008A3020008A3020008A302000891
:10008000A3020008A3020008A3020008A3020008BC
:10009000A3020008A3020008A3020008A3020008AC
:1000A000A3020008A3020008A3020008A30200089C
:1000B000A3020008A3020008A3020008A30200088C
:1000C000A3020008A3020008A3020008A30200087C
:1000D000A3020008C5980008A3020008D5980008EC
:1000E000A3020008A3020008A3020008A30200085C
:1000F000A3020008A3020008A3020008A30200084C
:1001000000000000A302000800000000A302000895
:10011000A3020008A3020008A3020008A30200082B
:10012000A3020008A3020008A3020008A30200081B
:10013000A30200080000000000000000A302000865
:10014000A3020008A3020008000000000000000055
:10015000000000000000000000000000000000009F
:10016000000000000000000000000000A3020008E2
:10017000A3020008A3020008A3020008A3020008CB
:10018000A3020008A3020008000000000000000015
:100190000000000000000000A3020008A302000805
:1001A0000000000000000000A3020008A3020008F5
:1001B000A3020008A3020008A3020008A30200088B
:1001C000A3020008A3020008A3020008A30200087B
:1001D000A3020008A302000800F002F800F045F8AE
:1001E0000AA090E8000C82448344AAF10107DA4592
:1001F00001D100F03AF8AFF2090EBAE80F0013F09F
:10020000010F18BFFB1A43F001031847F41801004F
:1002100014190100103A24BF78C878C1FAD85207DF
:1002200024BF30C830C144BF04680C607047000070
:100230000023002400250026103A28BF78C1FBD8EF
:10024000520728BF30C148BF0B6070471FB511F07F
:1002500070FA9DE8030000F0E9FA00F06BF91FBDA9
:1002600010B5002000F018FB10BD00F057FB114640
:10027000FFF7ECFF11F06CF800F08FFB03B4FFF711
:10028000EFFF03BC00F068F90948804709480047C0
:10029000FEE7FEE7FEE7FEE7FEE7FEE7FEE7FEE736
:1002A000FEE7FEE704480549054A064B7047000093
:1002B0006D820008D9010008E8050020E81500203B
:1002C000E80D0020E80D002053EA020C00F06980E0
:1002D0002DE9F04B4FF00006002B1FBFB3FA83F55A
:1002E00003FA05F424FA05F65E4012BF1643B2FA8B
:1002F00082F502FA05F4C5F120051EBF22FA05FCBD
:1003000044EA0C04203556EA044C4FEA144418BF62
:10031000641C4FF000084FF00009904271EB030C91
:1003200039D3002919BFB1FA81F701FA07F6B0FAFB
:1003300080F700FA07F6C7F120071EBF20FA07FC76
:1003400046EA0C062037B6FBF4FCA7EB0507103F86
:1003500007F01F0BCBF120062CFA06F60CFA0BFB6C
:1003600044BFB3460026202FA4BF5E464FF0000BCB
:100370005BEA060C08BF4FF0010B19EB0B0948EBC9
:100380000608ABFB027C06FB02CC0BFB03CCC01BBC
:1003900071EB0C01C1E70B46024641464846BDE8F9
:1003A000F08B13B5084318BF4FF0FF300146AFF391
:1003B0000080BDE81C407047002800DA40427047CA
:1003C00010B5002000F092F9FFF74AFFBDE8104099
:1003D000012000F0C1B80B460146184600F06FB985
:1003E000431A28BF9A4240F2888110441144032ADC
:1003F00040F2268010F0030F1EBF11F8013D521E7F
:1004000000F8013D10F0030F7FF4F6AF11F0030385
:1004100000F03B80083AC0F00B8051F8043D083AE8
:1004200051F804CD40F8043D40F804CDFFF7F3BF88
:10043000121D5CBF51F8043D40F8043DAFF300804D
:10044000D20724BF11F8013D11F801CD48BF11F8C2
:10045000012C24BF00F8013D00F801CD48BF00F891
:10046000012C7047431A28BF9A4240F28B811044F6
:10047000114410F0030F1EBF11F8013D521E00F889
:10048000013D10F0030F7FF4F6AF103AC0F00A8080
:1004900010B531E9185020E91850103ABFF4F9AFFF
:1004A000BDE81040530724BF31E9081020E90810C7
:1004B00044BF51F8043D40F8043D12F0030F08BF5B
:1004C0007047D20728BF31F8023D48BF11F8012C10
:1004D00028BF20F8023D48BF00F8012C70474FF0BC
:1004E000000200B5134694469646203922BFA0E884
:1004F0000C50A0E80C50B1F12001BFF4F7AF090790
:1005000028BFA0E80C5048BF0CC05DF804EB890080
:1005100028BF40F8042B08BF704748BF20F8022BC3
:1005200011F0804F18BF00F8012B704770477047DB
:100530007047000070B5064C7C44064D7D4404E0D5
:100540002046016808448047241DAC42F8D170BDA4
:10055000E4150100EC15010001491820ABBEFEE7CF
:100560002600020070B5064600F040F9056806F165
:100570000B0020F00704B4429CBF002070BD2B4646
:100580006A68BAB11068A04210D304F10801884229
:100590003CBF5068586007D351681019416011681A
:1005A000091B016058601460101D70BD134652682D
:1005B000002AE7D12146284600F024F90028DED1A0
:1005C00070BD70B50446051F00F010F90068002CDE
:1005D00014BF446870BD002C18BFAC423CBF20461D
:1005E0006468F8D301680A18AA4218BF456003D1AD
:1005F0002A6805461144016028684119A1421CBFC0
:100600006C6070BD6168696021680844286070BDD5
:100610002DE9F04791460C46804600F0E7F8076860
:10062000604234EA000001D1042C02D20520BDE86A
:10063000F087601E40F0070609F10B0020F0070567
:100640004D4539D93B467A6882B31468101D404243
:1006500006EA000C644525D9A4EB0C00854221D89C
:10066000BCF1000F0BD0104601686244A1EB0C01F5
:10067000116041685160C0F800C0586003461168BD
:1006800005F10800814205D35019491B016015602E
:100690005860034652F8040F58600020C8F8002044
:1006A000BDE8F08713465268002ACED12946384665
:1006B00000F0A8F80028C5D10620BDE8F0872DE994
:1006C000F041074615460E461020FFF74BFF040089
:1006D0000AD06760C4E9026500F08CF80168216007
:1006E00004600020BDE8F0810120FBE710B500F0B8
:1006F000F9F8BDE8104000F0F0B8032A40F230806D
:1007000010F0030C00F0158011F8013BBCF1020F52
:10071000624498BF11F801CB00F8013B38BF11F8D3
:10072000013BA2F1040298BF00F801CB38BF00F8EA
:10073000013B11F0030300F02580083AC0F0088067
:1007400051F8043B083A51F804CBA0E80810F5E74B
:10075000121D5CBF51F8043B40F8043BAFF300802E
:10076000D20724BF11F8013B11F801CB48BF11F8A3
:10077000012B24BF00F8013B00F801CB48BF00F873
:10078000012B704710B5203AC0F00B80B1E818502B
:10079000A0E81850B1E81850A0E81850203ABFF46B
:1007A000F5AF5FEA027C24BFB1E81850A0E818500A
:1007B00044BF18C918C0BDE810405FEA827C24BF5E
:1007C00051F8043B40F8043B08BF7047D20728BFEC
:1007D00031F8023B48BF11F8012B28BF20F8023B3B
:1007E00048BF00F8012B7047704700000048704771
:1007F00038000020004870476800002070477047AC
:100800007047704738B504460A4600206946AFF382
:100810000080002808BF38BD02460099204600F03D
:10082000A2F8012038BD012000F0D9B8F8B5AFF327
:100830000080054600200C46102000BF0646A8197F
:10084000A0420DD9324669460020AFF30080070070
:1008500008BF00F0C4F80098A04218BF0546C419AC
:10086000FFF7C4FF05600746F01D20F0070046199A
:10087000284600F00AF8B44208BFF8BDA21B314672
:100880003868BDE8F84000F06EB800210160C0E9AA
:1008900001107047102070472DE9F0410646FFF720
:1008A000A9FF8046454613E016B1E068B0420ED17C
:1008B00020682860D4E90101D8F8007088472046F4
:1008C000FFF77FFED8F80000B842EBD100E02546E4
:1008D0002C68002CE8D1BDE8F081002801D0FFF79A
:1008E0003BBE704710B5002102A000F05FF8012068
:1008F00010BD0000534947414252543A2041626EB4
:100900006F726D616C207465726D696E6174696F70
:100910006E00000000487047300000207546FFF769
:10092000F9FFAE4605006946534620F007008546AC
:1009300018B020B5FFF7B6FCBDE820404FF0000628
:100940004FF000074FF000084FF0000BAC46ACE84A
:10095000C009ACE8C009ACE8C009ACE8C00921F0A6
:1009600007018D467047034640688C46002818BF33
:1009700088423CBF03464068F8D318681844884250
:1009800007D00CF1030020F00700001D411A521A95
:100990000146081D0A60FFF714BE10B50446AFF308
:1009A00000802046BDE81040FFF768BC70B50546E2
:1009B0000C460A2000E06D1C00F018F835B12878CC
:1009C0000028F8D102E0641C00F010F814B120787F
:1009D0000028F8D1BDE870400A2000F007B810B533
:1009E00000F00CF8BDE81040FFF777BF08B5694686
:1009F0008DF800000320ABBE08BD000010B5012833
:100A000005D0002103A0FFF7D1FF012010BD09A1EF
:100A1000F8E7000053494752544D454D3A204F7571
:100A200074206F662068656170206D656D6F7279E6
:100A3000000000003A2048656170206D656D6F729E
:100A40007920636F727275707465640080B582B0CE
:100A500001900198806A00900098C06D10F0500FCE
:100A60004BD1FFE70099C86D40F40070C86500984D
:100A7000006800680007002821D5FFE7009800689B
:100A800006F070FDD0B1FFE700980068C0688004F0
:100A9000002812D4FFE70099C86D20F48070C86563
:100AA0000098C06DC004002806D4FFE70099C86D07
:100AB00040F00100C865FFE7FFE7FFE719E0009895
:100AC0000068C0688007002812D4FFE70099C86D4D
:100AD00020F48070C8650098C06DC004002806D45A
:100AE000FFE70099C86D40F00100C865FFE7FFE728
:100AF000FFE7009801F0D2FF10E00098C06DC0063B
:100B0000002804D5FFE7009801F0D0FF05E0009829
:100B1000406D416B01988847FFE7FFE702B080BD59
:100B200080B582B001900198806A00900099C86DEC
:100B300040F04000C8650099086E40F00400086667
:100B4000009801F0B3FF02B080BD000080B582B014
:100B500001900198806A0090009801F0A3FF02B014
:100B600080BD000080B586B00490002002900498FB
:100B7000006806F0DFFC002840F09280FFE7049850
:100B8000006880683F21C8F2000108420ED0FFE7EC
:100B90000499C86D40F01000C8650499086E40F0D3
:100BA0000100086601208DF817007DE004980068B8
:100BB00006F072FC049801680120B1F1A04F019089
:100BC0000CD0FFE7049800684FF60071CAF6FF7179
:100BD0000844B0FA80F040090190FFE70198C1078E
:100BE00040F20070C5F2000000291CBF40F2003046
:100BF000C5F2000006F06EFC4FEA002000281CD56C
:100C0000FFE740F20000C2F200000068800942F6EF
:100C10006351C0F23E51A0FB0110800900EB40017E
:100C20000C2000EB81000290FFE7029820B1FFE763
:100C3000029801380290F8E7FFE703F093FB039076
:100C4000FFE7049800680068C00740BBFFE704980E
:100C5000006806F06FFC28B9FFE70498006806F00A
:100C60001BFCFFE703F07EFB0399401A032815D312
:100C7000FFE7049800680068C00770B9FFE70499AF
:100C8000C86D40F01000C8650499086E40F001007E
:100C9000086601208DF8170006E0FFE7D1E7FFE7BF
:100CA00000208DF81700FFE79DF8170006B080BD03
:100CB00080B582B08DF8070002208DF806009DF8FF
:100CC00007000138014600913D2800F24083009959
:100CD000DFE811F03E0049003D035C0063006A005C
:100CE0007000700070007700770077007E0085004C
:100CF0003D035400DE00F00002011401260138011A
:100D00003D033D034A0153016501770189013D031C
:100D10003D034A019B01AD01BF01D1013D033D03EC
:100D20003D038C009700A200AC00B700C100CB00CF
:100D3000D400E301ED01F80111022A0243025C0232
:100D400075028E02A702C002D902F2020B0324032D
:100D500040F60000C4F600004FF4804103F0D4FADE
:100D60008DF80600F4E240F60000C4F600004FF4EF
:100D7000005103F0C9FA8DF80600E9E24FF0904007
:100D8000102103F0C1FA8DF80600E1E207F054F9F2
:100D9000C0F300108DF80600DAE207F04DF9C0F359
:100DA00040108DF80600D3E207F046F9C0098DF82F
:100DB0000600CDE207F040F9C0F380008DF8060090
:100DC000C6E207F039F9C0F380108DF80600BFE2E3
:100DD00007F032F9C0F3C0008DF80600B8E207F062
:100DE0002BF900F001008DF80600B1E240F600009A
:100DF000C4F600004FF4806103F086FA8DF8060017
:100E0000A6E240F60000C4F600004FF4006103F0D3
:100E10007BFA8DF806009BE240F20040C4F6000029
:100E2000102103F071FA8DF8060091E240F60000FF
:100E3000C4F600004FF4805103F066FA8DF8060006
:100E400086E240F20040C4F60000082103F05CFA9C
:100E50008DF806007CE240F60040C4F60000042154
:100E600003F052FA8DF8060072E24FF090404FF412
:100E7000004103F049FA8DF8060069E240F20040B3
:100E8000C4F60000202103F03FFA8DF806005FE26F
:100E900040F2C800C2F200000089B0F5807F04DD96
:100EA000FFE701208DF8060003E000208DF8060022
:100EB000FFE74DE240F2C800C2F200008089B0F5C1
:100EC000807F04DDFFE701208DF8060003E00020AD
:100ED0008DF80600FFE73BE240F2C800C2F20000D6
:100EE000C088B0F5807F04DDFFE701208DF80600A3
:100EF00003E000208DF80600FFE729E240F2C80079
:100F0000C2F200000088B0F5807F04DDFFE7012019
:100F10008DF8060003E000208DF80600FFE717E2D9
:100F200040F2C800C2F200004088B0F5807F04DDC6
:100F3000FFE701208DF8060003E000208DF8060091
:100F4000FFE705E240F2C800C2F200008088B0F579
:100F5000807F04DDFFE701208DF8060003E000201C
:100F60008DF80600FFE7F3E140F20040C4F6000010
:100F70004FF4005103F0C8F9EAE140F2D800C2F2A0
:100F80000000C088B0F5807F04DDFFE701208DF808
:100F9000060003E000208DF80600FFE7D8E140F2EC
:100FA000D800C2F200000088B0F5807F04DDFFE7C2
:100FB00001208DF8060003E000208DF80600FFE711
:100FC000C6E140F2D800C2F200004088B0F5807F50
:100FD00004DDFFE701208DF8060003E000208DF816
:100FE0000600FFE7B4E140F2D800C2F200008088BA
:100FF000B0F5807F04DDFFE701208DF8060003E0F7
:1010000000208DF80600FFE7A2E140F2D800C2F20E
:1010100000000089B0F5807F04DDFFE701208DF836
:10102000060003E000208DF80600FFE790E140F2A3
:10103000D800C2F200008089B0F5807F04DDFFE7B0
:1010400001208DF8060003E000208DF80600FFE780
:101050007EE140F2D800C2F20000C089B0F5807F86
:1010600004DDFFE701208DF8060003E000208DF885
:101070000600FFE76CE140F2D800C2F200004089B0
:10108000B0F5807F04DDFFE701208DF8060003E066
:1010900000208DF80600FFE75AE140F20040C4F658
:1010A0000000802103F030F98DF8060050E140F691
:1010B0000000C4F600004FF4004103F025F98DF85C
:1010C000060045E140F21410C2F20000008940F22F
:1010D000A801C2F200010989401AFFF76DF98128C1
:1010E00004DBFFE701208DF8060003E000208DF807
:1010F0000600FFE72CE140F21410C2F20000008964
:1011000040F2A801C2F200014989401AFFF754F9E0
:10111000812804DBFFE701208DF8060003E00020B2
:101120008DF80600FFE713E140F21410C2F2000050
:10113000008940F2A801C2F20001C988401AFFF7F5
:101140003BF9812804DBFFE701208DF8060003E06E
:1011500000208DF80600FFE7FAE040F21410C2F21A
:101160000000008940F2A801C2F200010988401A7B
:10117000FFF722F9812804DBFFE701208DF8060044
:1011800003E000208DF80600FFE7E1E040F21410D4
:10119000C2F20000008940F2A801C2F200014988B1
:1011A000401AFFF709F9812804DBFFE701208DF8D9
:1011B000060003E000208DF80600FFE7C8E040F2DB
:1011C0001410C2F20000008940F2A801C2F200012E
:1011D0008988401AFFF7F0F8812804DBFFE7012037
:1011E0008DF8060003E000208DF80600FFE7AFE071
:1011F00040F21410C2F20000008940F2B801C2F2BD
:1012000000010989401AFFF7D7F8812804DBFFE7BE
:1012100001208DF8060003E000208DF80600FFE7AE
:1012200096E040F21410C2F20000008940F2B801CA
:10123000C2F20001C989401AFFF7BEF8812804DB19
:10124000FFE701208DF8060003E000208DF806007E
:10125000FFE77DE040F21410C2F20000008940F286
:10126000B801C2F200010988401AFFF7A5F88128E9
:1012700004DBFFE701208DF8060003E000208DF875
:101280000600FFE764E040F21410C2F2000000899B
:1012900040F2B801C2F20001C988401AFFF78CF889
:1012A000812804DBFFE701208DF8060003E0002021
:1012B0008DF80600FFE74BE040F21410C2F2000088
:1012C000008940F2B801C2F200014988401AFFF7D4
:1012D00073F8812804DBFFE701208DF8060003E0A6
:1012E00000208DF80600FFE732E040F21410C2F251
:1012F0000000008940F2B801C2F200014989401A99
:10130000FFF75AF8812804DBFFE701208DF806007B
:1013100003E000208DF80600FFE719E040F214100A
:10132000C2F20000008940F2B801C2F200018989CE
:10133000401AFFF741F8812804DBFFE701208DF810
:10134000060003E000208DF80600FFE700E0FFE75D
:101350009DF8060002B080BD82B08DF807004FF600
:10136000FF70ADF804009DF80700013801460091B8
:10137000422800F216810099DFE811F043004B008B
:10138000130163001301130113011301130113016E
:101390001301130113011301130113016B007300F7
:1013A0007B0083008B009300DB00EB0013019B00AC
:1013B000A300AB00B300E300F3001301BB00C300C4
:1013C000CB00D300130153005B0013011301130181
:1013D00013011301130113011301FB001301130186
:1013E000130113011301130113011301130113015D
:1013F00013011301130113011301130113010B0155
:10140000030140F29800C2F200008088ADF80400A9
:10141000C8E040F29800C2F200004088ADF8040035
:10142000C0E040F29800C2F20000C088ADF80400AD
:10143000B8E040F21410C2F20000C088ADF8040019
:10144000B0E040F29800C2F200000088ADF804005D
:10145000A8E040F2C800C2F200000089ADF8040024
:10146000A0E040F2C800C2F200008089ADF804009C
:1014700098E040F2C800C2F20000C088ADF8040055
:1014800090E040F2C800C2F200000088ADF804000D
:1014900088E040F2C800C2F200004088ADF80400C5
:1014A00080E040F2C800C2F200008088ADF804007D
:1014B00078E040F2D800C2F20000C088ADF8040025
:1014C00070E040F2D800C2F200000088ADF80400DD
:1014D00068E040F2D800C2F200004088ADF8040095
:1014E00060E040F2D800C2F200008088ADF804004D
:1014F00058E040F2D800C2F200000089ADF80400C4
:1015000050E040F2D800C2F200008089ADF804003B
:1015100048E040F2D800C2F20000C089ADF80400F3
:1015200040E040F2D800C2F200004089ADF804006B
:1015300038E040F29800C2F20000C089ADF8040023
:1015400030E040F29800C2F200000089ADF80400DB
:1015500028E040F29800C2F200004089ADF8040093
:1015600020E040F29800C2F200008089ADF804004B
:1015700018E040F21010C2F200004088ADF80400FC
:1015800010E040F21410C2F200000089ADF804002F
:1015900008E040F21410C2F200004089ADF80400E7
:1015A00000E0FFE7BDF8040002B070470000000053
:1015B00080B584B08DF80F0042F2F030C4F674109C
:1015C00002909DF80F000138014601912F2800F28A
:1015D0000E810199DFE811F08E00BD000B010B01B7
:1015E0000B010B010B010B010B010B010B010B019B
:1015F0000B010B010B010B010B010B010B010B018B
:101600000B010B010B0130000B010B010B010B0156
:101610000B010B015F000B010B010B010B010B0117
:101620000B010B010B010B010B010B010B010B015A
:101630000B010B010B01EC0040F29800C2F200001C
:10164000408900EE100AB8EE400A10EE100A0FF0C2
:10165000FFFF41EC100B9FED6C1B53EC112B51EC79
:10166000100B0FF0F7FE41EC100B51EC100B0FF0CC
:10167000BFFE02909DED020A9FED651AB4EE410A8D
:10168000F1EE10FA06DDFFE742F2E030C4F6741026
:101690000290FFE7ACE040F29800C2F200008089BF
:1016A00000EE100AB8EE400A10EE100A0FF0D0FF5C
:1016B00041EC100B9FED541B53EC112B51EC100B14
:1016C0000FF0C8FE41EC100B51EC100B0FF090FE28
:1016D00002909DED020A9FED4E1AB4EE410AF1EE22
:1016E00010FA06DDFFE742F2E030C4F67410029013
:1016F000FFE77DE040F29800C2F20000808800EE33
:10170000100AB8EE400A10EE100A0FF0A1FF41ECEB
:10171000100B9FED3B1B53EC112B51EC100B0FF0FA
:1017200099FE41EC100B51EC100B0FF061FE029092
:101730009DED020A9FED361AB4EE410AF1EE10FA61
:1017400006DDFFE742F2E030C4F674100290FFE7D6
:101750004EE040F29800C2F20000408800EE100A0D
:10176000B8EE400A10EE100A0FF072FF41EC100BB9
:101770009FED231B53EC112B51EC100B0FF06AFE65
:1017800041EC100B51EC100B0FF032FE02909DED6E
:10179000020A9FED1F1AB4EE410AF1EE10FA06DDBF
:1017A000FFE742F2E030C4F674100290FFE71FE05A
:1017B00040F21010C2F20000408800EE100AB8EEAD
:1017C000400A10EE100A0FF043FF41EC100B9FEDA2
:1017D0000A1B53EC112B51EC100B0FF03BFE41ECAC
:1017E000100B51EC100B0FF003FE029000E0FFE72E
:1017F0009DED020A04B080BD6666666666E64F40EF
:10180000CDCCCCCCCC4C4240000000000080344019
:101810000028A0460000000080B584B08DF80F00BD
:1018200042F2F030C4F6741002909DF80F000146A9
:10183000019118280DD0FFE701981F2838D0FFE745
:101840000198422800F09280FFE7019843285ED07B
:10185000BBE040F29800C2F20000408900EE100A9E
:10186000B8EE400A10EE100A0FF0F2FE41EC100B39
:101870009FED5D1B53EC112B51EC100B0FF0EAFDAB
:1018800041EC100B51EC100B0FF0B2FD02909DEDEE
:10189000020A9FED581AB4EE410AF1EE10FA06DD85
:1018A000FFE742F2E030C4F674100290FFE78DE0EB
:1018B00040F29800C2F20000808900EE100AB8EEF3
:1018C000400A10EE100A0FF0C3FE41EC100B9FED22
:1018D000461B53EC112B51EC100B0FF0BBFD41ECF0
:1018E000100B51EC100B0FF083FD02909DED020ADE
:1018F0009FED401AB4EE410AF1EE10FA06DDFFE763
:1019000042F2E030C4F674100290FFE75EE040F26D
:101910001410C2F20000008900EE100AB8EE400A6E
:1019200010EE100A0FF094FE41EC100B9FED2C1BF3
:1019300053EC112B51EC100B0FF08CFD41EC100B04
:1019400051EC100B0FF054FD02909DED020A9FED3B
:10195000281AB4EE410AF1EE10FA06DDFFE742F272
:10196000E030C4F674100290FFE72FE040F214104C
:10197000C2F20000408900EE100AB8EE400A10EEF4
:10198000100A0FF065FE41EC100B9FED131B53EC9A
:10199000112B51EC100B0FF05DFD41EC100B51ECD5
:1019A000100B0FF025FD02909DED020A9FED101A1D
:1019B000B4EE410AF1EE10FA06DDFFE742F2E03044
:1019C000C4F674100290FFE700E0FFE79DED020A05
:1019D00004B080BD00BF00BF9A9999999919314010
:1019E000CDCCCCCCCC4C31409A9999999999244042
:1019F00000D084460010244680B582B08DF80700E0
:101A00008DF8061000208DF805009DF807000138BC
:101A100001460091302800F21F820099DFE811F0A2
:101A200031004A001C0263007A009100A800A8005F
:101A3000A800BF00BF00BF00D600ED001C020401DB
:101A40001C021C021C021C021C021C021C021C02A6
:101A500017011C021C021C021C021C021C021701A2
:101A60001C021C021C021C021C021C021C02300173
:101A70004901620179019201A901C001D501EC017E
:101A800003029DF8060050B1FFE740F60000C4F6DF
:101A900000004FF48041012202F04EFC09E040F6C4
:101AA0000000C4F600004FF48041002202F044FC24
:101AB000FFE7D5E19DF8060050B1FFE740F60000D2
:101AC000C4F600004FF40051012202F035FC09E099
:101AD00040F60000C4F600004FF40051002202F06E
:101AE0002BFCFFE7BCE106F0A7FA8DF804009DF897
:101AF000060038B1FFE79DF8040040F0100007F041
:101B0000F3FE06E09DF8040000F0EF0007F0ECFEA5
:101B1000FFE7A5E106F090FA8DF804009DF80600B5
:101B200038B1FFE79DF8040040F0200007F0DCFE2C
:101B300006E09DF8040000F0DF0007F0D5FEFFE7A7
:101B40008EE106F079FA8DF804009DF8060038B1B0
:101B5000FFE79DF8040040F0800007F0C5FE06E0B6
:101B60009DF8040000F07F0007F0BEFEFFE777E17C
:101B700006F062FA8DF804009DF8060038B1FFE720
:101B80009DF8040040F0040007F0AEFE06E09DF86A
:101B9000040000F0FB0007F0A7FEFFE760E106F09D
:101BA0004BFA8DF804009DF8060038B1FFE79DF868
:101BB000040040F0400007F097FE06E09DF80400A6
:101BC00000F0BF0007F090FEFFE749E106F034FAAD
:101BD0008DF804009DF8060038B1FFE79DF8040079
:101BE00040F0080007F080FE06E09DF8040000F0D9
:101BF000F70007F079FEFFE732E106F01DFA8DF8F5
:101C000004009DF8060038B1FFE79DF8040040F09D
:101C1000010007F069FE06E09DF8040000F0FE00F8
:101C200007F062FEFFE71BE19DF8060038B1FFE711
:101C30004FF090401021012202F07EFB06E04FF0B1
:101C400090401021002202F077FBFFE708E19DF8A9
:101C5000060050B1FFE740F20040C4F600004FF428
:101C60000051012202F068FB09E040F20040C4F696
:101C700000004FF40051002202F05EFBFFE7EFE0AE
:101C80009DF8060050B1FFE740F60000C4F60000E2
:101C90004FF48061012202F04FFB09E040F60000A2
:101CA000C4F600004FF48061002202F045FBFFE71C
:101CB000D6E09DF8060050B1FFE740F60000C4F6FC
:101CC00000004FF40061012202F036FB09E040F60B
:101CD0000000C4F600004FF40061002202F02CFB6B
:101CE000FFE7BDE09DF8060048B1FFE740F2004085
:101CF000C4F600001021012202F01EFB08E040F2B1
:101D00000040C4F600001021002202F015FBFFE79E
:101D1000A6E09DF8060050B1FFE740F60000C4F6CB
:101D200000004FF48051012202F006FB09E040F66A
:101D30000000C4F600004FF48051002202F0FCFACB
:101D4000FFE78DE09DF8060048B1FFE740F2004054
:101D5000C4F600000821012202F0EEFA08E040F289
:101D60000040C4F600000821002202F0E5FAFFE777
:101D700076E09DF8060048B1FFE740F60040C4F663
:101D800000000421012202F0D7FA08E040F60040EA
:101D9000C4F600000421002202F0CEFAFFE75FE063
:101DA0009DF8060040B1FFE74FF090404FF400412E
:101DB000012202F0C1FA07E04FF090404FF40041D9
:101DC000002202F0B9FAFFE74AE09DF8060048B1A8
:101DD000FFE740F20040C4F600002021012202F09B
:101DE000ABFA08E040F20040C4F6000020210022D7
:101DF00002F0A2FAFFE733E09DF8060048B1FFE7E2
:101E000040F20040C4F600008021012202F094FA62
:101E100008E040F20040C4F600008021002202F0F9
:101E20008BFAFFE71CE09DF8060050B1FFE740F693
:101E30000000C4F600004FF40041012202F07CFAD9
:101E400009E040F60000C4F600004FF40041002213
:101E500002F072FAFFE703E001208DF80500FFE7CA
:101E60009DF8050002B080BD80B584B007F0F6FF94
:101E700040F2D850C2F2000001680291406803901D
:101E800000F09EF9029A03460398D21A884114D2B0
:101E9000FFE740F2B850C2F20000006809F064FAAF
:101EA00000F08EF910F5967241F1000040F2D85121
:101EB000C2F200010A604860FFE740F20810C2F277
:101EC0000000016800914068019000F079F9009AE3
:101ED00003460198D21A884110D2FFE707F0A8FF05
:101EE00000F06EF940F2DC52121841F1000040F2AD
:101EF0000811C2F200010A604860FFE704B080BD2B
:101F000080B507F0D3FF07F017FD80BD80B584B022
:101F100002F0A2FE06F070F905F0F8FD05F094FD60
:101F200005F0C8FD05F026FF05F06CFF05F0B2FFD7
:101F300005F00AFC05F06AFC05F0A4FE05F0DEFEE3
:101F400005F04EFD05F07CFA40F2B010C2F2000040
:101F500040F21411C2F20001092201F0C3F840F26C
:101F60000040C4F60000802102910122039202F099
:101F7000E3F9039A40F60000C4F6000001904FF424
:101F8000804102F0D9F90198039A4FF4005102F010
:101F9000D3F90198039A402102F0CEF901980299F1
:101FA000039A02F0C9F904B080BD0000FFE7FEE724
:101FB00080B540F29020C2F2000001F061FC80BDCB
:101FC00080B540F23020C2F2000001F059FC80BD23
:101FD00084B003900398006840F20741C4F2020104
:101FE000884206D8FFE740F60000C4F202000090E5
:101FF00005E040F62000C4F202000090FFE70098E0
:1020000002900398007808384CF6CD41CCF6CC41CC
:10201000A0FB011000090190029803994A6C22F07C
:10202000030210448864039940F68000C4F2020061
:10203000C864019800F01F010120884003990865D9
:1020400004B0704782B00190019800790090009927
:1020500040F6FC00C4F2020000EB810001994865E3
:10206000019940F64010C4F20200886500980138DA
:1020700000F01F01012088400199C86502B0704737
:1020800084B003900291019200930398C16C006D9B
:1020900048600398406D28B1FFE70398816DC06DDB
:1020A0004860FFE70398016C406C00F01F020120BC
:1020B00090404860009803990968486003988068D8
:1020C000102809D1FFE701980399096888600298F0
:1020D00003990968C86008E0029803990968886054
:1020E000019803990968C860FFE704B070470000D1
:1020F0007047000081B0EFF3108072B60090FFE7E8
:10210000FEE7000083B002904AF20040C4F20000F3
:1021100000900298006846F60001C4F2000188426F
:1021200005D1FFE7009800F554700090FFE7009894
:102130000299086402980068D0F8800020F4F81032
:10214000029A1168526B40EA0240C1F88000009880
:1021500070300299486402980068D0F8800020F03E
:102160007060029A1168926B40EA0260C1F88000C8
:102170000098B03002998864009800F5C470029904
:10218000C864009800F5187002990865009800F579
:102190001E700299486500980190FFE70198009928
:1021A00001F55471884208D2FFE7019900200860C8
:1021B000FFE7019804300190F0E703B0704700009A
:1021C00040F29001C2F200010868496870470000BF
:1021D00080B5C4B02490239100208DF88B001F900F
:1021E0002398C0680021C4F27F01884201D0FFE734
:1021F00000E0FFE7FFE7249890F85800012805D198
:10220000FFE702208DF8970000F044BC24990120DC
:1022100081F85800FFE7FFE72498006805F09AF975
:10222000002840F02384FFE72498006823990A6877
:10223000496805F0A3F92498006805F08BF91E9011
:102240002498006805F066F91D901E98002840F05B
:10225000B881FFE71D98002840F0B381FFE723987D
:102260008068B0F1004F0ED1FFE7249800682399F1
:102270000968002205F0AEF9249800684FF000418B
:1022800005F054FA0CE024980068239A11689268CB
:1022900005F0A0F924980068002105F047FAFFE74F
:1022A0002398406924990968C96801F018018908D0
:1022B000884021902398006904281CD0FFE72498C7
:1022C000006823990A680969219B05F0D5F92498CB
:1022D0000068239A1169926905F000FA2498006851
:1022E000239A1169127F013AB2FA82F25209520618
:1022F00005F0E0F964E124980068002105F0FAF89F
:10230000400348B9FFE724980068002105F0F2F87F
:10231000C0F384601C9018E024980068002105F048
:10232000E9F890FAA0F04290429820B9FFE7202007
:102330008DF80F0105E04298B0FA80F08DF80F019A
:10234000FFE79DF80F011C90FFE71C981B90239856
:102350000068400330B9FFE723980068C0F3846049
:102360001A9015E02398006890FAA0F040904098E9
:1023700020B9FFE720208DF8070105E04098B0FA6A
:1023800080F08DF80701FFE79DF807011A90FFE73D
:102390001B981A99884207D1FFE724980068002209
:1023A000114605F0AFF9FFE724980068012105F018
:1023B000A1F8400348B9FFE724980068012105F01F
:1023C00099F8C0F38460199018E0249800680121FE
:1023D00005F090F890FAA0F03E903E9820B9FFE703
:1023E00020208DF8FF0005E03E98B0FA80F08DF8CF
:1023F000FF00FFE79DF8FF001990FFE7199818907C
:1024000023980068400330B9FFE723980068C0F3C1
:102410008460179015E02398006890FAA0F03C9033
:102420003C9820B9FFE720208DF8F70005E03C98A4
:10243000B0FA80F08DF8F700FFE79DF8F7001790ED
:10244000FFE718981799884207D1FFE7249800689A
:102450000121002205F056F9FFE7249800680221C7
:1024600005F048F8400348B9FFE7249800680221C6
:1024700005F040F8C0F38460169018E024980068D6
:10248000022105F037F890FAA0F03A903A9820B976
:10249000FFE720208DF8EF0005E03A98B0FA80F0D1
:1024A0008DF8EF00FFE79DF8EF001690FFE7169814
:1024B000159023980068400330B9FFE7239800681F
:1024C000C0F38460149015E02398006890FAA0F09F
:1024D0003890389820B9FFE720208DF8E70005E014
:1024E0003898B0FA80F08DF8E700FFE79DF8E70034
:1024F0001490FFE715981499884207D1FFE72498B4
:1025000000680221002205F0FDF8FFE7249800682A
:10251000032104F0EFFF400348B9FFE72498006867
:10252000032104F0E7FFC0F38460139018E02498BF
:102530000068032104F0DEFF90FAA0F03690369890
:1025400020B9FFE720208DF8DF0005E03698B0FACB
:1025500080F08DF8DF00FFE79DF8DF001390FFE7C4
:102560001398129023980068400330B9FFE723982E
:102570000068C0F38460119015E02398006890FA19
:10258000A0F03490349820B9FFE720208DF8D700D0
:1025900005E03498B0FA80F08DF8D700FFE79DF899
:1025A000D7001190FFE712981199884207D1FFE7F1
:1025B000249800680321002205F0A4F8FFE7FFE754
:1025C000FFE72498006804F0B5FF002840F044813C
:1025D000FFE724980068239A1168D26805F016F87E
:1025E0002398C0680021C4F27F01884240F0338103
:1025F000FFE724980068109023980068400330B9E2
:10260000FFE723980068C0F384600F9015E02398DB
:10261000006890FAA0F03290329820B9FFE72020AD
:102620008DF8CF0005E03298B0FA80F08DF8CF0039
:10263000FFE79DF8CF000F90FFE70F98013000F003
:102640001F0009287DD8FFE723980068400330B9B0
:10265000FFE723980068C0F384600E9015E023988C
:10266000006890FAA0F03090309820B9FFE7202061
:102670008DF8C70005E03098B0FA80F08DF8C700FB
:10268000FFE79DF8C7000E90FFE70E98013000F0BD
:102690001F0080060D9023980068400330B9FFE7C3
:1026A00023980068C0F384600C9015E023980068BC
:1026B00090FAA0F02E902E9820B9FFE720208DF8F8
:1026C000BF0005E02E98B0FA80F08DF8BF00FFE75C
:1026D0009DF8BF000C90FFE70D980C99013101F0B7
:1026E0001F020121914008430B902398006840038A
:1026F00030B9FFE723980068C0F384600A9015E0C2
:102700002398006890FAA0F02C902C9820B9FFE74D
:1027100020208DF8B70005E02C98B0FA80F08DF8F5
:10272000B700FFE79DF8B7000A90FFE70B980A99FA
:10273000013101F01F0101EB410140EA0150099014
:1027400082E023980068400330B9FFE723980068CF
:10275000C0F38460089015E02398006890FAA0F018
:102760002A902A9820B9FFE720208DF8AF0005E0D5
:102770002A98B0FA80F08DF8AF00FFE79DF8AF001F
:102780000890FFE70898013000F01F0080060790CE
:1027900023980068400330B9FFE723980068C0F32E
:1027A0008460069015E02398006890FAA0F02890C5
:1027B000289820B9FFE720208DF8A70005E0289889
:1027C000B0FA80F08DF8A700FFE79DF8A70006900B
:1027D000FFE707980699013101F01F02012191409E
:1027E0000843059023980068400330B9FFE7239819
:1027F0000068C0F38460049015E02398006890FAA4
:10280000A0F02690269820B9FFE720208DF89F00A1
:1028100005E02698B0FA80F08DF89F00FFE79DF85C
:102820009F000490FFE705990498013000F01F0015
:1028300000EB40020020CFF6206000EB025008437E
:1028400040F000700990FFE710980999239A926868
:1028500004F0C0FEFFE7FFE72398408848F2080134
:10286000084200F00281FFE7249801680120B1F1DD
:10287000A04F03900CD0FFE7249800684FF600713A
:10288000CAF6FF710844B0FA80F040090390FFE7F0
:102890000398C10740F20070C5F2000000291CBF78
:1028A00040F20030C5F2000004F014FE209023989E
:1028B000006840F20001CCF22131884208D0FFE7E5
:1028C000239800681021C9F2C001884251D1FFE766
:1028D0009DF88200000600284BD4FFE7249800688A
:1028E000B0F1A04F44D1FFE7249801680120B1F175
:1028F000A04F02900CD0FFE7249800684FF60071BB
:10290000CAF6FF710844B0FA80F040090290FFE770
:102910000298C10740F20070C5F2000000291CBFF8
:1029200040F20030C5F20000209941F4000104F0AB
:1029300095FE40F20000C2F2000000684FEA9010DD
:1029400042F66351C0F23E51A0FB01104FEA9010D5
:1029500000EB40014FF00C0000EB81001F90FFE7FF
:102960001F9820B1FFE71F9801381F90F8E7FFE795
:102970007AE0239800680021CCF25271884232D16B
:10298000FFE79DF88300C00768BBFFE72498006855
:10299000B0F1A04F26D1FFE7249801680120B1F1E2
:1029A000A04F01900CD0FFE7249800684FF600710B
:1029B000CAF6FF710844B0FA80F040090190FFE7C1
:1029C0000198C10740F20070C5F2000000291CBF49
:1029D00040F20030C5F20000209941F0807104F00F
:1029E0003DFEFFE73FE0239800680021CCF68431EC
:1029F000884236D1FFE79DF882004006002830D497
:102A0000FFE72498006840F20011C5F200018842F7
:102A100026D0FFE7249801680120B1F1A04F009073
:102A20000CD0FFE7249800684FF60071CAF6FF71DA
:102A30000844B0FA80F040090090FFE70098C10711
:102A400040F20070C5F2000000291CBF40F20030C7
:102A5000C5F20000209941F4800104F0FFFDFFE77A
:102A600000E0FFE7FFE7FFE7FFE708E02499C86D14
:102A700040F02000C86501208DF88B00FFE7FFE7DC
:102A80002499002081F85800FFE79DF88B008DF80D
:102A90009700FFE79DF8970044B080BD81B000909B
:102AA00001B0704781B0009001B0704781B00090D4
:102AB00001B0704780B58CB00A9000208DF82700D7
:102AC00005900A9820B9FFE701208DF82F00C8E192
:102AD0000A98406940B1FFE70A9890F8240001285D
:102AE00001D1FFE7FFE7FFE70A98C06D50B9FFE7A4
:102AF0000A9800F0BBF90A99002008660A9981F843
:102B00005800FFE70A98006804F00CFD28B1FFE7C1
:102B10000A98006804F0B4FCFFE70A98006804F023
:102B200011FDF0B9FFE70A98006804F0C3FC40F219
:102B30000000C2F200000068800942F66351C0F252
:102B40003E51A0FB01108109022000EB41000590DD
:102B5000FFE7059820B1FFE7059801380590F8E7F1
:102B6000FFE70A98006804F0EDFC70B9FFE70A99E6
:102B7000C86D40F01000C8650A99086E40F0010069
:102B8000086601208DF82700FFE70A98006804F026
:102B9000E1FC07900A98C06DC006002800F153813F
:102BA000FFE70798002840F04E81FFE70A98C06DC4
:102BB00040F0020020F480700A99C8650A98006805
:102BC00004F0B8FC002868D1FFE70A9801680120EA
:102BD000B1F1A04F04900CD0FFE70A9800684FF6BF
:102BE0000071CAF6FF710844B0FA80F04009049001
:102BF000FFE70498C10740F20070C5F20000002909
:102C00001CBF40F20030C5F2000040F20031C5F2B6
:102C10000001884210D1FFE74FF0A04004F08AFC89
:102C2000029040F20010C5F2000004F083FC01465F
:102C300002980843039007E040F20040C5F200000C
:102C400004F078FC0390FFE7039828BBFFE70A989D
:102C500001680120B1F1A04F01900CD0FFE70A9864
:102C600000684FF60071CAF6FF710844B0FA80F0B0
:102C700040090190FFE70198C10740F20070C5F2DA
:102C8000000000291CBF40F20030C5F200000A9984
:102C9000496804F0D5FCFFE7FFE70A994A7FC86B53
:102CA00040EA42308A68CB681843104391F82410F8
:102CB00040EA014008900A9890F8240001280BD1BE
:102CC000FFE70A98816A0020CFF6FE7000EB4141D1
:102CD000089808430890FFE70A98C06A50B1FFE7D8
:102CE0000A99C86A096B00F4787001430898084390
:102CF0000890FFE70A980068C06844F20701CFF621
:102D0000F0710840089908430A990968C8600A9850
:102D10000068006920F040600A9A1168526B104305
:102D200008610A98006804F0F5FB069007980028EF
:102D300068D1FFE70698002864D1FFE70A99087F69
:102D400091F83810800340EA410008900A98006822
:102D5000C06844F202018843089908430A99096847
:102D6000C8600A980069A0B1FFE70A98016808697D
:102D700040F4803008610A980068D0F8C00043F63B
:102D8000FF7188430A9A116812691043C1F8C000A4
:102D900011E00A980168086920F4803008610A98F7
:102DA0000068D0F8C00043F6FF7188430A990968AB
:102DB000C1F8C000FFE70A9890F84000012819D137
:102DC000FFE70A980068006940F2FD7120EA0102FD
:102DD0000A9B1968586CD3F848E0D3F84CC040EA15
:102DE0000E0040EA0C001B6D1843104340F0010038
:102DF000086106E00A980168086920F0010008618E
:102E0000FFE7FFE70A98406901280CD1FFE70A981D
:102E10000068006B20F00F000A9A1168126A013AEC
:102E20001043086306E00A980168086B20F00F0061
:102E30000863FFE70A98C06D40F0010020F002002F
:102E40000A99C86508E00A99C86D40F01000C86585
:102E500001208DF82700FFE79DF827008DF82F004F
:102E6000FFE79DF82F000CB080BD000080B5A6B034
:102E700025900020249023902290219020900CA84F
:102E80005021FDF72CFB25980068B0F1A04F72D1BE
:102E9000FFE74FF400400C904FF000501C900CA83E
:102EA00002F00AF918B1FFE7FFF724F9FFE740F253
:102EB000E800C2F2000001680131016000680128E9
:102EC00010D1FFE7FFE741F24C00C4F202000168B5
:102ED00041F400510160006800F400500B900B9821
:102EE000FFE7FFE7FFE741F24C00C4F20200016890
:102EF00041F002010160006800F002000A900A98A7
:102F0000FFE74FF4A0402090032021900020049080
:102F1000229040F20040C4F6000020A901F040F8E1
:102F2000049940F23020C2F2000005901C22C4F245
:102F300002020260052242608160C160802202615B
:102F40004FF4807242614FF4806282612022C2613C
:102F5000016200F041FD18B1FFE7FFF7CBF8FFE792
:102F6000FFE7259840F23021C2F200014165259823
:102F70008862FFE7B4E02598006840F20011C5F2CE
:102F80000001884240F0AB80FFE74FF400400C9016
:102F90004FF000501C900CA802F08EF818B1FFE71B
:102FA000FFF7A8F8FFE740F2E800C2F2000001686E
:102FB000013101600068012810D1FFE7FFE741F20D
:102FC0004C00C4F20200016841F400510160006845
:102FD00000F4005009900998FFE7FFE7FFE741F28E
:102FE0004C00C4F20200016841F004010160006875
:102FF00000F0040008900898FFE7FFE741F24C005A
:10300000C4F20200016841F001010160006800F0B3
:10301000010007900798FFE7FFE741F24C00C4F278
:103020000200016841F002010160006800F0020046
:1030300006900698FFE70F20209003200090219033
:1030400000200290229040F60000C4F6000020A963
:10305000019100F0A5FF009A01990298C3232093E3
:10306000219222904FF0904000F09AFF009A01992F
:1030700002984FF4004320932192229040F20040A6
:10308000C4F6000000F08CFF029940F29020C2F2DA
:10309000000003900822C4F202020260242242606F
:1030A0008160C160802202614FF4807242614FF4FE
:1030B000806282612022C261016200F08DFC18B141
:1030C000FFE7FFF717F8FFE7FFE7259840F29021A9
:1030D000C2F20001416525988862FFE7FFE7FFE73C
:1030E00026B080BD80B588B0069005910492069800
:1030F00001680120B1F1A04F01900CD0FFE70698C4
:1031000000684FF60071CAF6FF710844B0FA80F00B
:1031100040090190FFE70198C10740F20070C5F235
:10312000000000291CBF40F20030C5F2000004F08E
:10313000D9F902900698006804F00CFA002840F0D3
:10314000B780FFE7FFE7069890F85800012804D100
:10315000FFE702208DF81F00B3E00699012081F8F7
:103160005800FFE7FFE70698006840F20041C5F20B
:10317000000188420CD0FFE7029848B1FFE70298AF
:10318000052805D0FFE70298092840F08680FFE770
:103190000698FDF7E7FC8DF80F009DF80F0000285A
:1031A00073D1FFE70698C06D40F4807040F601616E
:1031B00088430699C8650698006840F20011C5F278
:1031C0000001884204D1FFE74FF0A040009003E0E7
:1031D000069800680090FFE7009806990968884201
:1031E00003D0FFE7029830B9FFE70699C86D20F4D5
:1031F0008010C865FFE70698C06DC004002806D59A
:10320000FFE70699086E20F00600086603E00699BD
:1032100000200866FFE70698416D40F64D20C0F695
:103220000000C8620698416D40F64D30C0F60000BF
:1032300008630698416D40F62130C0F600004863EF
:10324000069801681C200860FFE70699002081F8B5
:103250005800FFE706980168486840F01000486091
:1032600006980168C86840F00100C86006980168C7
:10327000406D4031059A049B00F05AFC8DF80F0018
:103280000698006804F098F906E0FFE70699002028
:1032900081F85800FFE7FFE709E001208DF80F00F3
:1032A000FFE70699002081F85800FFE7FFE703E0F9
:1032B00002208DF80F00FFE79DF80F008DF81F002A
:1032C000FFE79DF81F0008B080BD000080B58AB000
:1032D00008900791069200208DF81700089818B101
:1032E000FFE7079820B9FFE701208DF82700AEE13E
:1032F0000798C069012801D1FFE7FFE707988068B8
:10330000042801D1FFE7FFE7FFE70898407901288B
:1033100004D1FFE702208DF8270098E108990120E9
:103320004871FFE7FFE70899022008710798806855
:10333000042878D1FFE701F015F80290069848BB01
:10334000FFE7FFE708980068406B000400281BD5E2
:10335000FFE701F007F80299401A022813D3FFE7AC
:1033600008980068406B000400280BD5FFE7089917
:10337000086940F0080008610899032008718DF879
:10338000270064E1FFE7DDE70798406A08990968CC
:10339000086426E0FFE708980068406BC00FD0B1D2
:1033A000FFE700F0DFFF0299401A022812D3FFE77F
:1033B00008980068406BC00F58B1FFE7089908698A
:1033C00040F0080008610899032008718DF8270073
:1033D0003DE1FFE7DFE70798406A0899096848641C
:1033E000FFE708980068806C069901F0100240F22F
:1033F000FF31914088430799896A914008430899B1
:103400000968886408980068C06C069901F0100289
:10341000FF21914088430799C96A91400843089960
:103420000968C864FFE70798C06901281ED1FFE753
:1034300008980068806B0490069800F010011F2027
:1034400000FA01F10498884304900798006A0390F9
:103450000398069901F0100100FA01F1049808435D
:1034600004900498089909688863FFE70898006841
:10347000C06B0490069800F01001072000FA01F1DB
:1034800004988843049007988069012803D1FFE7D6
:103490000020009013E007988069022803D1FFE71D
:1034A000012000900AE00798406918B9FFE7012061
:1034B000009002E000200090FFE7FFE7FFE7079998
:1034C000886849690843009908430390069800F00A
:1034D00010014FF4807000FA01F1049888430490C1
:1034E00007980279039840F48071012A08BF0846C2
:1034F0000390069800F010014FF4007000FA01F1FB
:1035000004988843049007984279039840F4007126
:10351000012A08BF08460390049820F44040049014
:1035200007980068022820D1FFE702F0D9F901903E
:10353000019846F60101C0F68911884205D3FFE7DC
:10354000049840F4004004900EE001984BF20141D1
:10355000C0F2C441884205D3FFE7049840F480409C
:10356000049000E0FFE7FFE705E007980168049892
:1035700008430490FFE70398069901F0100100FA50
:1035800001F1049808430490049808990968C863F5
:10359000069800F010014FF4804000FA01F20898FC
:1035A0000168086890430860089800680068049003
:1035B000069800F0100140F6FE7000FA01F1049840
:1035C000884304900798C06803900398069901F017
:1035D000100100FA01F10498084304900498089936
:1035E00009680860069800F01001C02000FA01F296
:1035F000089801680868904308600798C068C0F39D
:10360000830003900798006900F03C01039840EAAA
:103610008110039008980068006E069901F010026E
:1036200040F60F71914088430399914008430899EF
:1036300009680866089901200871FFE708990020C9
:103640004871FFE79DF817008DF82700FFE79DF808
:1036500027000AB080BD000080B582B000900098BD
:1036600020B9FFE701208DF8070016E000980079E7
:1036700038B9FFE7009900204871009800F012F86F
:10368000FFE7009902200871009900200861009A64
:10369000012111718DF80700FFE79DF8070002B0C6
:1036A00080BD000080B588B007900020069005908E
:1036B0000490039002900798006840F60001C5F25C
:1036C000000188422AD1FFE7FFE741F24C00C4F233
:1036D0000200016841F480310160006800F480302C
:1036E00001900198FFE7FFE741F24C00C4F20200AD
:1036F000016841F001010160006800F001000090E4
:103700000098FFE7202002900320039000200490FF
:103710004FF0904002A900F043FCFFE708B080BDE5
:1037200082B0019000208DF80300019890F82500E8
:10373000022807D0FFE701990420C86301208DF813
:1037400003002DE001980168086820F00E00086071
:103750000198816C086820F4807008600198016805
:10376000086820F0010008600198016C406C00F0CE
:103770001F020120904048600198C16C006D4860B4
:103780000198406D58B1FFE70198416D086820F439
:10379000807008600198816DC06D4860FFE7FFE7A9
:1037A0000199012081F82500FFE70199002081F8A7
:1037B0002400FFE79DF8030002B0704780B582B097
:1037C000019000208DF80300019890F82500022850
:1037D00011D0FFE701990420C8630199012081F805
:1037E0002500FFE70199002081F82400FFE7012070
:1037F0008DF803003FE001980168086820F00E0092
:10380000086001980168086820F0010008600198CC
:10381000816C086820F4807008600198016C406C2D
:1038200000F01F020120904048600198C16C006DBB
:1038300048600198406D58B1FFE70198416D0868F4
:1038400020F4807008600198816DC06D4860FFE7CA
:103850000199012081F82500FFE70199002081F8F6
:103860002400FFE70198806B20B1FFE70198816B8E
:103870008847FFE7FFE79DF8030002B080BD000026
:1038800080B584B003900398006C006802900398A0
:1038900000680068019002980399496C01F01F01CB
:1038A000C8404007002825D5FFE79DF804004007E1
:1038B00000281FD5FFE703980068006880060028ED
:1038C00007D4FFE703980168086820F00400086047
:1038D000FFE70398016C406C00F01F020420904049
:1038E00048600398006B20B1FFE70398016B88479D
:1038F000FFE76EE002980399496C01F01F01C84090
:10390000800700282FD5FFE79DF8040080070028D6
:1039100029D5FFE7039800680068800600280BD4CB
:10392000FFE703980168086820F00A00086003991F
:10393000012081F82500FFE70398016C406C00F03E
:103940001F02022090404860FFE70399002081F8A1
:103950002400FFE70398C06A20B1FFE70398C16A1B
:103960008847FFE734E002980399496C01F01F0192
:10397000C8400007002829D5FFE79DF8040000078C
:10398000002823D5FFE703980168086820F00E009F
:1039900008600398026C406C00F01F01012000FADF
:1039A00001F151600399C863039981F82500FFE78D
:1039B0000399002081F82400FFE70398406B20B1B1
:1039C000FFE70398416B8847FFE700E0FFE7FFE769
:1039D000FFE704B080BD000080B584B0029002987B
:1039E00020B9FFE701208DF80F009CE002980068E5
:1039F00040F20741C4F20201884218D8FFE7029959
:103A000008684FF6F872CBF6FD7210444CF6CD42C2
:103A1000CCF6CC42A0FB02026FF0030000EA920059
:103A2000486402990020C4F20200086418E0029978
:103A300008684FF6F832CBF6FD7210444CF6CD42D2
:103A4000CCF6CC42A0FB02026FF0030000EA920029
:103A50004864029940F20040C4F202000864FFE7A3
:103A60000299022081F82500029800680068019000
:103A7000019847F6F0718843019002998868D1F85F
:103A80000CC00B694A6940EA0C00184310438A696C
:103A90001043CA691043096A014301980843019021
:103AA00001980299096808600298FEF791FA029855
:103AB0008068B0F5804F04D1FFE70299002048608C
:103AC000FFE702990879896C08600298C16C006D63
:103AD00048600298406888B1FFE70298406804286F
:103AE0000CD8FFE70298FEF7ADFA0298416D00206E
:103AF00008600298816DC06D486007E0029900205F
:103B00004865029988650299C865FFE70299002017
:103B1000C863029A012182F82510029981F82400D5
:103B20008DF80F00FFE79DF80F0004B080BD000086
:103B300080B586B0049003910292019300208DF825
:103B40000300FFE7049890F82400012804D1FFE760
:103B500002208DF8170065E00499012081F8240007
:103B6000FFE7FFE7049890F8250001284BD1FFE715
:103B70000499022081F8250004990020C863049864
:103B80000168086820F00100086004980399029A0F
:103B9000019BFEF775FA0498006B38B1FFE70498B3
:103BA0000168086840F00E0008600CE004980168A5
:103BB000086820F00400086004980168086840F074
:103BC0000A000860FFE70498806C0068C0030028C2
:103BD00007D5FFE70498816C086840F4807008609E
:103BE000FFE70498406D38B1FFE70498416D08681D
:103BF00040F480700860FFE704980168086840F0AE
:103C00000100086009E0FFE70499002081F8240022
:103C1000FFE702208DF80300FFE79DF803008DF811
:103C20001700FFE79DF8170006B080BD80B584B08F
:103C30000290029820B9FFE701208DF80F0057E1AC
:103C40000298006846F20041C4F20001884201D1A6
:103C5000FFE7FFE702988068B0F5407F01D1FFE7FA
:103C6000FFE7029890F85C0040B9FFE70299002056
:103C700081F85D00029800F03FF9FFE702980168C3
:103C8000886920F01000886100F06CFB0190FFE76C
:103C90000298006880690007002815D5FFE700F04A
:103CA00061FB0199401A0B280DD3FFE70299086EBA
:103CB00040F0010008660299032081F85C000120B1
:103CC0008DF80F0014E1E3E702980168886940F07D
:103CD0000100886100F046FB0190FFE70298006850
:103CE0008069C007A8B9FFE700F03CFB0199401AC2
:103CF0000B280DD3FFE70299086E40F0010008661B
:103D00000299032081F85C0001208DF80F00EFE09C
:103D1000E4E702980168886940F00200886102982F
:103D2000006846F20041C4F20001884208D1FFE772
:103D30000298406846F20051C4F200010860FFE7B3
:103D40000298007C012807D1FFE702980168886982
:103D500020F04000886106E002980168886940F020
:103D600040008861FFE70298407C012807D1FFE707
:103D700002980168886940F48040886106E00298F2
:103D80000168886920F480408861FFE70298807CA0
:103D9000012807D1FFE702980168886920F4805064
:103DA000886106E002980168886940F48050886163
:103DB000FFE702980068806920F44070029A116859
:103DC00092681043886102980168886920F0A40015
:103DD000886102980168086920F010000861029863
:103DE000C068012807D1FFE702980168886940F0A0
:103DF000040088612BE00298C06830B3FFE70298A6
:103E0000C068022819D0FFE702980168886940F06D
:103E10008000886102980168086940F0100008611C
:103E20000298C068032807D1FFE7029801688869F3
:103E300040F020008861FFE706E002980168886989
:103E400040F020008861FFE700E0FFE7FFE7029A0B
:103E5000116853699069D2F81CE0A0F1010C6FF071
:103E6000FF0000EB0E2040EA4C60126A013A10435A
:103E70000022CFF6FF7202EB03421043C8610298A2
:103E80008068B0F5407F1CD1FFE7029A1168536A41
:103E9000906AD2F82CE001386FF0FF0C0CEB0E2C7E
:103EA00040EA0C00D2F830C06FF00F0202EB0C12A7
:103EB00010430022CFF6FF7202EB03421043C860AA
:103EC000FFE702980168C26BD1F8C0001043C1F847
:103ED000C0000298FEF716F9029900208865029941
:103EE0000866029A012182F85C108DF80F00FFE746
:103EF0009DF80F0004B080BD80B59CB01B900020E1
:103F00001A90199018901790169002A85021FCF75B
:103F1000E6FA1B98006846F20041C4F200018842AC
:103F20003CD1FFE74FF4805002904FF000700F90AB
:103F300002A801F0C1F818B1FFE7FEF7DBF8FFE7D0
:103F4000FFE741F25800C4F20200016841F000713D
:103F50000160006800F0007001900198FFE7FFE742
:103F600041F24C00C4F20200016841F0010101601D
:103F7000006800F0010000900098FFE74FF4C05087
:103F800016900220179000201890199009201A907E
:103F90004FF0904016A900F003F8FFE71CB080BD79
:103FA0008BB00A90099100200890FFE709980068FB
:103FB0000899C840002800F0A581FFE7099800682B
:103FC000089A01219140084007900798002800F0C6
:103FD0009581FFE70998406800F00300012807D0A9
:103FE000FFE70998406800F0030002282FD1FFE79F
:103FF0000A988068069008984100032000FA01F1B1
:104000000698884306900998C0680899490000FA04
:1040100001F106980843069006980A9988600A9864
:10402000406806900899012000FA01F1069888433B
:10403000069009984068C0F30010089900FA01F151
:1040400006980843069006980A994860FFE7099881
:10405000406800F00300032818D0FFE70A98C06802
:10406000069008984100032000FA01F10698884361
:104070000690099880680899490000FA01F10698AD
:104080000843069006980A99C860FFE709984068B7
:1040900000F00300022826D1FFE70A9808996FF084
:1040A000030202EA51010844006A0690089800F0F1
:1040B000070081000F2000FA01F10698884306905E
:1040C00009980069089901F00701890000FA01F1D7
:1040D00006980843069006980A99089B02EA53023C
:1040E00011440862FFE70A980068069008984100AA
:1040F000032000FA01F10698884306900998406869
:1041000000F003000899490000FA01F106980843FD
:10411000069006980A990860099880798007002817
:1041200000F0EB80FFE7FFE741F26000C4F202001D
:10413000016841F001010160006800F00100059094
:104140000598FFE7089820F003000821C4F2010158
:1041500040580690089800F0030081000F2000FAF4
:1041600001F10698884306900A98B0F1904F03D168
:10417000FFE70020049042E00A9840F20041C4F6B4
:104180000001884203D1FFE70120039034E00A9840
:1041900040F60001C4F60001884203D1FFE7022087
:1041A000029026E00A9840F60041C4F600018842D9
:1041B00003D1FFE70320019018E00A9841F20001C3
:1041C000C4F60001884203D1FFE7042000900AE012
:1041D0000A9941F20042C4F600020620914208BF4B
:1041E00005200090FFE700980190FFE701980290FA
:1041F000FFE702980390FFE703980490FFE7049815
:10420000089901F00301890000FA01F106980843BA
:1042100006900698089921F003010822C4F20102D1
:10422000885040F20840C4F20100006806900799E7
:1042300006988843069009988079C006002805D51D
:10424000FFE70799069808430690FFE7069840F2B3
:104250000841C4F20101086040F20C40C4F20100C0
:104260000068069007990698884306900998807917
:104270008006002805D5FFE70799069808430690B1
:10428000FFE7069840F20C41C4F20101086040F2D9
:104290000440C4F20100006806900799069888431C
:1042A0000690099880798007002805D5FFE70799CF
:1042B000069808430690FFE7069840F20441C4F2CE
:1042C0000101086040F20040C4F20100006806905D
:1042D000079906988843069009988079C00728B105
:1042E000FFE70799069808430690FFE7069840F213
:1042F0000041C4F201010860FFE7FFE708980130C0
:10430000089053E60BB0704782B00190ADF80210F0
:1043100001980069BDF80210084204D0FFE70120AF
:104320008DF8010003E000208DF80100FFE79DF803
:10433000010002B07047000082B00190ADF8021099
:104340008DF801209DF8010028B1FFE7BDF80200BB
:104350000199886104E0BDF8020001998862FFE7D5
:1043600002B0704740F2E050C2F2000000687047AF
:1043700083B001900091019890F8410020283BD132
:10438000FFE7FFE7019890F84000012804D1FFE71C
:1043900002208DF80B0033E00199012081F84000E4
:1043A000FFE7FFE70199242081F8410001980168A7
:1043B000086820F00100086001980168086820F48E
:1043C00080500860009A01980168086810430860EE
:1043D00001980168086840F00100086001992020F8
:1043E00081F84100FFE70199002081F84000FFE7D4
:1043F00000208DF80B0003E002208DF80B00FFE792
:104400009DF80B0003B0704784B0029001910298B0
:1044100090F84100202840D1FFE7FFE7029890F88C
:104420004000012804D1FFE702208DF80F0038E09A
:104430000299012081F84000FFE7FFE7029924205C
:1044400081F8410002980168086820F001000860C6
:104450000298006800680090009820F47060009056
:104460000199009840EA012000900098029909689B
:10447000086002980168086840F00100086002992D
:10448000202081F84100FFE70299002081F84000D8
:10449000FFE700208DF80F0003E002208DF80F00E9
:1044A000FFE79DF80F0004B07047000080B582B0B0
:1044B0000090009820B9FFE701208DF807007BE00D
:1044C000009890F8410040B9FFE70099002081F87A
:1044D0004000009800F0F4FAFFE70099242081F8EA
:1044E000410000980168086820F001000860009809
:1044F0000168406820F07060086100980168886871
:1045000020F4004088600098C068012807D1FFE7C8
:1045100000980168806840F40040886006E00098D8
:104520000168806840F404408860FFE70098C06834
:10453000022807D1FFE700980168486840F400604E
:10454000486006E000980168486820F40060486010
:10455000FFE700980168486848F20002C0F20022B4
:104560001043486000980168C86820F40040C860A3
:10457000009A1168106953699269184340EA022051
:10458000C860009A1168D069126A104308600098E8
:104590000168086840F00100086000990020486444
:1045A000009A202182F8411000990863009981F84F
:1045B00042008DF80700FFE79DF8070002B080BDBC
:1045C00010B588B084460C980B98DDF828E0CDF83B
:1045D00018C0ADF81610ADF81420ADF81230ADF8D3
:1045E0001000069890F84100202840F02681FFE74F
:1045F0000A9820B1FFE7BDF8100040B9FFE706991F
:104600004FF40070486401208DF81F0019E1FFE7A6
:10461000069890F84000012804D1FFE702208DF8A9
:104620001F000EE10699012081F84000FFE7FFE737
:10463000FFF798FE0390069803996A4611604FF4BD
:1046400000410122192302F0F1FD20B1FFE7012012
:104650008DF81F00F5E00699222081F841000699A7
:10466000402081F842000699002048640A99069A81
:104670005162BDF81010069A518506994863069854
:10468000BDF81610BDF81420BDF81230DDF830C0AA
:10469000039CEE46CEF80440CEF800C002F0DCFCED
:1046A00050B1FFE7FFE70699002081F84000FFE7DF
:1046B00001208DF81F00C4E00698408DB0F5807F82
:1046C00014D3FFE70699FF2008850698BDF8161059
:1046D00090F82820EC4642F20043C8F20003CCF8E0
:1046E00000304FF0807302F077FD14E00698408DA3
:1046F000069908850698BDF8161090F82820EC4613
:1047000042F20043C8F20003CCF800304FF00073CF
:1047100002F062FDFFE7FFE706980C9B03996A46EB
:1047200011600421002202F081FD20B1FFE7012089
:104730008DF81F0085E006980068406A0699496A6E
:1047400008700699486A013048620699088D013858
:1047500008850699488D013848850698408DE8B34C
:10476000FFE70698008DC8BBFFE706980C9B0399EE
:104770006A4611608021002202F058FD20B1FFE757
:1047800001208DF81F005CE00698408DB0F5807F19
:1047900011D3FFE70699FF2008850698BDF816108B
:1047A00090F82820EC460023CCF800304FF08073BE
:1047B00002F012FD11E00698408D069908850698D2
:1047C000BDF8161090F82820EC460023CCF80030F5
:1047D0004FF0007302F000FDFFE7FFE7FFE70698E8
:1047E000408D002898D1FFE706980C99039A02F0B3
:1047F0007FFD20B1FFE701208DF81F0021E0069822
:1048000001682020C86106990A6851684EF60003C5
:10481000CFF6006319405160069981F8410006996E
:10482000002081F84200FFE70699002081F840004F
:10483000FFE700208DF81F0003E002208DF81F0025
:10484000FFE79DF81F0008B010BD000010B588B04C
:1048500084460C980B98DDF828E0CDF818C0ADF828
:104860001610ADF81420ADF81230ADF8100006980F
:1048700090F84100202840F01B81FFE70A9820B102
:10488000FFE7BDF8100040B9FFE706994FF400704C
:10489000486401208DF81F000EE1FFE7069890F8AC
:1048A0004000012804D1FFE702208DF81F0003E13A
:1048B0000699012081F84000FFE7FFE7FFF752FD6E
:1048C0000390069803996A4611604FF40041012253
:1048D000192302F0ABFC20B1FFE701208DF81F0087
:1048E000EAE00699212081F841000699402081F8EC
:1048F00042000699002048640A99069A5162BDF860
:104900001010069A5185069948630698BDF816104E
:10491000BDF81420BDF81230DDF830C0039CEE461F
:10492000CEF80440CEF800C002F0F6FB50B1FFE72D
:10493000FFE70699002081F84000FFE701208DF88D
:104940001F00B9E00698408DB0F5807F11D3FFE7D6
:104950000699FF2008850698BDF8161090F82820C3
:10496000EC460023CCF800304FF0807302F034FCAA
:1049700011E00698408D069908850698BDF8161036
:1049800090F82820EC460023CCF800304FF000735C
:1049900002F022FCFFE7FFE706980C99039A02F069
:1049A000F9FC20B1FFE701208DF81F0084E0069894
:1049B0000168406A007888620699486A0130486256
:1049C0000699488D013848850699088D0138088573
:1049D0000698408DE8B3FFE70698008DC8BBFFE757
:1049E00006980C9B03996A4611608021002202F010
:1049F0001DFC20B1FFE701208DF81F005CE0069848
:104A0000408DB0F5807F11D3FFE70699FF20088520
:104A10000698BDF8161090F82820EC460023CCF834
:104A200000304FF0807302F0D7FB11E00698408D04
:104A3000069908850698BDF8161090F82820EC46CF
:104A40000023CCF800304FF0007302F0C5FBFFE705
:104A5000FFE7FFE70698408D00289DD1FFE7069805
:104A60000C99039A02F044FC20B1FFE701208DF875
:104A70001F0021E0069801682020C86106990A6895
:104A800051684EF60003CFF6006319405160069955
:104A900081F841000699002081F84200FFE706995D
:104AA000002081F84000FFE700208DF81F0003E0A0
:104AB00002208DF81F00FFE79DF81F0008B010BD11
:104AC00080B5A4B0239000202290219020901F90C8
:104AD0001E900AA85021FBF702FD2398006845F6B6
:104AE0000001C4F2000188425ED1FFE780200A90F5
:104AF000002012900AA800F0DFFA18B1FFE7FDF7D6
:104B0000F9FAFFE7FFE741F24C00C4F20200016846
:104B100041F004010160006800F004000990099868
:104B2000FFE7FFE741F24C00C4F20200016841F0E8
:104B300001010160006800F0010008900898FFE79B
:104B400010201E90122001901F90002002902090B3
:104B5000219004200390229040F60000C4F600004B
:104B60001EA90491FFF71CFA019B029A039804996D
:104B70004FF4807CCDF878C01F9320922192229030
:104B80004FF09040FFF70CFAFFE741F25800C4F2F3
:104B90000200016841F480010160006800F48000B7
:104BA00007900798FFE746E02398006847F6000162
:104BB000C4F2000188423DD1FFE74FF480700A90B3
:104BC000002013900AA800F077FA18B1FFE7FDF76C
:104BD00091FAFFE7FFE741F24C00C4F202000168DE
:104BE00041F004010160006800F00400069006989E
:104BF000FFE74FF440701E9012201F90002020907D
:104C000021900820229040F60000C4F600001EA962
:104C1000FFF7C6F9FFE741F25800C4F2020001684D
:104C200041F080410160006800F0804005900598E7
:104C3000FFE7FFE7FFE724B080BD000040F224005B
:104C4000C2F20000026840F2E051C2F200010868BE
:104C5000104408607047000080B582B000208DF8D5
:104C60000700032000F03CF90F2000F00DF820B100
:104C7000FFE701208DF8070002E000F0EBF8FFE706
:104C80009DF8070002B080BD80B582B00190002081
:104C90008DF8030040F22400C2F20000006878B3EF
:104CA000FFE740F20000C2F20000006840F2240179
:104CB000C2F200010A684FF47A71B1FBF2F1B0FB65
:104CC000F1F001F095FAB0B9FFE701980F280DD87F
:104CD000FFE701994FF0FF30002200F0E9F801985A
:104CE00040F22801C2F20001086003E001208DF8C3
:104CF0000300FFE703E001208DF80300FFE703E076
:104D000001208DF80300FFE79DF8030002B080BD8D
:104D100080B584B002900191029820B9FFE701208C
:104D20008DF80F0062E00298C069B0F5004F04D121
:104D3000FFE701208DF80F0058E00298806820B14D
:104D4000FFE701208DF80F0050E00298D0F88800AE
:104D500040B9FFE70299002081F88400029801F031
:104D600035FEFFE702992420C1F888000298016807
:104D7000086820F0010008600298806A20B1FFE70F
:104D8000029803F0C1FAFFE7029804F011F9012834
:104D900004D1FFE701208DF80F0027E00298016899
:104DA000486820F40060486002980168886820F034
:104DB0002A00886002980168486840F48040486092
:104DC00002980068406820F0200001990843029989
:104DD0000968486002980168086840F001000860AE
:104DE000029803F035FB8DF80F00FFE79DF80F00E8
:104DF00004B080BD82B00090FFE7009890F8840076
:104E0000012804D1FFE702208DF807001DE000997A
:104E1000012081F88400FFE7FFE700992420C1F812
:104E2000880000980168886940F002008861009954
:104E30002020C1F88800FFE70099002081F8840055
:104E4000FFE700208DF80700FFE79DF8070002B09C
:104E50007047000080B582B0FFE741F26000C4F205
:104E60000200016841F001010160006800F00100EA
:104E700001900198FFE7FFE741F25800C4F20200F9
:104E8000016841F080510160006800F0805000909E
:104E90000098FFE700F006F902B080BD80B582B04F
:104EA0008DF807009DF907000CF09AF902B080BD5B
:104EB00080B586B08DF81700049103920CF0A8F924
:104EC00002909DF91700019002980499039A03F04B
:104ED0002DF8014601980CF0A3F906B080BD000042
:104EE00080B582B0019001980CF0BCF902B080BD91
:104EF00085B00390039800285ED1FFE747F20000D9
:104F0000C4F20000006800F4C060B0F5806F49D1C1
:104F1000FFE747F28001C4F20001086820F48070C6
:104F2000086047F20002C4F200021168012060F339
:104F30004A21116040F20001C2F2000109683222E8
:104F400051434DF68362C4F21B32A1FB022100EBF8
:104F500091400290FFE747F21400C4F2000001689C
:104F6000002049050029019006D5FFE70298002896
:104F700018BF01200190FFE70198C00720B1FFE7AB
:104F8000029801380290E6E747F21400C4F20000EC
:104F900000684005002804D5FFE703208DF81300C2
:104FA0007CE008E047F28001C4F20001086820F4C8
:104FB00080700860FFE76DE00398B0F5007F5ED178
:104FC000FFE747F20000C4F20000006800F4C06090
:104FD000B0F5806F49D1FFE747F28001C4F20001CC
:104FE000086840F48070086047F20002C4F20002D2
:104FF0001168012060F34A21116040F20001C2F201
:1050000000010968322251434DF68362C4F21B321B
:10501000A1FB022100EB91400290FFE747F2140050
:10502000C4F200000168002049050029009006D55F
:10503000FFE70298002818BF01200090FFE70098C2
:10504000C00720B1FFE7029801380290E6E747F277
:105050001400C4F2000000684005002804D5FFE7F2
:1050600003208DF8130019E008E047F28001C4F234
:105070000001086840F480700860FFE709E047F22B
:105080000001C4F200010868022262F34A200860AD
:10509000FFE7FFE700208DF81300FFE79DF81300FE
:1050A00005B0704747F20801C4F20001086840F4F7
:1050B000804008607047000080B586B005900020F1
:1050C0008DF80B008DF80A000598807800070028FD
:1050D00040F1B580FFE700208DF8090041F258004B
:1050E000C4F202000068C000002813D4FFE7FFE705
:1050F00041F25800C4F20200016841F080510160A1
:10510000006800F0805001900198FFE701208DF8C1
:105110000900FFE747F20001C4F20001086840F40B
:1051200080700860FFF71EF90390FFE747F2000068
:10513000C4F200000068C00500280CD4FFE7FFF7A8
:1051400011F90399401A032804D3FFE703208DF8CF
:105150000B0000E0EAE79DF80B0000285BD1FFE7B9
:1051600041F29000C4F20200006800F44070049024
:105170000498C8B1FFE704980599C96C884213D018
:10518000FFE741F29001C4F20201086820F4407088
:105190000490086840F480300860086820F480308B
:1051A000086004980860FFE79DF81000C007E0B1B0
:1051B000FFE7FFF7D7F80390FFE741F29000C4F252
:1051C00002000068800700280ED4FFE7FFF7CAF846
:1051D0000399401A41F28931884204D3FFE7032042
:1051E0008DF80B0000E0E8E7FFE79DF80B0060B9E1
:1051F000FFE741F29001C4F20201086820F4407018
:10520000059AD26C1043086004E09DF80B008DF8FD
:105210000A00FFE704E09DF80B008DF80A00FFE7A5
:105220009DF80900012809D1FFE741F25801C4F2B5
:105230000201086820F080500860FFE7FFE705984A
:105240000078C00760B1FFE741F28801C4F20201B3
:10525000086820F00300059A526810430860FFE7D1
:1052600005980078800700280CD5FFE741F28801F7
:10527000C4F20201086820F00C00059A92681043FD
:105280000860FFE705980078400700280CD5FFE785
:1052900041F28801C4F20201086820F03000059A4A
:1052A000D26810430860FFE70598007800070028DF
:1052B0000CD5FFE741F28801C4F20201086820F032
:1052C000C000059A126910430860FFE7059800784E
:1052D000C00600280CD5FFE741F28801C4F20201A4
:1052E000086820F44070059A526910430860FFE78F
:1052F00005980078800600280CD5FFE741F2880168
:10530000C4F20201086820F44060059A92691043D3
:105310000860FFE705980078400600280CD5FFE7F5
:1053200041F28801C4F20201086820F44050059A55
:10533000D26910430860FFE705980078000600284E
:105340000CD5FFE741F28801C4F20201086820F49D
:105350004040059A126A10430860FFE705984078BC
:10536000C00760B1FFE741F28801C4F2020108689A
:1053700020F44030059A526A10430860FFE7059810
:105380004078800700280CD5FFE741F28801C4F27D
:105390000201086820F44020059A926A10430860D0
:1053A000FFE705984078400700281BD5FFE741F24A
:1053B0008801C4F20201086820F44010059AD26AFC
:1053C000104308600598C06AB0F5801F09D1FFE757
:1053D00041F20C01C4F20201086840F48010086038
:1053E000FFE7FFE705984078000700281BD5FFE797
:1053F00041F28801C4F20201086820F44000059AD5
:10540000126B104308600598006BB0F5800F09D14E
:10541000FFE741F20C01C4F20201086840F4801079
:105420000860FFE7FFE705984078C00600281BD515
:10543000FFE741F28801C4F20201086820F04070E1
:10544000059A526B104308600598406BB0F1807F5D
:1054500009D1FFE741F20C01C4F20201086840F4EF
:1054600080100860FFE7FFE7059840788006002875
:105470001BD5FFE741F28801C4F20201086820F061
:105480004060059A926B104308600598806BB0F1FC
:10549000006F09D1FFE741F20C01C4F20201086874
:1054A00040F480100860FFE7FFE705984078400669
:1054B00000281BD5FFE741F28801C4F20201086809
:1054C00020F04060059AD26B104308600598C06BCD
:1054D000B0F1006F09D1FFE741F20C01C4F2020103
:1054E000086840F480100860FFE7FFE705984078FF
:1054F000000600281BD5FFE741F28801C4F2020133
:10550000086820F04050059A126C10430860059816
:10551000006CB0F1805F09D1FFE741F20C01C4F2E9
:105520000201086840F480300860FFE7FFE7059853
:105530008078C007D8B1FFE741F28801C4F20201C8
:10554000086820F04040059A526C104308600598A6
:10555000406CB0F1804F09D1FFE741F20C01C4F279
:105560000201086840F480300860FFE7FFE7059813
:105570008078400700281BD5FFE741F29C01C4F268
:105580000201086820F44010059A926C10430860EC
:105590000598806CB0F5001F09D1FFE741F20C01BE
:1055A000C4F20201086840F480100860FFE7FFE7DA
:1055B0009DF80A0006B080BD80B586B004900391C6
:1055C00000200090049820B9FFE701208DF8170013
:1055D00081E1039842F20001C4F20201096801F07E
:1055E0000F01884216D9FFE742F20000C4F2020020
:1055F000016821F00F01039A11430160006800F077
:105600000F000399884204D0FFE701208DF81700AE
:1056100061E1FFE704980078C007002800F0A3804C
:10562000FFE704984068032839D1FFE741F2000002
:10563000C4F2020000688001002804D4FFE70120C2
:105640008DF8170047E102F0A9FC019001984BF298
:105650000141C0F2C441884220D3FFE741F2080073
:10566000C4F20200006810F0F00F0AD0FFE70498BF
:1056700000788007002810D5FFE70498806860B99B
:10568000FFE741F20801C4F202010868082262F350
:105690000710086080200090FFE7FFE738E00498DB
:1056A000406802280ED1FFE741F20000C4F2020078
:1056B00000688003002804D4FFE701208DF817005C
:1056C00009E10DE041F20000C4F20200006840056B
:1056D000002804D4FFE701208DF81700FBE0FFE766
:1056E00000F02CF9019001984BF20141C0F2C44145
:1056F00088420CD3FFE741F20801C4F202010868B6
:10570000082262F30710086080200090FFE7FFE79F
:1057100041F20801C4F20201086820F00300049A73
:10572000526810430860FEF71DFE0290FFE741F249
:105730000800C4F20200006800F00C0004994968F7
:10574000B0EB810F0ED0FFE7FEF70CFE0299401A76
:1057500041F28931884204D3FFE703208DF8170016
:10576000B9E0E4E7FFE704980078800700282CD52B
:10577000FFE7049800784007002809D5FFE741F2C9
:105780000801C4F20201086840F4E0600860FFE725
:1057900004980078000700280BD5FFE741F20801C4
:1057A000C4F20201086840F4E06020F46050086030
:1057B000FFE741F20801C4F20201086820F0F0009E
:1057C000049A9268104308600DE00098802809D17F
:1057D000FFE741F20801C4F20201086820F0F0007E
:1057E0000860FFE7FFE7039842F20001C4F20201FC
:1057F000096801F00F01884228D2FFE742F2000158
:10580000C4F20201086820F00F00039A10430860F8
:10581000FEF7A8FD0290FFE742F20000C4F202008A
:10582000006800F00F00039988420ED0FFE7FEF7F2
:1058300099FD0299401A41F28931884204D3FFE769
:1058400003208DF8170046E0E6E7FFE704980078AC
:10585000400700280CD5FFE741F20801C4F202011D
:10586000086820F4E060049AD26810430860FFE7FB
:1058700004980078000700280DD5FFE741F20801E1
:10588000C4F20201086820F46050049A126940EAE8
:10589000C2000860FFE700F051F841F20801C4F2CD
:1058A00002010968C9B20A0941F25671C0F6010144
:1058B000895C01F01F01C84040F20001C2F2000102
:1058C000086040F22800C2F200000068FFF7DCF92F
:1058D0008DF81700FFE79DF8170006B080BD0000A7
:1058E00040F20000C2F200000068704780B5FFF788
:1058F000F7FF41F20801C4F202010968C1F3022274
:1059000041F26671C0F60101895C01F01F01C840D7
:1059100080BD000080B5FFF7E3FF41F20801C4F24B
:1059200002010968C1F3C22241F26671C0F60101A9
:10593000895C01F01F01C84080BD000086B041F2C3
:105940000800C4F20200006800F00C00042806D130
:10595000FFE742F20040C0F2F400019069E041F23A
:105960000800C4F20200006800F00C00082806D10C
:10597000FFE743F20060C0F26E10019058E041F280
:105980000800C4F20200006800F00C000C284BD1A3
:10599000FFE741F20C00C4F20200016801F00301CC
:1059A00004910068C1B2012000EB1110029004982C
:1059B0000090022815D0FFE70098032812D1FFE7D6
:1059C000029943F20060C0F26E10B0FBF1F041F2B8
:1059D0000C01C4F202010968C1F306214843059095
:1059E00011E0FFE7029942F20040C0F2F400B0FB80
:1059F000F1F041F20C01C4F202010968C1F3062181
:105A000048430590FFE741F20C00C4F20200006831
:105A100000F0C061022000EB11600390059803992B
:105A2000B0FBF1F0019002E000200190FFE7FFE7FA
:105A3000FFE7019806B07047B0B588B006900698A9
:105A400020B9FFE701208DF81F00CCE3069800780D
:105A5000C007002800F09B80FFE741F20800C4F275
:105A60000200006800F00C00049041F20C00C4F247
:105A70000200006800F00300039004980C2804D191
:105A8000FFE70398032804D0FFE70498082812D101
:105A9000FFE741F20000C4F2020000688003002822
:105AA00008D5FFE70698406820B9FFE701208DF888
:105AB0001F0098E36AE0FFE706984068B0F5803F72
:105AC00009D1FFE741F20001C4F20201086840F485
:105AD0008030086020E006984068B0F5A02F0DD116
