:020000040800F2
:10000000F01500203503000815650008D95B0008CD
:1000100011650008992800084173000800000000DD
:10002000000000000000000000000000556500080E
:10003000B52800080000000019650008F1650008F7
:100040004F0300084F0300084F0300084F03000848
:100050004F0300084F0300084F0300084F03000838
:100060004F0300084F0300084F0300089D280008B5
:10007000A92800084F0300084F0300084F03000899
:100080004F0300084F0300084F0300084F03000808
:100090004F0300084F0300084F0300084F030008F8
:1000A0004F0300084F0300084F0300084F030008E8
:1000B0004F0300084F0300084F0300084F030008D8
:1000C0004F0300084F0300084F0300084F030008C8
:1000D0004F030008297300084F0300083573000818
:1000E0004F0300084F0300084F0300084F030008A8
:1000F0004F0300084F0300084F0300084F03000898
:10010000000000004F030008000000004F0300083B
:100110004F0300084F0300084F0300084F03000877
:100120004F0300084F0300084F0300084F03000867
:100130004F03000800000000000000004F0300080B
:100140004F0300084F0300080000000000000000FB
:10015000000000000000000000000000000000009F
:100160000000000000000000000000004F03000835
:100170004F0300084F0300084F0300084F03000817
:100180004F0300084F0300080000000000000000BB
:1001900000000000000000004F0300084F030008AB
:1001A00000000000000000004F0300084F0300089B
:1001B0004F0300084F0300084F0300084F030008D7
:1001C0004F0300084F0300084F0300084F030008C7
:1001D0004F0300084F03000800F002F800F09BF8FE
:1001E0000AA090E8000C82448344AAF10107DA4592
:1001F00001D100F090F8AFF2090EBAE80F0013F049
:10020000010F18BFFB1A43F0010318472CAD000083
:100210004CAD0000103A24BF78C878C1FAD8520714
:1002200024BF30C830C144BF04680C607047000070
:100230000023002400250026103A28BF78C1FBD8EF
:10024000520728BF30C148BF0B6070476E2900F0CD
:10025000E182702900F0238466290AF0138465295D
:100260000AF0108467290AF00D8461290AF00C84D1
:1002700003681B0A28BF41F08001692900F08E82C3
:10028000642900F08B82752900F088826F2900F0C4
:10029000B183782900F0EF83E92900F04B83E4294A
:1002A00000F04883F52900F04583EF2900F0AE8384
:1002B000F82900F0EE830368DB0928BF41F08001D4
:1002C000632901F0DB81732901F0E081E32901F06A
:1002D000EB81F32901F0F081002070471FB50AF08F
:1002E000BFFB9DE8030000F05FFD01F07DFA040014
:1002F000002000210AF05CFA401C60600020002110
:100300000AF040FAE06000F079F91FBD10B5002056
:1003100001F0FAF910BD01F039FA1146FFF7DEFFDE
:1003200009F014FE01F030FB03B4FFF7EFFF03BC4C
:1003300000F076F90948804709480047FEE7FEE7E4
:10034000FEE7FEE7FEE7FEE7FEE7FEE7FEE7FEE785
:1003500004480549054A064B70470000A566000899
:10036000D9010008F0050020F0150020F00D002054
:10037000F00D002053EA020C00F069802DE9F04BEB
:100380004FF00006002B1FBFB3FA83F503FA05F404
:1003900024FA05F65E4012BF1643B2FA82F502FA5D
:1003A00005F4C5F120051EBF22FA05FC44EA0C0441
:1003B000203556EA044C4FEA144418BF641C4FF031
:1003C00000084FF00009904271EB030C39D300296B
:1003D00019BFB1FA81F701FA07F6B0FA80F700FA0F
:1003E00007F6C7F120071EBF20FA07FC46EA0C06F5
:1003F0002037B6FBF4FCA7EB0507103F07F01F0BF7
:10040000CBF120062CFA06F60CFA0BFB44BFB346E0
:100410000026202FA4BF5E464FF0000B5BEA060CBF
:1004200008BF4FF0010B19EB0B0948EB0608ABFBBB
:10043000027C06FB02CC0BFB03CCC01B71EB0C0156
:10044000C1E70B46024641464846BDE8F08B13B56E
:10045000084318BF4FF0FF300146AFF30080BDE8FE
:100460001C4070471CB50C46064B7B446946009007
:10047000204600F0E8F904460020694600F0F6F94D
:1004800020461CBDFF03000010B5002000F0EDFB6E
:10049000FFF73CFFBDE81040012000F0C1B80B465B
:1004A0000146184600F0CABB431A28BF9A4240F2E0
:1004B000E38310441144032A40F2268010F0030F16
:1004C0001EBF11F8013D521E00F8013D10F0030F50
:1004D0007FF4F6AF11F0030300F03B80083AC0F060
:1004E0000B8051F8043D083A51F804CD40F8043D22
:1004F00040F804CDFFF7F3BF121D5CBF51F8043D77
:1005000040F8043DAFF30080D20724BF11F8013D4D
:1005100011F801CD48BF11F8012C24BF00F8013DAE
:1005200000F801CD48BF00F8012C7047431A28BFDE
:100530009A4240F2E6831044114410F0030F1EBFAC
:1005400011F8013D521E00F8013D10F0030F7FF439
:10055000F6AF103AC0F00A8010B531E9185020E922
:100560001850103ABFF4F9AFBDE81040530724BF4C
:1005700031E9081020E9081044BF51F8043D40F863
:10058000043D12F0030F08BF7047D20728BF31F8AF
:10059000023D48BF11F8012C28BF20F8023D48BF9A
:1005A00000F8012C70474FF0000200B51346944646
:1005B0009646203922BFA0E80C50A0E80C50B1F1BB
:1005C0002001BFF4F7AF090728BFA0E80C5048BFCF
:1005D0000CC05DF804EB890028BF40F8042B08BF6D
:1005E000704748BF20F8022B11F0804F18BF00F869
:1005F000012B7047704770477047000070B5064C7C
:100600007C44064D7D4404E0204601680844804750
:10061000241DAC42F8D170BD80AA000088AA000059
:1006200001491820ABBEFEE72600020070B5064661
:1006300000F09AFB056806F10B0020F00704B442B5
:100640009CBF002070BD2B466A68BAB11068A042FA
:1006500010D304F1080188423CBF5068586007D3AA
:100660005168101941601168091B016058601460DD
:10067000101D70BD13465268002AE7D12146284656
:1006800000F07EFB0028DED170BD70B50446051F6A
:1006900000F06AFB0068002C14BF446870BD002C99
:1006A00018BFAC423CBF20466468F8D301680A1802
:1006B000AA4218BF456003D12A680546114401606B
:1006C00028684119A1421CBF6C6070BD61686960F7
:1006D00021680844286070BD70B5044685690068CB
:1006E000C10601D5302600E02026C00707D070BD26
:1006F000D4E9012130469047206A401C20626D1EDB
:10070000F6D570BD70B5044685690078C00707D17D
:1007100070BDD4E9012120209047206A401C20624E
:100720006D1EF6D570BD09684A0501D540B2704707
:10073000C905FCD500B2704709684A0501D5C0B2A9
:100740007047C905FCD580B2704770B50C460546A8
:10075000012A05D02878800600D5EA69002302E046
:10076000012305E05B1C934202D2E05C0028F9D132
:10077000A869E618C01AA861286A184428622846A1
:10078000FFF7AAFF04E0D5E9012114F8010B904717
:10079000B442F8D32846FFF7B5FF70BD2DE9F0410C
:1007A0000646002410687529314616A510D0FFF7BB
:1007B000BAFF002802DA404213A507E031688A0731
:1007C00001D512A502E0490704D511A5012401E0D5
:1007D000FFF7B2FF00210A2206F1240709E0B0FB6F
:1007E000F2FCB0FBF2F302FB1C00303078541846E8
:1007F000491C0028F3D123462A463046BDE8F04183
:1008000000F04DBB000000002D0000002B00000098
:100810002000000011680268006A530501D50870C5
:100820000AE0D30501D5088006E0130603D5C217F8
:10083000C1E9000200E008600120704701694A1C1C
:1008400002610878704700B58FB0CDE90131002111
:10085000059105497944CDE903101146684600F039
:1008600029F90FB000BD0000E5FFFFFF0A6802F89C
:10087000010B0A60704700002DE9FF5F15468A46AC
:100880000446DFF8AC80F8440027D8E900103E4663
:10089000CDE9001010E03AF816106A4602A800F000
:1008A0000FFF411C07D02178890603D5E26939186A
:1008B00091420DD80744761C2078800602D5E06965
:1008C000B84205DDAE42E6DB3AF816000028E2D178
:1008D000A069C01BA0612046FFF7FEFED8E900100A
:1008E000CDE90010002017E03AF818106A4602A877
:1008F00000F0E6FEB0F1FF3F81460BD000250DF180
:10090000080B05E0D4E901211BF8050090476D1C98
:100910004D45F7D308F10100B0428046E4DB206A80
:10092000384420622046FFF7EDFEBDE8FF9F00003F
:1009300002A200002DE9F0418046D21D22F00702FC
:100940000025D2E90002F52915A614D0011E72F186
:10095000000106DA0023D0EB030063EB020211A6CC
:1009600008E0D8F800108B0701D50FA602E0490770
:1009700001D50EA601251146002408F1240704E044
:1009800000F048FA30323A55641C50EA0102F7D1BF
:100990002B46324621464046BDE8F04100F07FBA82
:1009A000000000002D0000002B00000020000000CF
:1009B00030B4002100F1240408E002F00705D20859
:1009C000303542EA4372DB086554491C52EA03059C
:1009D000F3D10468002310A2250708D504F02004F1
:1009E0000C4304D0C46901230CA2641EC46130BC52
:1009F00000F055BA10B5044621461068FFF79CFE7A
:100A000002462046BDE810400023D1E7D21D22F067
:100A10000701D1E90023CBE700000000300000000F
:100A2000F0B40D460188090502D5214C7C4402E052
:100A30001F4C7C440E34002100F1240608E002F033
:100A40000F071209E75D42EA03721B097754491C3C
:100A500052EA0307F3D102780023120704D5702D60
:100A600006D009B1022311342246F0BC00F017BAB7
:100A700001231034F8E770B504460D46214610688E
:100A8000FFF75AFE024629462046BDE87040002383
:100A9000C6E7D21D22F00703D3E90023C0E70368AD
:100AA000126843F0200303600823C3610023B7E703
:100AB00064A000002DE9F05F894604464FF0000A6B
:100AC000DFF874B1FB44C0F820A02046E1688847F5
:100AD000002874D0252806D0D4E901219047206A47
:100AE000401C2062F1E700265F462046E168884707
:100AF0002028054607DB312D05D2781910F8200C87
:100B000008B10643F1E7B00701D526F00406C4F8A2
:100B10001CA00027C4F818A02A2D09D0284609F0E7
:100B200029FE38B304EB8708303DC8F8185019E0A7
:100B300059F8041B204604EB87029161E16888475D
:100B4000012F054618D1E069002820DA26F020069A
:100B50001DE0D8F8180000EB800005EB40003038AD
:100B6000C8F818002046E1688847054609F002FEEB
:100B70000028EED1012F0AD02E2D08D12046E168A1
:100B800088477F1C0546022F46F02006C4DBA0697B
:100B9000002803DA404246F00106A061F00701D0C8
:100BA00026F010066C2D0BD0682D09D04C2D39D0B5
:100BB0006A2D35D0742D35D07A2D33D016E038E03B
:100BC000E1682F4620468847B842054609D16C2F78
:100BD00026D04FF48060E1680643204688470546EA
:100BE00004E06C2F1AD04FF4807006430DB3A5F1CA
:100BF0004100192802D8203546F400664A462946A5
:100C0000204626604E46FFF721FB80B101280BD01D
:100C1000F61D26F0070000F1080956E74020E4E73A
:100C20008020D8E70020D6E706F104094DE72846E2
:100C300052E7206ABDE8F09FF49F00002DE9F041E3
:100C4000074615460E461020FFF7F0FC04000AD0B8
:100C50006760C4E9026500F08BF8016821600460F8
:100C60000020BDE8F0810120FBE710B500F072FD27
:100C7000BDE8104000F069BD032A40F2308010F05A
:100C8000030C00F0158011F8013BBCF1020F624427
:100C900098BF11F801CB00F8013B38BF11F8013BB8
:100CA000A2F1040298BF00F801CB38BF00F8013B65
:100CB00011F0030300F02580083AC0F0088051F8D5
:100CC000043B083A51F804CBA0E80810F5E7121DE0
:100CD0005CBF51F8043B40F8043BAFF30080D207FF
:100CE00024BF11F8013B11F801CB48BF11F8012BCB
:100CF00024BF00F8013B00F801CB48BF00F8012BEE
:100D0000704710B5203AC0F00B80B1E81850A0E849
:100D10001850B1E81850A0E81850203ABFF4F5AFC9
:100D20005FEA027C24BFB1E81850A0E8185044BF25
:100D300018C918C0BDE810405FEA827C24BF51F892
:100D4000043B40F8043B08BF7047D20728BF31F886
:100D5000023B48BF11F8012B28BF20F8023B48BFD7
:100D600000F8012B70477047004870474000002092
:100D70000048704770000020704770477047704708
:100D800038B504460A4600206946AFF300800028C3
:100D900008BF38BD02460099204600F029FD012019
:100DA00038BD012000F012BEF8B5AFF30080054653
:100DB00000200C46102000BF0646A819A0420DD9FD
:100DC000324669460020AFF30080070008BF00F0FC
:100DD000FDFD0098A04218BF0546C419FFF7C4FFE7
:100DE00005600746F01D20F007004619284600F070
:100DF0000AF8B44208BFF8BDA21B31463868BDE806
:100E0000F84000F0F5BC00210160C0E90110704716
:100E10001020704730B5B0F10A0271F100034FEABB
:100E2000900E4EEA817EB0EB0E0061EB91014FEA2D
:100E3000101E4EEA017E10EB0E0041EB11114FEA3D
:100E4000102E4EEA016E10EB0E0041EB11214FEA1D
:100E5000104E4EEA014E10EB0E0041EB11414018CE
:100E600041F100014FEAD00040EA41704FEAD10160
:100E70004FEA810444EA907410EB800544EB0104CE
:100E80006D1944EB0404521BA3414FF0000348BF0B
:100E90000A3200D530BD401C41F1000130BD2DE9C2
:100EA000F0470D4699469246044600F12408016831
:100EB000880604D5E06921F01001216000E00120DE
:100EC000A84201DD471B00E00027A1697A1902EB67
:100ED0000900081AA0612078C00602D42046FFF756
:100EE000FBFB002608E0D4E901211AF80600904730
:100EF000206A401C761C20624E45F4DB2078C00638
:100F00000AD52046FFF7E8FB06E0D4E901213020AE
:100F10009047206A401C2062381EA7F10107F4DCCC
:100F200007E0D4E9012118F805009047206A401C29
:100F30002062281EA5F10105F3DC2046FFF7E2FB45
:100F40002078000602D50220BDE8F0870120FBE7EB
:100F50002DE9FF4F0C461E464FF0FF378BB0D2E90C
:100F60000001DDF860800A908A46C1F30A5505B990
:100F70003D46002108464FF00000BAF1000F00F492
:100F8000400005DA00EB80004FF4400101EA500018
:100F90004FEA9059B9F1010F00DDB9460A9850EABD
:100FA0004A000ED044F61050A5F2FF3545432F14E9
:100FB000B8F1000F1ED07542291E1EDDC9F10002D6
:100FC0001CE0B8F1010F4FF0000001D0302103E028
:100FD000F24305E02154401CB042FBDB30460022C6
:100FE000002121540B99C1F80880C1E900200FB0FD
:100FF000BDE8F08FBD1B6D1CDEE74A4600DA694292
:1010000006A800F04FFC06AB93E8070003AB83E8AB
:10101000070050460A9908F0CCFF8DE80700A0F5BC
:1010200000501F3800900398002D0ADD42F21F0186
:101030004A460844002303A90390684609F036FA9B
:1010400009E0A0F500504A461F38002303A9039089
:10105000684609F040FA8DE807000004000C03D050
:101060004FF0FF30410800E01046B8F1000F03D008
:101070000022009215461EE0751E05D4FFF7CAFE39
:10108000303262556D1EF9D5B3460122084302D0B5
:1010900000227F1C04E02078302801D100227F1E2E
:1010A000002A099784D01DE0112D07DAFFF7B2FE60
:1010B000303262556D1C50EA0102F5D1084302D06E
:1010C0000098C8B10EE00021681E05E0235C625C58
:1010D00063542254401E491C8142F7DBAB46A81BD7
:1010E000401E0990002004F80B000B98099AC0F8E4
:1010F0000880C0E9002B7AE711264FF0000857E777
:101100002DE9F04F88460446D21D22F0070191B028
:10111000D1E90001CDE90A0109F014FB02460B9860
:10112000C00F01D02D2007E02068810701D52B20BA
:1011300002E0202101EAC000032A099001D0072A19
:1011400005DB03464146204600F06CFB0BE12078AE
:10115000800601D5E06900E00620B8F1650F814600
:1011600006D0B8F1660F18D0B8F1670F70D131E032
:101170000020B9F1110F009001DB112301E009F10A
:1011800001030AAA01A90CA8FFF7E2FEDDE90C7031
:10119000002609F10105834647E001204B460090F7
:1011A0004FF000470AAA01A90CA8FFF7D1FEDDE91C
:1011B0000DB00C995D46002610B909F101000D181B
:1011C000B9EB050003D4C0F1FF3609F10105A5EB29
:1011D00009002BE0B9F1010F01DA4FF001090020FD
:1011E000B9F1110F0090484601DD112300E00346DC
:1011F0000AAA01A90CA8FFF7ABFEDDE90C704D4669
:1012000000268346207800070AD4AB4500DA5D4605
:1012100001A8012D04DD411911F8011C302907D066
:101220004F4502DA17F1040F04DA012082460FE07D
:101230006D1EEEE7002F02DCED1B3E4403E0781C40
:10124000A84200DD7D1CB81B00F1010A4FF00047E9
:101250002078000703D4AA4501DB4FF0FF3A0021B4
:10126000B7F1004F0DF143088DF8431024D0022050
:101270002B23002F01DA7F422D230A21021EA0F129
:10128000010000DC5FB197FBF1FC97FBF1F201FB81
:101290001C7C17460CF1300C08F801CDEEE7A8F1E4
:1012A000010003702188090501D5452100E0652171
:1012B000A0F1010800F8011C09980FA9A1EB08078B
:1012C000FF1D00B10120411901EBEA70A16938440A
:1012D000081A401EA0612078C00602D42046FFF7FD
:1012E000FBF9099828B1D4E901219047206A401CF4
:1012F00020622078C00622D52046FFF7EDF91EE0D7
:10130000002E04DBB34502DD01A8805D00E0302043
:10131000D4E901219047206A401C2062761CAAF182
:1013200001005FEA000A0AD100F05EFAC0680168B5
:10133000405CD4E901219047206A401C2062281EAD
:10134000A5F10105DCDC07E0D4E9012118F8010B67
:101350009047206A401C2062381EA7F10107F3DC89
:101360002046FFF7CFF9032011B041E62DE9F04FF9
:1013700004460D46D21D22F0070089B0D0E900973F
:101380004846394609F0DEF90246F80F01D02D2310
:1013900007E02068810701D52B2302E0202101EA24
:1013A000C0038DF820300BB1012000E00020032A9B
:1013B000824601D0072A04DB2946204600F032FA93
:1013C0003FE12078800601D40D2500E0E569C7F3F0
:1013D0000A560D2D49DA00214FEA175B08464FF0F7
:1013E0000000002F00F4400007DA00EB80004FF40B
:1013F000400100EBD07001EA60008115012901DD98
:101400004FF0FF3100224FEA850CBCF1180F06D3D4
:101410001346ACF118004FF08052C24003E04FF485
:10142000801323FA0CF30CF10C0CBCF1200F04D345
:10143000ACF1200C09FA0CF001E007FA0CF00029DD
:101440004FF0004801DD18B90FE00ED140450CD334
:1014500019EB02095F4121B9404502D19F4329EAB6
:101460000209BBEB175F00D0761C2088000502D56F
:101470007B48784402E07A487844193808AA302337
:1014800002F80A30037C0AF10101002E0AF1020A77
:1014900053546A4602DC4FF0300101E04FF0310155
:1014A0004FF001088DF8001002D0A6F2FF3603E0DD
:1014B00059EA470100D06B4E002D02DC2178090764
:1014C00004D54FF002082E218DF80110C4460021EA
:1014D0000BE0C7F303433F01C35C491C6D1E02F8D8
:1014E0000830052908F1010801DA002DF1DC00219E
:1014F0000CE000EB1973491C1B786D1E082902F8DB
:1015000008304FEA091908F1010801DA002DF0DC72
:1015100021688B0602D516E0A8F10108E04505DD3B
:1015200002EB080313F8013C302BF5D0B8F1000FA3
:1015300009DD02EB080313F8013C2E2B03D1090748
:1015400001D4A8F10108002D05DD3E2102F80810A4
:101550006D1E08F10108407C002E02F8080008F119
:10156000010804DA2D20764202F8080002E02B2060
:1015700002F808000A214FF47A70864208F1010847
:101580000BDB96FBF0F3303302F8083096FBF0F3F8
:1015900008F1010800FB136601E0642E0CDB6420F7
:1015A00096FBF0F3303302F8083096FBF0F308F1C5
:1015B000010800FB136601E00A2E06DB96FBF1F042
:1015C000303002F8080008F1010896FBF1F001FB49
:1015D0001060303002F80800A16908F1010808EB3A
:1015E000050202EB0A00081AA0612078C00602D4A6
:1015F0002046FFF771F8216A08AE01EB0A0020626D
:1016000004E0D4E9012116F8010B9047BAF1010A70
:10161000F7D22078C00602D52046FFF75DF86E4667
:1016200009E016F8010B3E280FD0D4E901219047BC
:10163000206A401C2062B8F10108F2D22046FFF770
:1016400061F809B00320BDE8F08F206A28442062C9
:1016500003E0D4E90121302090476D1EEBD3F8E779
:101660006A96000002FCFFFF10B5436913B1AFF3A7
:10167000008001E0FFF769F8012010BD127800F149
:1016800024010A7000224A700122EDE711684FF030
:10169000FF32E9E710B5436913B1AFF3008001E011
:1016A000FFF7EAF8012010BD128800F124018284BE
:1016B0000022C2840122EDE711684FF0FF32E9E712
:1016C0002DE9F04116460C46054600F085F8036802
:1016D00093F80101012807D0FF2C12D8185D80B1C2
:1016E00001202C70BDE8F081D3F807013246214675
:1016F00003F20713C7182846BC46BDE8F041002393
:1017000060474FF0FF30EDE72DE9F0410646FFF767
:101710002FFB8046454613E016B1E068B0420ED17B
:1017200020682860D4E90101D8F800708847204675
:10173000FEF7ABFFD8F80000B842EBD100E0254639
:101740002C68002CE8D1BDE8F081002801D0FEF71C
:1017500067BF704710B5002102A000F01EF90120FC
:1017600010BD0000534947414252543A2041626E35
:101770006F726D616C207465726D696E6174696FF2
:101780006E00000000487047380000207546FFF7E3
:10179000F9FFAE4605006946534620F0070085462E
:1017A00018B020B5FEF7D4FDBDE820404FF000068C
:1017B0004FF000074FF000084FF0000BAC46ACE8CC
:1017C000C009ACE8C009ACE8C009ACE8C00921F028
:1017D00007018D467047000010B500F005F8001DA8
:1017E00010BD00BFCD8F000000487047580000209A
:1017F000034640688C46002818BF88423CBF034619
:101800004068F8D318681844884207D00CF10300E8
:1018100020F00700001D411A521A0146081D0A60F7
:10182000FEF733BF2DE9F0411F4604460326016849
:10183000072A01F4006004DB08B116A505E016A52F
:1018400003E008B115A500E015A521F01000206007
:10185000A069C01EA0610FB1401EA0612046FEF726
:101860003BFF4FB1D4E9012138469047206A401C24
:101870002062C01C206206E0206AFAE7D4E9012158
:1018800015F8010B9047761EF8D22046FEF73AFF76
:10189000BDE8F0814E414E006E616E00494E46003B
:1018A000696E66002DE9F047814616468AB03548D4
:1018B00078440DC88DE80D0032487844801C03AC94
:1018C0000DC884E80D0041F69B300844372190FB99
:1018D000F1F290FBF1F5A5F1800501FB12041B3C30
:1018E00002D56442012000E00020DFF898A0804685
:1018F0000027FA44AAF1BE0A0EE0E0070AD03246F9
:10190000684607EB470101230AEB810108F0E3FD7C
:101910008DE8070064107F1C002CEED1194F7F4426
:10192000AE3F19E0E80715D007EB04100DF1180AD7
:1019300090E80E008AE80E00C068F04201D19819C4
:1019400008903246012306A903A808F0C4FD03ABA2
:1019500083E807006D10641C002DE3D14FF00103F4
:1019600032466946B8F1000F03A802D008F09EFD88
:1019700001E008F0B0FDC9E90001C9F808200AB08B
:10198000BDE8F087BC92000010B50446AFF30080BC
:101990002046BDE81040FEF7C7BC70B505460C46B2
:1019A0000A2000E06D1C00F018F835B128780028F6
:1019B000F8D102E0641C00F010F814B1207800287F
:1019C000F8D1BDE870400A2000F007B810B500F06B
:1019D0000BF8BDE81040FFF7B8BE08B569468DF8B2
:1019E00000000320ABBE08BD10B5012805D00021C2
:1019F00003A0FFF7D2FF012010BD09A1F8E7000006
:101A000053494752544D454D3A204F7574206F66E7
:101A10002068656170206D656D6F7279000000004F
:101A20003A2048656170206D656D6F727920636F33
:101A3000727275707465640030B44FF0013C50F8F8
:101A4000042B51F8043BCCFA52F4D51A20D1FCB93E
:101A500050F8042B51F8043BCCFA52F4D51A17D1A4
:101A6000B4B950F8042B51F8043BCCFA52F4D51A0F
:101A70000ED16CB950F8042B51F8043BCCFA52F457
:101A8000D51A05D1002CDAD030BC4FF000007047D9
:101A900029BAB1FA81F111F01801D1F12000844086
:101AA000F2D1CA40CB4012F0FF0213F0FF0330BC6A
:101AB000D01A70470146806AC36DC26D13F0500F93
:101AC00007D0D20648BF01F0B3B8406D426B08465C
:101AD000104742F40071C16501680B68CA681B07B2
:101AE00003D4910707D501F09FB812F4406FFAD1E3
:101AF000C9688904F7D4C16D21F48071C165C16DD5
:101B0000C90448BF01F090B8C16D41F00101C16541
:101B100001F08AB8806AC16D41F04001C165016E73
:101B200041F00401016601F083B80000806A01F011
:101B30007DB8000070B582B0044600200190216895
:101B40008A68D20711D14FF6C076C7F6FF7688684B
:101B500006F17F0210420AD0E06D40F01000E0650F
:101B6000206E40F001002066012002B070BD886840
:101B70004FF4C162304040F00100886040F2001034
:101B8000C5F20000814208BF4FF40272B1F1A04FCC
:101B900008BF4FF402721058000220D401F0EAFF8F
:101BA00021680A68D20717D1054603E02168086852
:101BB000C00711D18868C00704D18868304040F060
:101BC0000100886001F0D6FF401B0328EED3206897
:101BD0000068C007EAD1BFE7002002B070BD40F244
:101BE0000000C2F20000006842F663518009C0F2B2
:101BF0003E51A0FB0101880900EB40000C2101EBE4
:101C0000800000BF019001980028C7D001980138DA
:101C1000F8E7000080B5411E3D294FF0020088BF63
:101C200080BDDFE811F054005E00F60168006D0031
:101C300072003E003E003E00430043004300760039
:101C40007B00F6018000830088008D0092009700E1
:101C50009C00F601F6014800A100A700AD00B3000A
:101C6000F601F6014800B900BF00C500CB00F6013F
:101C7000F601F601D600E000EA00F500FF000A01D7
:101C80001501180123012E0138014601540162019A
:101C900070017E018C019A01A801B601C401D20134
:101CA000E40104F03BFCC0F3800080BD04F036FC8E
:101CB000C0F3801080BD40F60000C4F60000A0F51F
:101CC00080604FF4005101F049FF022080BD40F6D2
:101CD0000000C4F600004FF48041BDE8804001F0F0
:101CE0003DBF40F60000C4F600004FF40051BDE8CF
:101CF000804001F033BF04F011FCC0F3001080BD40
:101D000004F00CFCC0F3401080BD04F007FCC009D7
:101D100080BD04F003FCC0F3C00080BD04F0FEFBF6
:101D200000F0010080BD4FF090406CE040F2D00028
:101D3000C2F2000034E040F2D000C2F2000035E010
:101D400040F2D000C2F2000012E040F2D000C2F235
:101D5000000013E040F2D000C2F2000014E040F2B4
:101D6000D000C2F2000015E040F2E000C2F2000034
:101D7000C18828E040F2E000C2F20000018822E0C1
:101D800040F2E000C2F2000041881CE040F2E000B6
:101D9000C2F20000818816E040F2E000C2F20000CA
:101DA000018910E040F2E000C2F2000081890AE0FF
:101DB00040F2E000C2F20000C18904E040F2E0001D
:101DC000C2F2000041890020B1F5807F88BF012068
:101DD00080BD40F60000C4F600004FF48061BDE80D
:101DE000804001F0BBBE40F60000C4F600004FF496
:101DF0000061BDE8804001F0B1BE40F60000C4F6CD
:101E00000000A0F580601021BDE8804001F0A6BE72
:101E100040F60000C4F600004FF48051BDE8804059
:101E200001F09CBE40F60000C4F60000A0F5806002
:101E30000821BDE8804001F091BE40F60000C4F6E4
:101E4000000000F580600421BDE8804001F086BEFE
:101E50004FF0904019E040F60000C4F60000A0F5F5
:101E600080602021BDE8804001F078BE40F600008F
:101E7000C4F60000A0F580608021BDE8804001F03C
:101E80006DBE40F60000C4F600004FF40041BDE80E
:101E9000804001F063BE40F21C1040F2B001C2F27B
:101EA0000000C2F2000100890989411A48BF494275
:101EB00098E040F21C1040F2B001C2F20000C2F201
:101EC000000100894989411A48BF49428AE040F22D
:101ED0001C1040F2B001C2F20000C2F20001008901
:101EE000C988411A48BF49427CE040F21C1040F2C8
:101EF000B001C2F20000C2F2000100890988411A53
:101F000048BF49426EE040F21C1040F2B001C2F2FC
:101F10000000C2F2000100894988411A48BF4942C5
:101F200060E040F21C1040F2B001C2F20000C2F2C8
:101F3000000100898988411A48BF494252E040F2B5
:101F40001C1040F2C001C2F20000C2F20001008980
:101F50000989411A48BF494244E040F21C1040F24E
:101F6000C001C2F20000C2F200010089C989411A11
:101F700048BF494236E040F21C1040F2C001C2F2B4
:101F80000000C2F2000100890988411A48BF494295
:101F900028E040F21C1040F2C001C2F20000C2F280
:101FA00000010089C988411A48BF49421AE040F23D
:101FB0001C1040F2C001C2F20000C2F20001008910
:101FC0004988411A48BF49420CE040F21C1040F2D7
:101FD000C001C2F20000C2F2000100894989411A21
:101FE00048BF49420020802988BF012080BD40F2BF
:101FF0001C1040F2C001C2F20000C2F200010089D0
:102000008989411A4FF0000048BF4942802988BFA2
:10201000012080BD411E42294FF6FF7088BF7047E6
:10202000DFE811F043004900D8004F00D800D80085
:10203000D800D800D800D800D800D800D800D800E0
:10204000D800D80055005B00610067006D00730088
:1020500079007F00D80085008B00910097009D00DB
:10206000A300D800A900AF00B500BB00D800C10094
:10207000C700D800D800D800D800D800D800D800B1
:10208000D800CD00D800D800D800D800D800D8009B
:10209000D800D800D800D800D800D800D800D80080
:1020A000D800D800D800D300D90040F2A000C2F276
:1020B00000008088704740F2A000C2F20000408813
:1020C000704740F2A000C2F200000088704740F262
:1020D000D000C2F200000089704740F2D000C2F286
:1020E00000008089704740F2D000C2F20000C08832
:1020F000704740F2D000C2F200000088704740F202
:10210000D000C2F200004088704740F2D000C2F216
:1021100000008088704740F2A000C2F20000C08931
:10212000704740F2A000C2F200004089704740F2C0
:10213000E000C2F20000C088704740F2E000C2F246
:1021400000000088704740F2E000C2F200004088C2
:10215000704740F2E000C2F200008088704740F211
:10216000A000C2F200000089704740F2A000C2F255
:1021700000008089704740F2E000C2F20000008950
:10218000704740F2E000C2F200008089704740F2E0
:10219000E000C2F20000C089704740F2E000C2F2E5
:1021A00000004089704740F2A000C2F20000C088E1
:1021B000704740F21C10C2F20000C088704740F225
:1021C0001810C2F200004088704740F21C10C2F2A2
:1021D00000004089704740F21C10C2F200000089E4
:1021E000704700000000000080B59FED550A0138DF
:1021F0002F2800F29880DFE800F018339696969624
:10220000969696969696969696969696969696966E
:10221000964F9696969696966A96969696969696D1
:102220009696969696969696968540F2A000C2F25D
:102230000000808808F003FB9FED3D0B53EC102B52
:1022400008F010FB08F0CAFA9FED3E1A00EE100AE3
:10225000B4EE410AF1EE10FA65DD9FED3B0A80BD58
:1022600040F2A000C2F20000408808F0E8FA9FEDBA
:10227000300B53EC102B08F0F5FA08F0AFFA9FED95
:10228000311A00EE100AB4EE410AF1EE10FAD8BF8E
:1022900080BD9FED2D0A80BD40F2A000C2F200007B
:1022A000408908F0CCFA9FED240B53EC102B08F07A
:1022B000D9FA08F093FA9FED231A00EE100AB4EE53
:1022C000410AF1EE10FA2EDD9FED1F0A80BD40F2AB
:1022D000A000C2F20000808908F0B1FA9FED160B51
:1022E00053EC102B08F0BEFA08F078FA9FED151A9F
:1022F00000EE100AB4EE410AF1EE10FA13DD9FED84
:10230000120A80BD40F21810C2F20000408808F0A6
:1023100096FA9FED050B53EC102B08F0A3FA08F08A
:102320005DFA00EE100A80BD6666666666E64F409E
:10233000CDCCCCCCCC4C42400000000000803440DE
:10234000F02374490028A046E023744900000000EF
:1023500080B59FED430A41281EDC18283BD01F287A
:102360006FD140F2A000C2F20000808908F067FA45
:102370009FED390B53EC102B08F074FA08F02EFA8D
:102380009FED3A1A00EE100AB4EE410AF1EE10FA8F
:1023900057DD9FED350A80BD422838D0432850D103
:1023A00040F21C10C2F20000008908F048FA9FEDCC
:1023B000280B53EC102B08F055FA08F00FFA9FED9C
:1023C000291A00EE100AB4EE410AF1EE10FA38DDD7
:1023D0009FED250A80BD40F2A000C2F200004089B6
:1023E00008F02DFA9FED1C0B53EC102B08F03AFA75
:1023F00008F0F4F99FED1D1A00EE100AB4EE410A40
:10240000F1EE10FAD8BF80BD9FED170A80BD40F2F3
:102410001C10C2F20000408908F011FA9FED0A0B6F
:1024200053EC102B08F01EFA08F0D8F99FED0D1AA6
:1024300000EE100AB4EE410AF1EE10FAC8BF9FEDAB
:102440000A0A80BD00BF00BF9A9999999919314035
:10245000CDCCCCCCCC4C31409A99999999992440C7
:10246000F023744900D08446E023744900102446C8
:10247000B0B5013830284FF0010400F204810D4658
:10248000DFE810F04F005900010163006C00750097
:102490003100310031003A003A003A007E008700F6
:1024A000010193000101010101010101010101018B
:1024B00001010101430001010101010101010101CB
:1024C00001014300010101010101010101010101BB
:1024D00001019900A200AB00B600BE00C800D20006
:1024E000D800E200F10004F019F8002D0CBF00F054
:1024F000FB0040F0040054E004F010F8002D0CBF85
:1025000000F0BF0040F040004BE040F60000C4F691
:102510000000002DA0F580604FF4005140F0AA802B
:102520009BE040F60000002DC4F600004FF480410F
:1025300040F0A08091E040F60000002DC4F60000BD
:102540004FF4005140F0968087E003F0E7FF002D44
:1025500014BF40F0100000F0EF0022E003F0DEFFB7
:10256000002D0CBF00F0DF0040F0200019E003F068
:10257000D5FF002D0CBF00F07F0040F0800010E080
:1025800003F0CCFF002D0CBF00F0F70040F0080076
:1025900007E003F0C3FF002D0CBF00F0FE0040F089
:1025A000010004F0CFFE0020B0BD4FF0904010219C
:1025B000002D5FD151E040F60000002DC4F6000070
:1025C0004FF4806156D148E040F60000002DC4F67B
:1025D00000004FF400614DD13FE040F60000C4F62A
:1025E0000000002DA0F580604FF0100142D134E0D2
:1025F00040F60000C4F600004FF48051D5BB2CE03B
:1026000040F60000C4F60000A0F580604FF008011D
:1026100085BB22E040F60000C4F6000000F58060B3
:102620004FF0040135BB18E04FF090404FF40041EB
:1026300005BB12E040F60000C4F60000A0F5806083
:102640004FF02001B5B908E040F60000C4F60000E4
:10265000A0F580604FF0800165B90022002401F0F0
:1026600083FA2046B0BD40F60000C4F600004FF4E7
:10267000004125B1012201F077FA0020B0BD00220F
:10268000002401F071FA2046B0BD000070B540F2A0
:102690003010C2F20000D0E90045AC4207D000BFC4
:1026A00054F8040B016809688847AC42F8D140F23D
:1026B000E054C2F20004D4E9005600F003F9281AED
:1026C00076EB01000ED240F2C050C2F2000000686A
:1026D00006F0C8FB00F0F6F810F5967041F1000125
:1026E000C4E9000140F21014C2F20004D4E900561B
:1026F00000F0E8F8281A76EB010028BF70BD40F220
:10270000EC55C2F20005002028702620FFF782FC5D
:10271000B0F5807F24BF0120287000F0D3F810F5B9
:102720007A7041F10001C4E9000170BD10B540F2BA
:10273000EC54C2F20004002020702620FFF76AFC4F
:10274000B0F5807F24BF01202070582007F0D4FB13
:1027500006F084FD40F2C051C2F20001086018206A
:1027600007F0CAFB07F09AFA40F2C451C2F2000126
:102770000860BDE8104004F037BE000083B070B5BB
:10278000ADF5037D054687A801AC0EC087AA20469B
:1027900029468192FDF766FE9DF8040090B1661E01
:1027A00040F29844C2F200040DF20B258DF80B02A2
:1027B000204629460122012303F08EF9B078013624
:1027C0000028F3D10DF5037DBDE8704003B07047DC
:1027D00010B501F03FFE03F029FF03F0BFFC03F04A
:1027E00069FC03F093FC03F0BDFD03F003FE03F06E
:1027F00047FE03F0E3FA03F041FB03F03FFD03F073
:1028000077FD03F023FC03F0B7FA40F24C1040F2DE
:102810001811C2F20000C2F20001022200F00EFC08
:1028200040F2B81040F21C11C2F20000C2F20001E6
:10283000092200F003FC40F60004C4F60004A4F5ED
:1028400080608021012201F08FF920464FF4804101
:10285000012201F089F920464FF40051012201F0D4
:1028600083F920464021012201F07EF92046802193
:10287000012201F079F902A0BDE81040FFF77EBF08
:102880005472756D612D45424C2D42696F732D5602
:10289000312E302E300A0000FEE7000040F2982072
:1028A000C2F2000000F0F8BD40F23820C2F2000091
:1028B00000F0F2BD70470000EFF3108072B600BF69
:1028C000FEE7000040F29800C2F20000D0E90001EB
:1028D00070470000F0B581B00022009290F85820B7
:1028E000012A01D102219CE10123076880F85830B8
:1028F000BB685B0735D4D1E900531F26C3F301241D
:1029000007EB8404226B03F01F039E40B243C5F320
:10291000846606FA03F31A432263BA68BB6802F0BE
:10292000040203F00803D21840F0AD800A6807F1F2
:1029300014030426C2F34064D1F808E006EAD25C2E
:1029400053F82440C2F304550722AA40BEF1004FB9
:1029500024EA02040BD143F80C401A6842F0004309
:102960000DE0C16D41F02001C165012156E10EFA73
:1029700005F2224343F80C201A6822F000437B61E1
:10298000D1E90435FC68042B50D13A6E3A6E0B68DD
:10299000C2F3846293FAA3F6B6FA86F65D0308BF23
:1029A000C3F384664FF6FF73B242C0F2070303D14C
:1029B0003A6E22F000423A667A6E7A6E0E68C2F380
:1029C000846296FAA6F5B5FA85F51E4208BFC6F3ED
:1029D0008465AA4203D17A6E22F000427A66BA6E0A
:1029E000BA6E0E68C2F3846296FAA6F5B5FA85F55A
:1029F0001E4208BFC6F38465AA4203D1BA6E22F014
:102A00000042BA66FA6EFA6E0E68C2F3846296FAF3
:102A1000A6F5B5FA85F51E4208BFC6F38465AA423D
:102A200031D1FA6E22F00042FA662CE0062202EA68
:102A3000940205FA02FC0E6807F1600555F8234080
:102A40004FF20002C0F2FF3206F0F846224046EA9A
:102A50000C06324342F0004245F823200A698B6994
:102A600055F8226026F08076334345F822300A6913
:102A70000B7F55F82260012B26F0007608BF06F187
:102A8000007645F82260BA68D20743D10D68CA685B
:102A9000D7F8B0602B466FF3DF4326EA030C4FF6FE
:102AA000FF7602F01804C0F20706E64000242E402C
:102AB000C4F27F0446EA0C06A242C7F8B06029D1EE
:102AC00095FAA5F2B2FA82F2002B08BFAA0E0132E3
:102AD00002F01E0302F01F0201260025964002EBC1
:102AE0004202CFF6206505EB0255354345F00075EF
:102AF0000A2B38BF46EA0255C5F3406307EB830350
:102B00008A685E69C5F304550724AC40A643AA4011
:102B100032435A610C680021C8F208010C427CD093
:102B200040F20831C5F20001A1F1080EA1F50272D0
:102B30007346974218BF01F57E731A46B7F1A04F4E
:102B400008BF724695680022CCF22132944205F00B
:102B5000E07C04D01022C9F2C00294422BD12A0298
:102B600029D4B7F1A04F58D10A6822F0E07242EAA6
:102B70000C0242F400020A6040F20001C2F20001BD
:102B8000096842F663528909C0F23E52A1FB021263
:102B9000910901EB41010C2202EB810100910099A6
:102BA000D9B300BF009901390091009900294FF075
:102BB0000001F7D132E00022CCF25272944208BFF9
:102BC00015F080721ED00021CCF684318C424FF07B
:102BD000000108BF15F4800220D1B7F1A04F06D044
:102BE00040F20011C5F200018F4216D09E46DEF879
:102BF000081021F0E07141EA0C0141F48001CEF8A7
:102C000008100AE0B7F1A04F07D10A6822F0E0727D
:102C100042EA0C0242F080720A600021002280F831
:102C20005820084601B0F0BD704700007047000012
:102C300070470000B0B582B004460020002C01901F
:102C400045D0E06D30B9204600F00CF90020206638
:102C500084F8580021688868800006D588684FF697
:102C6000C072C5F6FF72104088608868C00021D429
:102C70004FF6C0728868C5F6FF7202F180521040AC
:102C800000F18050886040F20000C2F2000000684D
:102C900042F663528009C0F23E52A0FB0202900944
:102CA000022202EB400000BF0190019810B1019890
:102CB0000138F9E78868C0000CD4E06D40F01000DE
:102CC000E065206E40F001002066012003E0012055
:102CD00002B0B0BD00208A68E36D02F0040203F088
:102CE0001003D218E26D40F0808022F4817202322B
:102CF000E2658A68D20729D140F2001341F480725C
:102D0000C5F2000340F2080C9A42C5F2000C70D1E3
:102D1000DCF80030DCF800211343DA0716D10CF19F
:102D2000F8024FF4E063D4F804E0914208BF4FF496
:102D30004073B1F1A04F08BF4FF440735CF803201B
:102D400022F47C1242EA0E024CF80320627FE36B0D
:102D500043EA4232D4E902C31A4394F8243042EAE7
:102D60000C02012B42EA034207D1D4F828C0002309
:102D7000CFF6FE7303EB4C431A43E36A33B1D4F846
:102D800030C003F4787343EA0C031A43D1F80CC043
:102D900044F20703CFF6F07303EA0C031A43CA6048
:102DA0000A69636B22F040621A430A618A6812075B
:102DB00047D494F83820237F520042EA833CCB6802
:102DC00044F2020223EA020242EA0C02CA602269C9
:102DD0000B699AB143F480330B61D1F8C0C043F65C
:102DE000FF732CEA03031A4310E042F010010120A4
:102DF00035E0DCF80034DA0791D0A7E723F480321D
:102E00000A61D1F8C02043F6FF739A43C1F8C0208D
:102E100094F840300A69012B10D140F2FD7322EA88
:102E2000030CD4E91132D4E913E543EA0C031A4345
:102E300042EA0E022A4342F0010201E022F00102BE
:102E40000A6162690B6B012A23F00F0202D1236A27
:102E5000013B1A430A63E16D012262F30101E1655E
:102E600002B0B0BD2DE9F0419AB00446002019909F
:102E7000CDE91700CDE9150001A85021FDF793FB1E
:102E8000206840F20011C5F20001884256D0B0F12E
:102E9000A04F40F0D0804FF4004001904FF0005020
:102EA000119001A801F05CFC002818BFFFF704FD99
:102EB00040F2F001C2F200010A6841F24C00C4F293
:102EC0000200531C0B6042B9016841F400510160DB
:102ED000016801F40051009100990168002641F059
:102EE00002010160006815A900F00200009000983E
:102EF0004FF4A04015900320169040F20040C4F615
:102F00000000179600F05AFD0820C4F2020040F2BB
:102F100038251430C2F20005052180224FF4807359
:102F200085E8430005F114004FF480674FF0200C52
:102F3000C5E9036280E888102E6274E04FF4004017
:102F400001904FF00050119001A801F009FC0028F9
:102F500018BFFFF7B1FC40F2F001C2F200010A68AD
:102F600041F24C00C4F20200531C0B6042B90168EC
:102F700041F400510160016801F400510091009991
:102F8000016840F2004841F0040101600168C4F6A4
:102F9000000801F0040100910099016815AE41F0AC
:102FA000010101600168032501F001010091009910
:102FB0000168002741F0020101600068314600F01D
:102FC0000200009000980F20159008F5806016957B
:102FD000179700F0F3FCC32015A9A1C14FF0904052
:102FE000314600F0EBFC4FF4004015A9A1C140466A
:102FF000314600F0E3FC40F298250820C2F20005BB
:10300000C4F20200242180224FF4807385E88300FB
:1030100005F114004FF480664FF0200CC5E90372EF
:1030200080E848102F62284600F08AFA08B1FFF7BE
:1030300043FC6565AC621AB0BDE8F0812DE9F04152
:10304000044640F200170068C5F200074FF4C16360
:10305000B84208BF4FF40273B0F1A04F08BF4FF45D
:103060000273DB5986689046720704D40E4694F8C2
:103070005810012902D10220BDE8F08107F5407205
:1030800003F01F050121904284F8581018BF002D4D
:1030900008D12046FEF74EFD70B1002184F858108B
:1030A000BDE8F081052DF4D0092DF2D0002084F880
:1030B00058000120BDE8F0812168E06D40F6017202
:1030C000904300F58070B942E06500D11DB9E06D14
:1030D00020F48010E065E06D41F6B523C0044FF0A8
:1030E000000044BF206E20F006002066606D41F6AF
:1030F0002D37C0F60003C0F6000741F61535002253
:10310000C0F60005C0E90B371C2345630B6084F84B
:1031100058204A68434642F010024A60CA6842F0AA
:103120000102CA604031324600F09CFA21684FF635
:10313000C0738A68C7F6FF731A4004328A60BDE81C
:10314000F08100002DE9F041044600284FF0010015
:1031500000F0E2800D46002900F0DE806079012851
:103160004FF0020008BFBDE8F081012161712071BC
:10317000A8681646042833D100F0FCFC21684A6B8D
:103180000746A6B1B2F1FF3F06DD686A486412E067
:103190002168486B0028F8D500F0ECFCC01B022821
:1031A000F6D32068406BB0F1FF3FF1DC41E0100442
:1031B00036D4686A0864206806F01002816C40F218
:1031C000FF3393409943D5E90A379340194381640B
:1031D000C16CFF239340994307FA02F21143C16483
:1031E000E86901280BD1206806F01002816B1F23CB
:1031F0002F6A9340994307FA02F2114381632068D2
:1032000006F01006D0F83CC0A969012919D002299E
:103210001AD14FF001081CE02168486B0004C8D5A2
:1032200000F0A8FCC01B0228F6D32068406B000405
:10323000F2D5206940F00800206103202071BDE82C
:10324000F0814FF0000804E06969B1FA81F14FEABA
:103250005118AA686B69287940F2073742EA0802D8
:1032600007FA06FE697942EA0307012808BF47F416
:103270008077012908BF47F400776FF44040296840
:1032800080EA0E00022900EA0C080AD101F072FD62
:1032900046F60101C0F68911884205D348F400487A
:1032A0000AE048EA010807E04BF20041C0F2C441DD
:1032B000884288BF48F4804807FA06F1206841EA4E
:1032C0000801C1634FF480410268B14022EA010164
:1032D0000160016840F6FE72B2409143D5E90323D4
:1032E00002FA06F739430160C0210768B14027EAB6
:1032F00001010160C2F3830103F03C0241EA821143
:10330000026E40F60F73B3409A43B1401143016619
:103310000120207100206071BDE8F081002804BF09
:103320000120704710B50446007920B90020607173
:10333000204600F007F802202071002001212061C2
:10334000217110BD80B586B0006840F60002C5F25C
:10335000000200219042CDE90411CDE90211019152
:1033600001D006B080BD41F24C00C4F202000268F8
:1033700042F480320260026802F480320092009AC5
:10338000026842F001020260006800F00100009053
:103390000098202001900320CDE9020101A94FF0FF
:1033A000904000F00BFB06B080BD000080B50146E8
:1033B00090F82500022824D10868D1E910CE8A6C43
:1033C000036823F00E030360136823F48073136013
:1033D000026822F0010202600EF01F00012202FAD0
:1033E00000F0CCF80400D1E913205060486D60B1C2
:1033F000026822F480720260D1E916024260002065
:1034000004E00420C863012000E00020012281F8CC
:103410002520002281F8242080BD000080B590F88E
:10342000251002292DD10168D0E910CE826C0B68DD
:1034300023F00E030B600B6823F001030B6011688F
:1034400021F4807111600EF01F02012101FA02F2D5
:10345000CCF80420D0E913325A60426D32B11368BF
:1034600023F480731360D0E91623536080F825108D
:10347000826B002180F824100AB190470021084691
:1034800080BD0421C1630121002280F8251080F84D
:103490002420084680BD0000B0B5D0E910C3026802
:1034A000DCF8001003F01F030424D2F800E09C4075
:1034B0000C4218BF1EF0040521D102249C400C428E
:1034C00018BF1EF0020527D1D940090723D51EF0E9
:1034D000080108BFB0BD116821F00E011160012183
:1034E00001FA03F2CCF80420C16380F82510416B87
:1034F000002280F8242071B1BDE8B040084711686F
:10350000890603D4116821F004011160CCF804404D
:10351000016B0029F0D1B0BD1168890606D411688D
:1035200021F00A011160012180F82510CCF8044037
:10353000C16A0022002980F82420DDD1EBE70000D9
:1035400000284FF0010C00F08B802DE9F04F002196
:10355000C4F2020103684FF6F83201F58168CBF638
:10356000FD72434538BF02F580624CF6CD451A44E2
:10357000CCF6CC45A2FB052E03F0FC02A2F108021A
:10358000A2FB052900F1080B01F580646FF003022E
:103590009BE8400C3CBF0024C4F2020401F5026524
:1035A00002EA9E02434538BF01F50065C0E91042BA
:1035B000022480F825401C6847F6F07724EA0707C4
:1035C000D0E9054147EA0A0747EA0B07D0E907E8CF
:1035D0003C43214341EA0E0141EA080131431960AD
:1035E0000021C4F2020101F50861C164C9F30411AC
:1035F0002A440CFA01F38264B6F5804F036504BFD8
:1036000000214160476840F6840CF9B211607A1ECF
:10361000C4F2020C032ACCF8003012D801390CEBAA
:103620008102002301F01F01012742F87C3F0CF1C9
:10363000BC0307FA01F1C0E91523C165CCF8C0103D
:1036400003E00021C0E91511C1654FF0000C012114
:10365000C0F83CC080F8251080F824C0BDE8F04FC9
:10366000604670472DE9F04190F824C0BCF1010F8D
:1036700040D04FF0010C80F824C090F825C0BCF178
:10368000010F34D14FF0020C80F825C04FF0000C30
:10369000C0F83CC0D0F800C000F14C0E9EE83040AD
:1036A000DCF80060BEF1000F26F00106CCF80060E7
:1036B00065601CBFD0E916456560D0E91076846866
:1036C00006F01F060125D0F83080B5407D60CCF8AB
:1036D0000430102C0B4604BF13460A46B8F1000F05
:1036E000CCF80830CCF80C2007D00E210CE00021DB
:1036F00080F824100220BDE8F081DCF8001021F0F1
:103700000401CCF800100A21DCF800201143CCF8A9
:103710000010806C0168C90303D5016841F4807111
:103720000160BEF1000F05D0DEF8000040F48070AB
:10373000CEF80000DCF8000040F00100CCF80000FA
:103740000020BDE8F081000070B5D8B1044690F8C3
:103750005C0028B9002084F85D00204600F0E4F801
:103760002068816921F01001816100F003FA0546AB
:1037700020688169090707D500F0FCF9401B0B2878
:10378000F6D312E0012070BD816941F00101816131
:1037900000F0F0F9054600BF20688169C9070DD126
:1037A00000F0E8F9401B0B28F6D3206E032140F00F
:1037B00001002066012084F85C1070BD826946F229
:1037C000004CC4F2000C42F002026045826102D15A
:1037D0006268CCF80021227C8369012A23F040032F
:1037E00018BF40338361627C8369012A23F48043DC
:1037F00008BF03F580438361A27C8369012A23F417
:10380000805318BF03F5805383618269D4E902E3D2
:1038100022F4407545EA0E058561856925F0A40509
:103820008561056925F0100505619BB1012B0DD05F
:10383000022B09D08569032B45F080058561056958
:1038400045F01005056105D1202300E004238569BA
:103850002B43836104F114052ACD226A5E1E6FF0AA
:10386000FF0303EB052545EA4665013A2A43002597
:10387000CFF6FF7505EB01411143BEF5407FC161F5
:1038800010D1D4E909E2D4E90B61013A03EB062334
:103890001A436FF00F0303EB0111114305EB0E42C6
:1038A0001143C160D4E90D23E16BD0F8C06031430E
:1038B000C0F8C0100CF580660CF58041B04204BF22
:1038C0004AF25071C4F200012164D0F8806026F4FD
:1038D000F81646EA0242C0F8802001F170026264E4
:1038E000D0F8802022F0706242EA0362C0F88020A3
:1038F00001F1B000A06401F5C470E06401F5187036
:10390000206501F51E70606501F55470002200BF4E
:1039100041F8042B8142FBD300200121A0652066E1
:1039200084F85C1070BD000010B59AB00446002009
:103930001990CDE91700CDE9150001A85021FCF739
:1039400032FE206846F20041C4F20001884201D0F4
:103950001AB010BD4FF4805001904FF000700E90DF
:1039600001A800F0FDFE002818BFFEF7A5FF41F2F8
:103970004C00C4F20200C16841F00071C160C1682E
:1039800001F0007100910099016841F001010160AE
:10399000006815A900F00100009000984FF4C05095
:1039A0001590022016900020CDE9170009201990EB
:1039B0004FF0904000F002F81AB010BD2DE9F04F22
:1039C00082B00A68002A00F0C58041F2004500F18B
:1039D0003847C4F60005062340F200484FEAB726F0
:1039E000A84208BF0523C4F20108052E38BF4FEADC
:1039F000B72300244FF0030E00270025009309E0B1
:103A00000A68013532FA05F307F1020704F10404EC
:103A100000F0A080012303FA05FC12EA0C09EFD0A4
:103A2000D1F804A00AF00302A2F1010BBBF1010FCF
:103A300011D8D0F808B0CE680EFA07F32BEA0303CA
:103A4000BE40334383604368CAF3001623EA0C0385
:103A5000AE4033434360032A1ED0D0F80CC08B68BD
:103A60000EFA07F62CEA0606BB403343022AC3606F
:103A700012D16FF0030202EA5502024404F01C0660
:103A80000F23D2F820C003FA06FA0B692CEA0A0CBD
:103A9000B34043EA0C03136202684E680EFA07F360
:103AA0009A4306F00303BB401A4316F4403F0260FA
:103AB000A6D041F26003C4F202031A684FF6084A26
:103AC00042F001021A601A68CFF6FF7A02F0010292
:103AD0000192019A25F00302424452F80AC004F010
:103AE0000C060F23B3402CEA030C009B03FA06F6E6
:103AF00046EA0C0342F80A30D8F808C04B684CEA92
:103B0000090640F20C4ADA0258BF2CEA0906C8F846
:103B10000860C4F2010ADAF800C09A024CEA090609
:103B200058BF2CEA0906CAF80060D8F804C09A0306
:103B30004CEA090658BF2CEA0906C8F80460D8F810
:103B40000020DB0342EA090658BF22EA0906C8F84A
:103B5000006055E702B0BDE8F08F00000069084042
:103B600018BF0120704700001823002A08BF28232F
:103B7000C150704740F2E850C2F200000068704740
:103B800090F84120202A03D190F84020012A01D149
:103B900002207047242280F841200268136823F035
:103BA00001031360136823F48053136013681943EF
:103BB0001160116841F001011160202180F841106D
:103BC000002180F8401008467047000090F841201E
:103BD000202A03D190F84020012A01D10220704709
:103BE000242280F841200268136823F00103136047
:103BF000136823F4706343EA01211160116841F0F6
:103C000001011160202180F84110002180F840104E
:103C100008467047002804BF0120704710B50446CD
:103C200090F8410028B9002084F84000204600F0B8
:103C300069FB242084F8410094E80310E3680268DB
:103C400021F0706122F00102026001618168012BA4
:103C500021F4004181604FF4044108BF4FF400415A
:103C600041EA0C0181604168022B21F4006108BF28
:103C700001F500614160416804F1100341F00071F9
:103C800041F400414160C16821F40041C1600ECBA4
:103C9000114341EA0321C160D4E9071211430160D5
:103CA000016841F00101016000202021606484F876
:103CB0004110206384F8420010BD00002DE9F04F50
:103CC00081B0044690F8410020280AD10A9F67B1CC
:103CD000DDF82CB0BBF1000F07D094F840000128AC
:103CE00007D1022001B0BDE8F08F4FF4007060648E
:103CF000C7E001201D469146884684F84000FFF742
:103D000039FF216806468969090429D4222084F8EC
:103D10004100402084F84200002060646762A4F8FB
:103D20002AB06063206849F6000A4268CFF6004A6C
:103D30006FF39F28E9B248EA014102EA0A021144FE
:103D400001F5005141608069DDF830B080073DD455
:103D50000BF1010728E000BF206880690004D5D579
:103D600020461921324601F039FF002840F08980B1
:103D7000FFF700FF801B1A28EED32068806900043B
:103D8000EAD5606C40F020006064202084F8410097
:103D9000002084F8420072E02068806980075FD5C7
:103DA00020688069800711D420465946324601F0C8
:103DB00015FF002862D1002FF2D0FFF7DBFEBBF128
:103DC000000FE9D0801B5845EAD9E5E72068012DAE
:103DD00022D04FEA19218162806980071BD40BF140
:103DE000010507E020688069800739D5206880696F
:103DF000800710D420465946324601F0EFFEE8BB5A
:103E0000002DF3D0FFF7B6FEBBF1000FEAD0801B08
:103E10005845EBD9E6E720685FFA89F181622068AE
:103E20008069400631D40BF1010707E02068806902
:103E3000400615D52068806940061ED420465946A4
:103E4000324601F0CBFEC8B90546002FF2D0FFF78D
:103E500091FEBBF1000FE9D0801B5845EAD9E5E798
:103E6000606C40F020006064202084F84100002055
:103E700084F8420084F8400000E035B1002084F866
:103E80004000012001B0BDE8F08F608D40F20009D4
:103E9000B0F5807FC0F2FF1909D3FF21206821858A
:103EA00050F8041F09F5105201EA0A010BE0618D78
:103EB0002068218550F8042FC9B202EA0A0242EABA
:103EC000014109F59232114341EA08010BF1010564
:103ED000FF270AF5806A016004E0206880694007D6
:103EE0007FF54FAF20688069400711D420465946BE
:103EF000324601F073FE0028C3D1002DF2D0FFF747
:103F000039FEBBF1000FE8D0801B5845EAD9E4E741
:103F10002068616A406A0870606A218D01306062C1
:103F2000481E2085618D01396185618DC9B300040A
:103F300005D036E02068806900067FF522AF206852
:103F40008069000611D420465946324601F046FEEB
:103F5000002896D1002DF2D0FFF70CFEBBF1000F28
:103F6000E8D0801B5845EAD9E4E7608DB0F5807F42
:103F700007D32068278550F8041F4A4601EA0A0142
:103F80000BE0618D2068218550F8042FC9B202EA48
:103F90000A0242EA01414FF00072114341EA08016E
:103FA0000160608D00289DD120465946324601F0BF
:103FB000B1FE00287FF465AF20682021C16142680E
:103FC0004EF60003CFF600631A404260002084F8EA
:103FD000411084F8420084F8400001B0BDE8F08F41
:103FE0002DE9F04F81B0044690F8410020280AD115
:103FF0000A9F67B1DDF82CB0BBF1000F07D094F831
:104000004000012807D1022001B0BDE8F08F4FF435
:1040100000706064C9E001201D469146884684F81E
:104020004000FFF7A7FD21680646896909042BD4E3
:10403000212084F84100402084F842000020606480
:104040006762A4F82AB0216849F6004A6063CFF697
:10405000004A4A686FF39F28E8B2AAF5806348EAED
:1040600000401A40104440F0807040F40050486016
:104070008869DDF830B080073CD40BF1010727E0F8
:10408000206880690004D3D520461921324601F00A
:10409000A5FD002840F08980FFF76CFD801B1A28E1
:1040A000EED3206880690004EAD5606C40F02000FF
:1040B0006064202084F84100002084F8420072E00F
:1040C0002068806980075FD520688069800711D4E7
:1040D00020465946324601F081FD002862D1002F6A
:1040E000F2D0FFF747FDBBF1000FE9D0801B584528
:1040F000EAD9E5E72068012D22D04FEA1921816233
:10410000806980071BD40BF1010507E020688069F6
:10411000800739D520688069800710D42046594629
:10412000324601F05BFDE8BB002DF3D0FFF722FD26
:10413000BBF1000FEAD0801B5845EBD9E6E72068B9
:104140005FFA89F1816220688069000631D40BF141
:10415000010707E020688069000615D5206880699E
:1041600000061ED420465946324601F037FDC8B934
:104170000546002FF2D0FFF7FDFCBBF1000FE9D0A0
:10418000801B5845EAD9E5E7606C40F02000606488
:10419000202084F84100002084F8420084F8400088
:1041A00000E035B1002084F84000012001B0BDE8F6
:1041B000F08F608DB0F5807F0AD3FF2120682185C4
:1041C00050F8041F0022C0F2FF1201EA0A010BE0BE
:1041D000618D2068218550F8042FC9B202EA0A02D5
:1041E00042EA01414FF00072114340F2000941EAF6
:1041F00008010BF10105C0F2FF19FF27016004E07F
:104200002068806980077FF550AF2068806980074B
:1042100011D420465946324601F0E0FC0028C4D1B2
:10422000002DF2D0FFF7A6FCBBF1000FE8D0801BF9
:104230005845EAD9E4E7616A206811F8012B8262E7
:104240006162618D01396185218D01392185628D20
:10425000CAB3090406D036E02068806900067FF5FD
:1042600024AF20688069000611D4204659463246A2
:1042700001F0B4FC002898D1002DF2D0FFF77AFCB1
:10428000BBF1000FE8D0801B5845EAD9E4E7608D08
:10429000B0F5807F07D32068278550F8041F4A4671
:1042A00001EA0A010BE0618D2068218550F8042F96
:1042B000C9B202EA0A0242EA01414FF00072114318
:1042C00041EA08010160608D00289ED120465946D0
:1042D000324601F01FFD00287FF467AF20682021DF
:1042E000C16142684EF60003CFF600631A40426097
:1042F000002084F8411084F8420084F8400001B0A6
:10430000BDE8F08F2DE9F0419AB00446002501A8E0
:1043100050211995CDE91755CDE91555FCF743F90D
:10432000206847F60001C4F2000188424FD045F6EC
:104330000001C4F2000188427BD180200190002559
:1043400001A8099500F00CFA002818BFFEF7B4FA8E
:1043500041F24C06C4F20206306815AC40F004008D
:10436000306030684FF0120800F0040000900098B0
:104370003068042740F0010030603068214600F0CA
:104380000100009000981020159040F60000C4F63F
:104390000000CDE9168518951997FFF70FFB4FF42C
:1043A0008070CDE915084FF090402146CDE91755B2
:1043B0001997FFF703FBF06840F48000F060F068A5
:1043C00000F48000009000981AB0BDE8F0814FF42E
:1043D0008070019001A80A9500F0C2F9002818BF6A
:1043E000FEF76AFA41F24C04C4F20204206815A9EF
:1043F00040F004002060206800F004000090009865
:104400004FF440701590122016900020CDE917004F
:104410000820199040F60000C4F60000FFF7CEFA1D
:10442000E06840F08040E060E06800F0804000908C
:1044300000981AB0BDE8F08140F22C0040F2E8513B
:10444000C2F20000C2F2000100680A68104408606D
:104450007047000080B5032000F0E4F80F2000F062
:1044600009F800281CBF012080BD00F085F800205D
:1044700080BD0000B0B540F22C01C2F20001096815
:1044800001B3044640F20000C2F200004FF47A7219
:104490000068B2FBF1F1B0FBF1F000F01BFF0F2C54
:1044A0004FF001050CD858B94FF0FF3021460022DB
:1044B000002500F08BF840F23000C2F200000460EA
:1044C0002846B0BD0120B0BDB0B510B30446C069E8
:1044D000B0F5004F1DD0A068D8B9D4F888000D46BB
:1044E00028B9002084F88400204601F0CBF924206C
:1044F000C4F888002068A16A026822F00102026004
:1045000011B1204602F0ECF8204602F067FC0128C9
:1045100001D10120B0BD2168486820F400604860E6
:10452000886820F02A008860486840F4804048602D
:10453000486820F0200028434860086840F00102E5
:1045400020460A60BDE8B04002F03EB990F8841001
:10455000012904BF022070472421C0F88810016897
:104560008A6942F002028A612021C0F88810002185
:1045700080F884100846704782B041F25800C4F2B7
:104580000200816841F001018160816801F0010150
:1045900001910199016841F080510160006800F0CB
:1045A00080500090009802B000F0D0B8002848BFBA
:1045B000704700F01F01012202FA01F14EF20012D1
:1045C0004009CEF2000242F82010704710B54EF6B6
:1045D0000C5CCEF2000CDCF80030C3F3022E8EF03F
:1045E0000704042C28BF0424BEF103034FF0FF3E50
:1045F0000EFA04F438BF0023A14399400EFA03F3E6
:104600009A43114300F1604200F00F03090102F5E3
:104610006442043B6344002848BF03F10C0211705C
:1046200010BD00004EF60C51CEF200010A684FF6A4
:10463000FF031A4060F30A2242F0806040F0FD70F0
:1046400008607047B0F5007F3BD0002872D147F278
:10465000000CC4F2000CDCF80010DCF8802001F43F
:10466000C06122F48072B1F5806FCCF8802026D131
:10467000DCF80010012262F34A21CCF8001040F26D
:104680000001C2F200010968322359434DF68363E9
:10469000C4F21B33A1FB031302EB9341002200BFC2
:1046A000DCF81400013942F10003400501D5002B6C
:1046B000F6D1DCF81400400544BF03207047002009
:1046C000704747F2000CC4F2000CDCF80010DCF874
:1046D000802001F4C06142F48072B1F5806FCCF8A3
:1046E0008020ECD1DCF80010012262F34A21CCF8E2
:1046F000001040F20001C2F2000109683223594360
:104700004DF68363C4F21B33A1FB031302EB934109
:10471000002200BFDCF81400013942F1000340051B
:1047200001D5002BF6D1DCF81400400544BF03206E
:104730007047C4E747F20000C4F20000016802229B
:1047400062F34A21016000207047000047F2080030
:10475000C4F20000016841F480410160704700002C
:104760002DE9F04381B08146807841F28807000747
:10477000C4F2020701D4002565E057F8300C10F0B0
:1047800080580BD157F8300C40F0805047F8300C6F
:1047900057F8300C00F080500090009847F2000469
:1047A000C4F20004206840F480702060FFF7E2F952
:1047B000054600BF206810F4807607D1FFF7DAF9CC
:1047C000401B0328F6D3032516B933E000258EB32A
:1047D000B86810F4407012D0D9F84C1088420BD051
:1047E000B868B96820F4407041F48031B960B968A4
:1047F00021F48031B960B860C00703D111E0002016
:10480000C0070ED0FFF7B6F9064641F2893400BF63
:10481000B868800705D4FFF7ADF9801BA042F7D335
:1048200003253DB9B868D9F84C1020F4407008430E
:104830000025B860B8F1000F05D157F8300C20F012
:10484000805047F8300CD9F80000C10714D1810717
:104850001BD4410722D4010729D4C10630D48106D4
:1048600037D441063ED4010645D4C1054CD4810558
:1048700053D441055AD469E03968D9F8042021F0AD
:104880000301114339608107E3D53968D9F808205D
:1048900021F00C01114339604107DCD53968D9F8A2
:1048A0000C2021F03001114339600107D5D539685A
:1048B000D9F8102021F0C00111433960C106CED5CE
:1048C0003968D9F8142021F4407111433960810608
:1048D000C7D53968D9F8182021F4406111433960EF
:1048E0004106C0D53968D9F81C2021F44051114344
:1048F00039600106B9D53968D9F8202021F4404142
:1049000011433960C105B2D53968D9F8242021F4A2
:104910004031114339608105ABD53968D9F8282079
:1049200021F440211143396041050FD53968D9F888
:104930002C2021F440111143B2F5801F396005D1BC
:1049400057F87C1C41F4801147F87C1C01050FD5F9
:104950003968D9F8302021F440011143B2F5800FB5
:10496000396005D157F87C1C41F4801147F87C1C54
:10497000C1040FD53968D9F8342021F040711143B2
:10498000B2F1807F396005D157F87C1C41F4801169
:1049900047F87C1C81040FD53968D9F8382021F0FC
:1049A00040611143B2F1006F396005D157F87C1CAA
:1049B00041F4801147F87C1C41040FD53968D9F8BF
:1049C0003C2021F040611143B2F1006F396005D104
:1049D00057F87C1C41F4801147F87C1C01040FD56A
:1049E0003968D9F8402021F040511143B2F1805F7D
:1049F000396005D157F87C1C41F4803147F87C1CA4
:104A0000C1030FD53968D9F8442021F04041114342
:104A1000B2F1804F396005D157F87C1C41F48031E8
:104A200047F87C1C40030FD57869D9F8481020F46A
:104A300040100843B1F5001F786105D157F87C0C90
:104A400040F4801047F87C0C284601B0BDE8F083A4
:104A50002DE9F047002800F0088142F2000AC4F274
:104A6000020A0446DAF800000D4600F00F00884202
:104A70000DD2DAF8000020F00F002843CAF8000039
:104A8000DAF8000000F00F00A84240F0EE80216844
:104A900041F20808C807C4F202080CD14FF000091F
:104AA000206881074BD4B9F1800F61D1D8F800009C
:104AB00020F0F0005AE06068022800F0CA80032865
:104AC00040F0CF8058F8082C920140F1CE80D8F801
:104AD0000420D8F8043042F20046C3F3031302F076
:104AE0000302D8F804700133C0F2F406032A04BFAD
:104AF00043F20066C0F26E16B6FBF3F2D8F804304B
:104B0000C7F306277A43C3F34163022707EB430346
:104B1000B2FBF3F24BF20043C0F2C4439A4240F2BC
:104B2000EC80D8F8002012F0F00F00F0DC8089074C
:104B300040F1E380A168002940F0DF80D3E0410725
:104B400005D5D8F8001041F4E061C8F8001000075E
:104B500006D5D8F80000072161F30D20C8F8000041
:104B6000D8F80000A16820F0F0000843C8F8000061
:104B7000DAF8000000F00F00A84219D9DAF80000B6
:104B800020F00F002843CAF80000FEF7F3FF0646A6
:104B900041F28837DAF8000000F00F00A84207D091
:104BA000FEF7E8FF801BB842F4D90320BDE8F08788
:104BB0002068410707D5D8F80010E26821F4E061C9
:104BC0001143C8F80010000708D5D8F80000216983
:104BD00020F4605040EAC100C8F80000D8F8000096
:104BE00042F20041C0F2F40100F00C000428084633
:104BF00000F0A480D8F8000000F00C00082843F270
:104C00000060C0F26E1000F09980D8F8002002F029
:104C10000C020C2A40F09180D8F80420D8F8043017
:104C200002F00302C3F30313D8F804700133032A1C
:104C300008BF0146B1FBF3F0D8F80410C7F306270C
:104C4000C1F341610222784302EB4101B0FBF1F074
:104C500074E058F8081C89035CBF0120BDE8F087A8
:104C600006E058F8081C490502D40120BDE8F08789
:104C7000D8F8001001F00C0104293ED0D8F800103B
:104C800001F00C01082938D0D8F8001001F00C010F
:104C90000C2932D1D8F80410D8F8042042F2004789
:104CA000C2F3031201F00301D8F804300132C0F25C
:104CB000F407032904BF43F20067C0F26E17B7FB85
:104CC000F2F1D8F80420C3F306235943C2F341623A
:104CD000022303EB4202B1FBF2F14BF20042C0F2BD
:104CE000C442914209D9D8F80010082262F3071192
:104CF0004FF08009C8F8001001E04FF00009D8F823
:104D0000001021F003010843C8F80000FEF732FF4D
:104D1000064641F2883700BFD8F80000616800F00D
:104D20000C00B0EB810F3FF4BBAEFEF723FF801BFE
:104D3000B842F1D90320BDE8F0870020D8F8001070
:104D40004AF68832C1F30311C0F60002515C40F20A
:104D5000000201F01F0120FA01F140F23000C2F21E
:104D600000000068C2F200021160BDE8F047FFF7E2
:104D700081BB000040F20000C2F2000000687047F2
:104D800040F2000041F20801C2F20000C4F2020148
:104D9000006809684AF69832C1F30221C0F60002A1
:104DA000515C01F01F01C8407047000040F2000054
:104DB00041F20801C2F20000C4F202010068096871
:104DC0004AF69832C1F3C221C0F60002515C01F0EC
:104DD0001F01C8407047000080B541F20C01C4F2C9
:104DE000020151F8040C42F20042C0F2F40200F059
:104DF0000C000428104608BF80BD51F8040C00F0D8
:104E00000C00082843F20060C0F26E1022D051F866
:104E1000043C03F00C030C2B1CBF002080BDD1F818
:104E200000C00B680CF0030CC3F3031E0B680EF1FB
:104E3000010EBCF1030F08BF02460968B2FBFEF089
:104E4000C3F30623C1F341610222584302EB41013F
:104E5000B0FBF1F080BD00002DE9F04182B00028E8
:104E600000F001810446007841F20006C007C4F258
:104E7000020654D12078800772D42078000700F110
:104E800095802078400700F1B3802078800600F1FB
:104E90000081E569002D00F01882B06800F00C0078
:104EA0000C2840F05981012D00F0DD80F068216A66
:104EB00000F003028A4240F0D680626A6FF00F036E
:104EC00000F0F00103EB0212914240F0CC80A16AA5
:104ED00000F4FE42B2EB012F40F0C580E16A00F021
:104EE0007842B2EBC16F40F0BE80226B0023CFF658
:104EF000E07303EA025200F4C001A2F500129142ED
:104F000040F0B180616B4FF07E4202EA016100F037
:104F1000C06001F17E41884240F0A580D5E1B068D3
:104F200000F00C01F068082959D0032281F00C012F
:104F300022EA00000844B0FA80F040094FD16568C9
:104F4000B5F5A02F00F0D380B5F5803F00F0D380F9
:104F5000306820F480303060306820F48020CDE06C
:104F6000B068F16800F00C00042866D001F003017D
:104F700080F00C0081F002010844B0FA80F0400992
:104F80005BD1E1683068002900F0D38040F4807084
:104F90003060FEF7EFFD05463068400500F1FE8009
:104FA000FEF7E8FD401B0228F6D930E16169D6F82A
:104FB0009400002900F0898040F00100C6F89400B8
:104FC000FEF7D8FD054600BFD6F8940080073FF5F0
:104FD00058AFFEF7CFFD401B0228F5D917E1306826
:104FE00080037FF547AF606800287FF443AF3AE065
:104FF000B06D10F0805808D1B06D40F08050B065B1
:10500000B06D00F080500190019847F20007C4F2A3
:1050100000073868C0052AD4386840F480703860CA
:10502000FEF7A8FD054600BF3868C0051FD4FEF78F
:10503000A1FD401B0228F7D9E9E03068400501D501
:10504000E06880B17068216920F0FE4040EA0160AC
:10505000706040F23000C2F200000068FFF70AFA08
:1050600000283FF40AAF012002B0BDE8F081A56836
:10507000052D00F0B080012D00F0B380D6F890002F
:1050800020F00100C6F89000D6F8900020F004004F
:10509000ABE0A169D6F89800002900F0878040F0C5
:1050A0000100C6F89800FEF765FD0546D6F89800A1
:1050B00080073FF5EEAEFEF75DFD401B02284FF086
:1050C0000300F3D902B0BDE8F08120F00100C6F87A
:1050D0009400FEF74FFD0546D6F8940080077FF553
:1050E000D0AEFEF747FD401B0228F5D98FE03068AF
:1050F00040F480203060306840F480303060FEF74B
:1051000039FD002D054610D0306880033FF5B2AE62
:10511000FEF730FD401B6428F6D978E0FEF72AFD43
:10512000401B64284FF00300CCD830688003F5D4CE
:10513000A0E620F480703060FEF71CFD054600BF3D
:10514000306840057FF599AEFEF714FD401B02283C
:105150004FF00300F4D9B5E7306820F0807030607C
:10516000FEF708FD022D05460CD100BF3068800116
:1051700067D5FEF7FFFC401B02284FF00300F5D96E
:10518000A0E700BF3068800140F19880FEF7F2FC94
:10519000401B02284FF00300F4D993E7706821699F
:1051A00020F0FE4040EA0160706066E620F00100F9
:1051B000C6F89800FEF7DEFC054600BFD6F898005A
:1051C00080077FF566AEFEF7D5FC401B02284FF046
:1051D0000300F3D976E7D6F8900040F00400C6F853
:1051E0009000D6F8900040F00100C6F89000FEF75D
:1051F000C1FC002D054641F2883715D0D6F8900045
:10520000800715D4FEF7B6FC401BB842F6D9032040
:1052100002B0BDE8F08100BFFEF7ACFC401BB84215
:105220004FF003003FF64EAFD6F890008007F3D45E
:10523000B8F1000F7FF429AEB06D20F08050B0655A
:1052400023E6F06848F20C01C0F29F1104F1200738
:1052500000EA010C8ECF6FF00F00D4E90C5400EB84
:1052600002100022CFF6E07241EA0C0102EA055278
:105270000843A2F500124FF07E4540EA032005EAFC
:105280000465104305F17E4540EAC7602843F0609D
:10529000306840F080703060F06840F08070F060FE
:1052A000FEF768FC0446306880010ED4FEF762FC0D
:1052B000001B02284FF00300F5D903E7F0684FF612
:1052C000FC71CFF6EE610840F060002002B0BDE84E
:1052D000F0810000411E0020B0EB116F1CBF0120C7
:1052E00070474EF21002CEF2000251604EF623518A
:1052F000CEF20001F0230B7007219060116070471F
:1053000090F88410012904BF022070472421C0F8BE
:10531000881002681168136823F00103136021F0FC
:1053200000530021416613602022C0F8882080F8D5
:105330008410084670470000704700007047000066
:10534000B0B590F88420012A04BF0220B0BD01232B
:10535000242280F88430C0F888200268D0F864E005
:10536000D2F800C01468BEF1000F24F001041460EC
:10537000946824F0606441EA040191601BD0916854
:1053800093684AF6287E5B0FC0F6000E4AF6307529
:105390001EF80340C0F60005EB5CC1F34261E40077
:1053A000B4FBF3F41EF80130695CDB00B3FBF1F3EE
:1053B000A0F86A4001E0A0F86A302021A0F8683027
:1053C000C2F800C0C0F88810002180F88410084698
:1053D000B0BD0000B0B590F88420012A04BF0220BF
:1053E000B0BD0123242280F88430C0F888200268F0
:1053F000D0F864E0D2F800C01468BEF1000F24F0C9
:1054000001041460946824F0604441EA040191604E
:105410001BD0916893684AF6287E5B0FC0F6000E99
:105420004AF630751EF80340C0F60005EB5CC1F388
:105430004261E400B4FBF3F41EF80130695CDB0068
:10544000B3FBF1F3A0F86A4001E0A0F86A30202134
:10545000A0F86830C2F800C0C0F88810002180F8B9
:1054600084100846B0BD000070470000704700007F
:105470007047000070B5036840F62F02D9690446F2
:1054800018689E680A40202A05D100F0200206F024
:105490008055521929D140F60F020A400CD0012242
:1054A000C1F2000206EA020C40F22012C0F20042F1
:1054B000024012EB0C0220D1E26E012A06D111F05B
:1054C000100218BF10F0100240F0F280CA0240F142
:1054D000CA8016F4800200F0C6804FF48011204686
:1054E0001962BDE87040FFF7C1BF616F002900F08D
:1054F0008F812046BDE870400847CA0718BF10F4E6
:10550000807207D001221A62D4F8902042F0010282
:10551000C4F890208A0706F0010E0AD5BEF1000FEC
:1055200007D002221A62D4F8902042F00402C4F894
:1055300090204A070AD5BEF1000F07D004221A6254
:10554000D4F8902042F00202C4F890200A070CD54B
:1055500000F0200252EA0C0207D008221A62D4F8A6
:10556000902042F00802C4F890200A050BD510F0F4
:10557000806208D04FF400621A62D4F8902042F0A2
:105580002002C4F89020D4F89020002A00F0408136
:1055900011F020011EBF00F0200006F0805110EB3A
:1055A000010040F036812068D4F89010806801F046
:1055B000280100F04000401806D12046FFF758FFB0
:1055C0000020C4F8900023E1206850E8000F216813
:1055D00020F4907041E80002002AF5D14FF6FE70E9
:1055E000CEF6FF70216851E8021F2268014042E8B0
:1055F0000213002BF6D1E06E012809D1206850E893
:10560000000F216820F0100041E80002002AF5D1C7
:105610002020C4F88C000020E0662168606788685C
:10562000400640F1E08000BF206850E8020F21688A
:1056300020F0400041E80202002AF5D1D4F88000B1
:10564000002800F0D08046F68901C0F60001816391
:10565000FDF7E4FE002800F0DB80D4F88000816BC9
:10566000BDE8704008470A0606D500F0800206F43F
:105670000003D21840F0BC804A0640F1AA8010F026
:10568000400200F0A68000BF206850E8000F2168AB
:1056900020F0400041E80002002AF5D1202000213E
:1056A000C4F888002046A167BDE8704000F092BAB7
:1056B00010201862986840063CD4B4F85C00B4F836
:1056C0005E10B4F85E20002A18BF884200F0A08067
:1056D000401A00BF216851E8001F226821F4907130
:1056E00042E80013002BF5D14FF6FE71CEF6FF71A4
:1056F000226852E8022F23680A4043E80226002E5F
:10570000F6D12021C4F88C100021E166616700BF4A
:10571000216851E8001F226821F0100142E80013BF
:10572000002BF5D1022281B220462267BDE87040ED
:10573000FFF702BED4F88000006841688AB2002AF0
:1057400066D0B4F85C309A4262D2A4F85E10006869
:10575000800631D4206850E8000F216820F4807062
:1057600041E80002002AF5D1206850E8020F2168C4
:1057700020F0010041E80202002AF5D1206850E83B
:10578000020F216820F0400041E80202002AF5D112
:105790002020C4F88C000020E06600BF206850E89C
:1057A000000F216820F0100041E80002002AF5D126
:1057B000D4F88000FDF7FAFD02202067B4F85C0001
:1057C000B4F85E10401A81B22046BDE87040FFF781
:1057D000B3BD0A0211D510F080420ED02046BDE8BC
:1057E0007040FFF741BE2046BDE87040FFF740BE65
:1057F000A16F00297FF47DAE0AE0C90108D5B0F1A0
:10580000FF3FC8BF70BD2046BDE87040FFF796BDA2
:1058100070BD616F00293FF4C6AE20468847C2E6DE
:1058200010B5D8B10446D0F8880028B9002084F813
:105830008400204600F026F82420C4F88800206860
:10584000A16A026822F00102026011B1204600F054
:1058500047FF204601F0C2FA012801D1012010BD06
:105860002168486820F490404860886820F02A0049
:105870008860086840F0010220460A60BDE81040D8
:1058800000F0A2BFB0B59AB00446002501A850218F
:105890001995CDE91755CDE91555FAF784FE20681D
:1058A00044F20041C4F20001884245D044F60001B0
:1058B000C4F2000188426ED043F60001C4F2010137
:1058C000884240F0A18001200190002401A80294A8
:1058D000FEF746FF002818BFFCF7EEFF41F24C0030
:1058E000C4F20200416941F480414161416901F41F
:1058F000804100910099016841F001010160006858
:1059000015A900F00100009000984FF4C0601590B8
:105910000220CDE91604072019904FF0904018940A
:10592000FEF74CF8252000210022FEF74FFE25202F
:10593000FEF73CFE1AB0B0BD022401A80194039505
:10594000FEF70EFF002818BFFCF7B6FF41F24C002F
:10595000C4F20200C16841F40031C160C16801F4C1
:10596000003100910099016841F001010160006877
:1059700015A900F00100009000980C20CDE9150455
:105980000020CDE91700072019904FF09040FEF756
:1059900015F81AB0B0BD04200190002401A80494A9
:1059A000FEF7DEFE002818BFFCF786FF41F24C0030
:1059B000C4F20200C16841F48021C160C16801F4F1
:1059C000802100910099016841F0020101600068A6
:1059D00015A900F00200009000984FF44060159067
:1059E0000220CDE916040720199040F20040C4F6C9
:1059F00000001894FDF7E2FF272000210022FEF7A7
:105A0000E5FD2720FEF7D2FD1AB0B0BD80B5D0F875
:105A10008C30202B1CBF022080BD00294FF00103D9
:105A200018BF002A01D1184680BD0023C366D0F8F4
:105A300000C048F20003C4F200039C4510D0DCF81B
:105A400004301B020CD500BF036853E800CFD0F828
:105A500000E04CF080634EE8003CBCF1000FF3D155
:105A600001F030FB0023184680BD000010B500682F
:105A700043F60001C4F20101884217D044F6000148
:105A8000C4F20001884218BF10BD40F2C45040F279
:105A9000D954C2F20000C2F200040068217804F078
:105AA0001FF840F22C50C2F200000FE040F2C0504C
:105AB00040F2D854C2F20000C2F20004006821781B
:105AC00002F0FEFF40F20440C2F200002146012233
:105AD000BDE81040FFF79ABF2DE9F04381B00446BE
