:020000040800F2
:10000000E815002035030008A9900008957F000836
:10001000A59000082D310008CDAA000800000000BE
:10002000000000000000000000000000F591000842
:100030007132000800000000199100083D9300088B
:100040004F0300084F0300084F0300084F03000848
:100050004F0300084F0300084F0300084F03000838
:100060004F0300084F0300084F0300083131000818
:10007000413100084F0300084F0300084F030008F8
:100080004F0300084F0300084F0300084F03000808
:100090004F0300084F0300084F0300084F030008F8
:1000A0004F0300084F0300084F0300084F030008E8
:1000B0004F0300084F0300084F0300084F030008D8
:1000C0004F0300084F0300084F0300084F030008C8
:1000D0004F030008ADAA00084F030008BDAA00089E
:1000E0004F0300084F0300084F0300084F030008A8
:1000F0004F0300084F0300084F0300084F03000898
:10010000000000004F030008000000004F0300083B
:100110004F0300084F0300084F0300084F03000877
:100120004F0300084F0300084F0300084F03000867
:100130004F03000800000000000000004F0300080B
:100140004F0300084F0300080000000000000000FB
:10015000000000000000000000000000000000009F
:100160000000000000000000000000004F03000835
:100170004F0300084F0300084F0300084F03000817
:100180004F0300084F0300080000000000000000BB
:1001900000000000000000004F0300084F030008AB
:1001A00000000000000000004F0300084F0300089B
:1001B0004F0300084F0300084F0300084F030008D7
:1001C0004F0300084F0300084F0300084F030008C7
:1001D0004F0300084F03000800F002F800F09BF8FE
:1001E0000AA090E8000C82448344AAF10107DA4592
:1001F00001D100F090F8AFF2090EBAE80F0013F049
:10020000010F18BFFB1A43F001031847E037010044
:1002100000380100103A24BF78C878C1FAD85207D4
:1002200024BF30C830C144BF04680C607047000070
:100230000023002400250026103A28BF78C1FBD8EF
:10024000520728BF30C148BF0B6070476E2900F0CD
:100250003D83702900F07F84662913F0648165294D
:1002600013F06181672913F05E81612913F05D81CC
:1002700003681B0A28BF41F08001692900F0EA8267
:10028000642900F0E782752900F0E4826F2900F00C
:100290000D84782900F04B84E92900F0A783E42934
:1002A00000F0A483F52900F0A183EF2900F00A846F
:1002B000F82900F04A840368DB0928BF41F0800177
:1002C000632901F03782732901F03C82E32901F0B0
:1002D0004782F32901F04C82002070471FB513F0CC
:1002E00010F99DE8030000F0BBFD01F0D9FA04000D
:1002F0000020002112F064FE401C606000200021FC
:1003000012F048FEE06000F07DF91FBD10B500203E
:1003100001F056FA10BD01F095FA1146FFF7DEFF25
:1003200012F000FA01F08CFB03B4FFF7EFFF03BCFF
:1003300000F07AF90948804709480047FEE7FEE7E0
:10034000FEE7FEE7FEE7FEE7FEE7FEE7FEE7FEE785
:1003500004480549054A064B70470000ED93000824
:10036000D9010008E8050020E8150020E80D00206C
:10037000E80D002053EA020C00F069802DE9F04BF3
:100380004FF00006002B1FBFB3FA83F503FA05F404
:1003900024FA05F65E4012BF1643B2FA82F502FA5D
:1003A00005F4C5F120051EBF22FA05FC44EA0C0441
:1003B000203556EA044C4FEA144418BF641C4FF031
:1003C00000084FF00009904271EB030C39D300296B
:1003D00019BFB1FA81F701FA07F6B0FA80F700FA0F
:1003E00007F6C7F120071EBF20FA07FC46EA0C06F5
:1003F0002037B6FBF4FCA7EB0507103F07F01F0BF7
:10040000CBF120062CFA06F60CFA0BFB44BFB346E0
:100410000026202FA4BF5E464FF0000B5BEA060CBF
:1004200008BF4FF0010B19EB0B0948EB0608ABFBBB
:10043000027C06FB02CC0BFB03CCC01B71EB0C0156
:10044000C1E70B46024641464846BDE8F08B13B56E
:10045000084318BF4FF0FF300146AFF30080BDE8FE
:100460001C4070471CB50C46064B7B446946009007
:10047000204600F044FA04460020694600F052FA93
:1004800020461CBDB7040000002800DA4042704737
:1004900010B5002000F045FCFFF738FFBDE8104024
:1004A000012000F0C1B80B460146184600F022BCFE
:1004B000431A28BF9A4240F23B8410441144032A55
:1004C00040F2268010F0030F1EBF11F8013D521EAE
:1004D00000F8013D10F0030F7FF4F6AF11F00303B5
:1004E00000F03B80083AC0F00B8051F8043D083A18
:1004F00051F804CD40F8043D40F804CDFFF7F3BFB8
:10050000121D5CBF51F8043D40F8043DAFF300807C
:10051000D20724BF11F8013D11F801CD48BF11F8F1
:10052000012C24BF00F8013D00F801CD48BF00F8C0
:10053000012C7047431A28BF9A4240F23E8410446F
:10054000114410F0030F1EBF11F8013D521E00F8B8
:10055000013D10F0030F7FF4F6AF103AC0F00A80AF
:1005600010B531E9185020E91850103ABFF4F9AF2E
:10057000BDE81040530724BF31E9081020E90810F6
:1005800044BF51F8043D40F8043D12F0030F08BF8A
:100590007047D20728BF31F8023D48BF11F8012C3F
:1005A00028BF20F8023D48BF00F8012C70474FF0EB
:1005B000000200B5134694469646203922BFA0E8B3
:1005C0000C50A0E80C50B1F12001BFF4F7AF0907BF
:1005D00028BFA0E80C5048BF0CC05DF804EB8900B0
:1005E00028BF40F8042B08BF704748BF20F8022BF3
:1005F00011F0804F18BF00F8012B7047704770470B
:100600007047000070B5064C7C44064D7D4404E004
:100610002046016808448047241DAC42F8D170BDD3
:100620002C3501003435010001491820ABBEFEE72E
:100630002600020070B5064600F0F2FB056806F1E0
:100640000B0020F00704B4429CBF002070BD2B4675
:100650006A68BAB11068A04210D304F10801884258
:100660003CBF5068586007D3516810194160116849
:10067000091B016058601460101D70BD134652685C
:10068000002AE7D12146284600F0D6FB0028DED11B
:1006900070BD70B50446051F00F0C2FB0068002C59
:1006A00014BF446870BD002C18BFAC423CBF20464C
:1006B0006468F8D301680A18AA4218BF456003D1DC
:1006C0002A6805461144016028684119A1421CBFEF
:1006D0006C6070BD6168696021680844286070BD05
:1006E0002DE9F04791460C46804600F099FB0768DB
:1006F000604234EA000001D1042C02D20520BDE89A
:10070000F087601E40F0070609F10B0020F0070596
:100710004D4539D93B467A6882B31468101D404272
:1007200006EA000C644525D9A4EB0C00854221D8CB
:10073000BCF1000F0BD0104601686244A1EB0C0124
:10074000116041685160C0F800C0586003461168EC
:1007500005F10800814205D35019491B016015605D
:100760005860034652F8040F58600020C8F8002073
:10077000BDE8F08713465268002ACED12946384694
:1007800000F05AFB0028C5D10620BDE8F08770B5FF
:10079000044685690068C10601D5302600E02026A0
:1007A000C00707D070BDD4E9012130469047206AC8
:1007B000401C20626D1EF6D570BD70B5044685697B
:1007C0000078C00707D170BDD4E9012120209047EF
:1007D000206A401C20626D1EF6D570BD09684A056E
:1007E00001D540B27047C905FCD500B27047096811
:1007F0004A0501D5C0B27047C905FCD580B2704723
:1008000070B50C460546012A05D02878800600D52B
:10081000EA69002302E0012305E05B1C934202D257
:10082000E05C0028F9D1A869E618C01AA861286A16
:10083000184428622846FFF7AAFF04E0D5E9012101
:1008400014F8010B9047B442F8D32846FFF7B5FFE0
:1008500070BD00002DE9F04106460024106875299E
:10086000314616A510D0FFF7B9FF002802DA404242
:1008700013A507E031688A0701D512A502E04907F0
:1008800004D511A5012401E0FFF7B1FF00210A22E0
:1008900006F1240709E0B0FBF2FCB0FBF2F302FB27
:1008A0001C00303078541846491C0028F3D12346E8
:1008B0002A463046BDE8F04100F04DBB0000000084
:1008C0002D0000002B0000002000000011680268CD
:1008D000006A530501D508700AE0D30501D50880E8
:1008E00006E0130603D5C217C1E9000200E0086064
:1008F0000120704701694A1C02610878704700B501
:100900008FB0CDE901310021059105497944CDE948
:1009100003101146684600F029F90FB000BD000031
:10092000E5FFFFFF0A6802F8010B0A60704700004C
:100930002DE9FF5F15468A460446DFF8AC80F8448F
:100940000027D8E900103E46CDE9001010E03AF843
:1009500016106A4602A800F00FFF411C07D021784C
:10096000890603D5E269391891420DD80744761CEF
:100970002078800602D5E069B84205DDAE42E6DBAC
:100980003AF816000028E2D1A069C01BA0612046F9
:10099000FFF7FDFED8E90010CDE90010002017E0B8
:1009A0003AF818106A4602A800F0E6FEB0F1FF3FE0
:1009B00081460BD000250DF1080B05E0D4E901219B
:1009C0001BF8050090476D1C4D45F7D308F1010059
:1009D000B0428046E4DB206A384420622046FFF7BC
:1009E000ECFEBDE8FF9F0000EE2B01002DE9F04179
:1009F0008046D21D22F007020025D2E90002F52927
:100A000015A614D0011E72F1000106DA0023D0EB06
:100A1000030063EB020211A608E0D8F800108B0770
:100A200001D50FA602E0490701D50EA60125114602
:100A3000002408F1240704E000F048FA30323A5567
:100A4000641C50EA0102F7D12B463246214640464B
:100A5000BDE8F04100F07FBA000000002D0000006A
:100A60002B0000002000000030B4002100F124041D
:100A700008E002F00705D208303542EA4372DB088D
:100A80006554491C52EA0305F3D10468002310A2FF
:100A9000250708D504F020040C4304D0C4690123C1
:100AA0000CA2641EC46130BC00F055BA10B50446F7
:100AB00021461068FFF79BFE02462046BDE8104025
:100AC0000023D1E7D21D22F00701D1E90023CBE7B3
:100AD0000000000030000000F0B40D460188090558
:100AE00002D5214C7C4402E01F4C7C440E34002192
:100AF00000F1240608E002F00F071209E75D42EA60
:100B000003721B097754491C52EA0307F3D1027898
:100B10000023120704D5702D06D009B10223113429
:100B20002246F0BC00F017BA01231034F8E770B584
:100B300004460D4621461068FFF759FE0246294635
:100B40002046BDE870400023C6E7D21D22F007030F
:100B5000D3E90023C0E70368126843F02003036071
:100B60000823C3610023B7E7502A01002DE9F05F95
:100B7000894604464FF0000ADFF874B1FB44C0F820
:100B800020A02046E1688847002874D0252806D098
:100B9000D4E901219047206A401C2062F1E7002639
:100BA0005F462046E16888472028054607DB312D4F
:100BB00005D2781910F8200C08B10643F1E7B00708
:100BC00001D526F00406C4F81CA00027C4F818A01C
:100BD0002A2D09D0284612F0D5F938B304EB87083E
:100BE000303DC8F8185019E059F8041B204604EBB2
:100BF00087029161E1688847012F054618D1E069B5
:100C0000002820DA26F020061DE0D8F8180000EBB6
:100C1000800005EB40003038C8F818002046E16835
:100C20008847054612F0AEF90028EED1012F0AD010
:100C30002E2D08D12046E16888477F1C0546022FEB
:100C400046F02006C4DBA069002803DA404246F0E3
:100C50000106A061F00701D026F010066C2D0BD024
:100C6000682D09D04C2D39D06A2D35D0742D35D052
:100C70007A2D33D016E038E0E1682F4620468847C9
:100C8000B842054609D16C2F26D04FF48060E16848
:100C9000064320468847054604E06C2F1AD04FF4DF
:100CA000807006430DB3A5F14100192802D8203504
:100CB00046F400664A462946204626604E46FFF71F
:100CC000C5FA80B101280BD0F61D26F0070000F10F
:100CD000080956E74020E4E78020D8E70020D6E75F
:100CE00006F104094DE7284652E7206ABDE8F09F67
:100CF000E02901002DE9F041074615460E46102077
:100D0000FFF798FC04000AD06760C4E9026500F0B0
:100D10008BF80168216004600020BDE8F0810120AB
:100D2000FBE710B500F072FDBDE8104000F069BDB2
:100D3000032A40F2308010F0030C00F0158011F807
:100D4000013BBCF1020F624498BF11F801CB00F8DF
:100D5000013B38BF11F8013BA2F1040298BF00F833
:100D600001CB38BF00F8013B11F0030300F02580F0
:100D7000083AC0F0088051F8043B083A51F804CB17
:100D8000A0E80810F5E7121D5CBF51F8043B40F8DD
:100D9000043BAFF30080D20724BF11F8013B11F8E8
:100DA00001CB48BF11F8012B24BF00F8013B00F82C
:100DB00001CB48BF00F8012B704710B5203AC0F0B6
:100DC0000B80B1E81850A0E81850B1E81850A0E81E
:100DD0001850203ABFF4F5AF5FEA027C24BFB1E8B7
:100DE0001850A0E8185044BF18C918C0BDE81040FA
:100DF0005FEA827C24BF51F8043B40F8043B08BF03
:100E00007047D20728BF31F8023B48BF11F8012BC9
:100E100028BF20F8023B48BF00F8012B70477047FD
:100E200000487047380000200048704768000020E4
:100E3000704770477047704738B504460A4600202F
:100E40006946AFF30080002808BF38BD024600990C
:100E5000204600F029FD012038BD012000F012BE1F
:100E6000F8B5AFF30080054600200C46102000BF07
:100E70000646A819A0420DD9324669460020AFF3B4
:100E80000080070008BF00F0FDFD0098A04218BFD9
:100E90000546C419FFF7C4FF05600746F01D20F0A2
:100EA00007004619284600F00AF8B44208BFF8BD0A
:100EB000A21B31463868BDE8F84000F0F5BC0021BF
:100EC0000160C0E9011070471020704730B5B0F1E3
:100ED0000A0271F100034FEA900E4EEA817EB0EBF8
:100EE0000E0061EB91014FEA101E4EEA017E10EBFD
:100EF0000E0041EB11114FEA102E4EEA016E10EB7D
:100F00000E0041EB11214FEA104E4EEA014E10EB5C
:100F10000E0041EB1141401841F100014FEAD000B1
:100F200040EA41704FEAD1014FEA810444EA9074EB
:100F300010EB800544EB01046D1944EB0404521BD3
:100F4000A3414FF0000348BF0A3200D530BD401C1A
:100F500041F1000130BD2DE9F0470D46994692461A
:100F6000044600F124080168880604D5E06921F0F0
:100F70001001216000E00120A84201DD471B00E0D4
:100F80000027A1697A1902EB0900081AA0612078EC
:100F9000C00602D42046FFF7FAFB002608E0D4E999
:100FA00001211AF806009047206A401C761C206236
:100FB0004E45F4DB2078C0060AD52046FFF7E7FB54
:100FC00006E0D4E9012130209047206A401C2062CD
:100FD000381EA7F10107F4DC07E0D4E9012118F875
:100FE00005009047206A401C2062281EA5F10105DB
:100FF000F3DC2046FFF7E1FB2078000602D5022053
:10100000BDE8F0870120FBE72DE9FF4F0C461E46A7
:101010004FF0FF378BB0D2E90001DDF860800A9015
:101020008A46C1F30A5505B93D46002108464FF0EE
:101030000000BAF1000F00F4400005DA00EB800078
:101040004FF4400101EA50004FEA9059B9F1010F05
:1010500000DDB9460A9850EA4A000ED044F6105016
:10106000A5F2FF3545432F14B8F1000F1ED075428D
:10107000291E1EDDC9F100021CE0B8F1010F4FF07E
:10108000000001D0302103E0F24305E02154401C70
:10109000B042FBDB30460022002121540B99C1F8FD
:1010A0000880C1E900200FB0BDE8F08FBD1B6D1CAA
:1010B000DEE74A4600DA694206A800F04FFC06ABBC
:1010C00093E8070003AB83E8070050460A9911F044
:1010D00078FB8DE80700A0F500501F3800900398BA
:1010E000002D0ADD42F21F014A460844002303A9ED
:1010F0000390684611F0E2FD09E0A0F500504A4671
:101100001F38002303A90390684611F0ECFD8DE819
:1011100007000004000C03D04FF0FF30410800E04E
:101120001046B8F1000F03D00022009215461EE0D1
:10113000751E05D4FFF7CAFE303262556D1EF9D513
:10114000B3460122084302D000227F1C04E020782D
:10115000302801D100227F1E002A099784D01DE08B
:10116000112D07DAFFF7B2FE303262556D1C50EADE
:101170000102F5D1084302D00098C8B10EE0002169
:10118000681E05E0235C625C63542254401E491CC7
:101190008142F7DBAB46A81B401E0990002004F8F3
:1011A0000B000B98099AC0F80880C0E9002B7AE779
:1011B00011264FF0000857E72DE9F04F8846044606
:1011C000D21D22F0070191B0D1E90001CDE90A0159
:1011D00011F0C0FE02460B98C00F01D02D2007E091
:1011E0002068810701D52B2002E0202101EAC00000
:1011F000032A099001D0072A05DB03464146204611
:1012000000F06CFB0BE12078800601D5E06900E07E
:101210000620B8F1650F814606D0B8F1660F18D0E8
:10122000B8F1670F70D131E00020B9F1110F0090D3
:1012300001DB112301E009F101030AAA01A90CA8AD
:10124000FFF7E2FEDDE90C70002609F10105834697
:1012500047E001204B4600904FF000470AAA01A941
:101260000CA8FFF7D1FEDDE90DB00C995D46002614
:1012700010B909F101000D18B9EB050003D4C0F154
:10128000FF3609F10105A5EB09002BE0B9F1010FCB
:1012900001DA4FF001090020B9F1110F0090484622
:1012A00001DD112300E003460AAA01A90CA8FFF7FB
:1012B000ABFEDDE90C704D46002683462078000722
:1012C0000AD4AB4500DA5D4601A8012D04DD4119C1
:1012D00011F8011C302907D04F4502DA17F1040F2D
:1012E00004DA012082460FE06D1EEEE7002F02DCDB
:1012F000ED1B3E4403E0781CA84200DD7D1CB81BBA
:1013000000F1010A4FF000472078000703D4AA45F6
:1013100001DB4FF0FF3A0021B7F1004F0DF1430818
:101320008DF8431024D002202B23002F01DA7F42B6
:101330002D230A21021EA0F1010000DC5FB197FB02
:10134000F1FC97FBF1F201FB1C7C17460CF1300C11
:1013500008F801CDEEE7A8F1010003702188090526
:1013600001D5452100E06521A0F1010800F8011C2C
:1013700009980FA9A1EB0807FF1D00B10120411931
:1013800001EBEA70A1693844081A401EA061207878
:10139000C00602D42046FFF7FAF9099828B1D4E92B
:1013A00001219047206A401C20622078C00622D587
:1013B0002046FFF7ECF91EE0002E04DBB34502DD0A
:1013C00001A8805D00E03020D4E901219047206A27
:1013D000401C2062761CAAF101005FEA000A0AD1D3
:1013E00000F05EFAC0680168405CD4E901219047D2
:1013F000206A401C2062281EA5F10105DCDC07E004
:10140000D4E9012118F8010B9047206A401C2062A2
:10141000381EA7F10107F3DC2046FFF7CEF90320C1
:1014200011B041E62DE9F04F04460D46D21D22F0E1
:10143000070089B0D0E900974846394611F08AFD87
:101440000246F80F01D02D2307E02068810701D55F
:101450002B2302E0202101EAC0038DF820300BB1DC
:10146000012000E00020032A824601D0072A04DB85
:101470002946204600F032FA3FE12078800601D468
:101480000D2500E0E569C7F30A560D2D49DA002164
:101490004FEA175B08464FF00000002F00F44000B1
:1014A00007DA00EB80004FF4400100EBD07001EA56
:1014B00060008115012901DD4FF0FF3100224FEA64
:1014C000850CBCF1180F06D31346ACF118004FF091
:1014D0008052C24003E04FF4801323FA0CF30CF166
:1014E0000C0CBCF1200F04D3ACF1200C09FA0CF069
:1014F00001E007FA0CF000294FF0004801DD18B9AF
:101500000FE00ED140450CD319EB02095F4121B920
:10151000404502D19F4329EA0209BBEB175F00D087
:10152000761C2088000502D57B48784402E07A4882
:101530007844193808AA302302F80A30037C0AF1EB
:101540000101002E0AF1020A53546A4602DC4FF0F0
:10155000300101E04FF031014FF001088DF800102B
:1015600002D0A6F2FF3603E059EA470100D06B4EE5
:10157000002D02DC2178090704D54FF002082E2146
:101580008DF80110C44600210BE0C7F303433F016F
:10159000C35C491C6D1E02F80830052908F10108DA
:1015A00001DA002DF1DC00210CE000EB1973491C7D
:1015B0001B786D1E082902F808304FEA091908F156
:1015C000010801DA002DF0DC21688B0602D516E057
:1015D000A8F10108E04505DD02EB080313F8013C22
:1015E000302BF5D0B8F1000F09DD02EB080313F83A
:1015F000013C2E2B03D1090701D4A8F10108002DCD
:1016000005DD3E2102F808106D1E08F10108407C3E
:10161000002E02F8080008F1010804DA2D207642B5
:1016200002F8080002E02B2002F808000A214FF41B
:101630007A70864208F101080BDB96FBF0F3303339
:1016400002F8083096FBF0F308F1010800FB13667E
:1016500001E0642E0CDB642096FBF0F3303302F8DB
:10166000083096FBF0F308F1010800FB136601E077
:101670000A2E06DB96FBF1F0303002F8080008F184
:10168000010896FBF1F001FB1060303002F8080011
:10169000A16908F1010808EB050202EB0A00081A2B
:1016A000A0612078C00602D42046FFF770F8216AB6
:1016B00008AE01EB0A00206204E0D4E9012116F82B
:1016C000010B9047BAF1010AF7D22078C00602D583
:1016D0002046FFF75CF86E4609E016F8010B3E283D
:1016E0000FD0D4E901219047206A401C2062B8F154
:1016F0000108F2D22046FFF760F809B00320BDE8E8
:10170000F08F206A2844206203E0D4E901213020D0
:1017100090476D1EEBD3F8E75620010002FCFFFF57
:1017200010B5436913B1AFF3008001E0FFF768F82B
:10173000012010BD127800F124010A7000224A70C5
:101740000122EDE711684FF0FF32E9E710B5436978
:1017500013B1AFF3008001E0FFF7EAF8012010BDFC
:10176000128800F1240182840022C2840122EDE764
:1017700011684FF0FF32E9E72DE9F04116460C46BB
:10178000054600F085F8036893F80101012807D0A9
:10179000FF2C12D8185D80B101202C70BDE8F081BB
:1017A000D3F807013246214603F20713C71828462B
:1017B000BC46BDE8F041002360474FF0FF30EDE745
:1017C0002DE9F0410646FFF72FFB8046454613E022
:1017D00016B1E068B0420ED120682860D4E901015A
:1017E000D8F8007088472046FEF753FFD8F800006D
:1017F000B842EBD100E025462C68002CE8D1BDE8CA
:10180000F081002801D0FEF70FBF704710B500210E
:1018100002A000F01EF9012010BD0000534947410D
:101820004252543A2041626E6F726D616C20746551
:10183000726D696E6174696F6E00000000487047D8
:10184000300000207546FFF7F9FFAE4605006946F7
:10185000534620F00700854618B020B5FEF778FD06
:10186000BDE820404FF000064FF000074FF00008A1
:101870004FF0000BAC46ACE8C009ACE8C009ACE8DE
:10188000C009ACE8C00921F007018D46704700008F
:1018900010B500F005F8001D10BD00BF25170100B0
:1018A0000048704750000020034640688C460028DE
:1018B00018BF88423CBF03464068F8D318681844F4
:1018C000884207D00CF1030020F00700001D411AE8
:1018D000521A0146081D0A60FEF7DBBE2DE9F041F1
:1018E0001F46044603260168072A01F4006004DB52
:1018F00008B116A505E016A503E008B115A500E09E
:1019000015A521F010002060A069C01EA0610FB1D4
:10191000401EA0612046FEF73AFF4FB1D4E90121F5
:1019200038469047206A401C2062C01C206206E0B6
:10193000206AFAE7D4E9012115F8010B9047761ED9
:10194000F8D22046FEF739FFBDE8F0814E414E0047
:101950006E616E00494E4600696E66002DE9F047E3
:10196000814616468AB0354878440DC88DE80D008A
:1019700032487844801C03AC0DC884E80D0041F661
:101980009B300844372190FBF1F290FBF1F5A5F173
:10199000800501FB12041B3C02D56442012000E0DB
:1019A0000020DFF898A080460027FA44AAF1BE0A7A
:1019B0000EE0E0070AD03246684607EB47010123F4
:1019C0000AEB810111F08FF98DE8070064107F1C8C
:1019D000002CEED1194F7F44AE3F19E0E80715D037
:1019E00007EB04100DF1180A90E80E008AE80E00CB
:1019F000C068F04201D1981908903246012306A927
:101A000003A811F070F903AB83E807006D10641CA4
:101A1000002DE3D14FF0010332466946B8F1000FC3
:101A200003A802D011F04AF901E011F05CF9C9E90C
:101A30000001C9F808200AB0BDE8F087A81C010021
:101A400010B50446AFF300802046BDE81040FEF715
:101A50006BBC70B505460C460A2000E06D1C00F01A
:101A600018F835B128780028F8D102E0641C00F09D
:101A700010F814B120780028F8D1BDE870400A2091
:101A800000F007B810B500F00BF8BDE81040FFF704
:101A9000B8BE08B569468DF800000320ABBE08BD8E
:101AA00010B5012805D0002103A0FFF7D2FF0120C7
:101AB00010BD09A1F8E7000053494752544D454D68
:101AC0003A204F7574206F662068656170206D65DF
:101AD0006D6F7279000000003A2048656170206DDA
:101AE000656D6F727920636F7272757074656400D2
:101AF00030B44FF0013C50F8042B51F8043BCCFAC1
:101B000052F4D51A20D1FCB950F8042B51F8043BFB
:101B1000CCFA52F4D51A17D1B4B950F8042B51F8B5
:101B2000043BCCFA52F4D51A0ED16CB950F8042B00
:101B300051F8043BCCFA52F4D51A05D1002CDAD076
:101B400030BC4FF00000704729BAB1FA81F111F0B2
:101B50001801D1F120008440F2D1CA40CB4012F0EC
:101B6000FF0213F0FF0330BCD01A704780B582B07B
:101B700001900198806A00900098C06D10F0500F9D
:101B80004BD1FFE70099C86D40F40070C86500981C
:101B9000006800680007002821D5FFE7009800686A
:101BA00006F0A0FDD0B1FFE700980068C06880048F
:101BB000002812D4FFE70099C86D20F48070C86532
:101BC0000098C06DC004002806D4FFE70099C86DD6
:101BD00040F00100C865FFE7FFE7FFE719E0009864
:101BE0000068C0688007002812D4FFE70099C86D1C
:101BF00020F48070C8650098C06DC004002806D429
:101C0000FFE70099C86D40F00100C865FFE7FFE7F6
:101C1000FFE7009802F002F810E00098C06DC006DF
:101C2000002804D5FFE7009802F000F805E00098CE
:101C3000406D416B01988847FFE7FFE702B080BD28
:101C400080B582B001900198806A00900099C86DBB
:101C500040F04000C8650099086E40F00400086636
:101C6000009801F0E3FF02B080BD000080B582B0B3
:101C700001900198806A0090009801F0D3FF02B0B3
:101C800080BD000080B586B00490002002900498CA
:101C9000006806F00FFD002840F09280FFE70498EE
:101CA000006880683F21C8F2000108420ED0FFE7BB
:101CB0000499C86D40F01000C8650499086E40F0A2
:101CC0000100086601208DF817007DE00498006887
:101CD00006F0A2FC049801680120B1F1A04F019028
:101CE0000CD0FFE7049800684FF60071CAF6FF7148
:101CF0000844B0FA80F040090190FFE70198C1075D
:101D000040F20070C5F2000000291CBF40F2003014
:101D1000C5F2000006F09EFC4FEA002000281CD50A
:101D2000FFE740F20000C2F200000068800942F6BE
:101D30006351C0F23E51A0FB0110800900EB40014D
:101D40000C2000EB81000290FFE7029820B1FFE732
:101D5000029801380290F8E7FFE703F0C3FB039015
:101D6000FFE7049800680068C00740BBFFE70498DD
:101D7000006806F09FFC28B9FFE70498006806F0A9
:101D80004BFCFFE703F0AEFB0399401A032815D381
:101D9000FFE7049800680068C00770B9FFE704997E
:101DA000C86D40F01000C8650499086E40F001004D
:101DB000086601208DF8170006E0FFE7D1E7FFE78E
:101DC00000208DF81700FFE79DF8170006B080BDD2
:101DD00080B582B08DF8070002208DF806009DF8CE
:101DE00007000138014600913D2800F24083009928
:101DF000DFE811F03E0049003D035C0063006A002B
:101E00007000700070007700770077007E0085001A
:101E10003D035400DE00F0000201140126013801E8
:101E20003D033D034A0153016501770189013D03EB
:101E30003D034A019B01AD01BF01D1013D033D03BB
:101E40003D038C009700A200AC00B700C100CB009E
:101E5000D400E301ED01F80111022A0243025C0201
:101E600075028E02A702C002D902F2020B032403FC
:101E700040F60000C4F600004FF4804103F004FB7C
:101E80008DF80600F4E240F60000C4F600004FF4BE
:101E9000005103F0F9FA8DF80600E9E24FF09040A6
:101EA000102103F0F1FA8DF80600E1E207F084F961
:101EB000C0F300108DF80600DAE207F07DF9C0F3F8
:101EC00040108DF80600D3E207F076F9C0098DF8CE
:101ED0000600CDE207F070F9C0F380008DF806002F
:101EE000C6E207F069F9C0F380108DF80600BFE282
:101EF00007F062F9C0F3C0008DF80600B8E207F001
:101F00005BF900F001008DF80600B1E240F6000038
:101F1000C4F600004FF4806103F0B6FA8DF80600B5
:101F2000A6E240F60000C4F600004FF4006103F0A2
:101F3000ABFA8DF806009BE240F20040C4F60000C8
:101F4000102103F0A1FA8DF8060091E240F600009E
:101F5000C4F600004FF4805103F096FA8DF80600A5
:101F600086E240F20040C4F60000082103F08CFA3B
:101F70008DF806007CE240F60040C4F60000042123
:101F800003F082FA8DF8060072E24FF090404FF4B1
:101F9000004103F079FA8DF8060069E240F2004052
:101FA000C4F60000202103F06FFA8DF806005FE20E
:101FB00040F2C800C2F200000089B0F5807F04DD65
:101FC000FFE701208DF8060003E000208DF80600F1
:101FD000FFE74DE240F2C800C2F200008089B0F590
:101FE000807F04DDFFE701208DF8060003E000207C
:101FF0008DF80600FFE73BE240F2C800C2F20000A5
:10200000C088B0F5807F04DDFFE701208DF8060071
:1020100003E000208DF80600FFE729E240F2C80047
:10202000C2F200000088B0F5807F04DDFFE70120E8
:102030008DF8060003E000208DF80600FFE717E2A8
:1020400040F2C800C2F200004088B0F5807F04DD95
:10205000FFE701208DF8060003E000208DF8060060
:10206000FFE705E240F2C800C2F200008088B0F548
:10207000807F04DDFFE701208DF8060003E00020EB
:102080008DF80600FFE7F3E140F20040C4F60000DF
:102090004FF4005103F0F8F9EAE140F2D800C2F23F
:1020A0000000C088B0F5807F04DDFFE701208DF8D7
:1020B000060003E000208DF80600FFE7D8E140F2BB
:1020C000D800C2F200000088B0F5807F04DDFFE791
:1020D00001208DF8060003E000208DF80600FFE7E0
:1020E000C6E140F2D800C2F200004088B0F5807F1F
:1020F00004DDFFE701208DF8060003E000208DF8E5
:102100000600FFE7B4E140F2D800C2F20000808888
:10211000B0F5807F04DDFFE701208DF8060003E0C5
:1021200000208DF80600FFE7A2E140F2D800C2F2DD
:1021300000000089B0F5807F04DDFFE701208DF805
:10214000060003E000208DF80600FFE790E140F272
:10215000D800C2F200008089B0F5807F04DDFFE77F
:1021600001208DF8060003E000208DF80600FFE74F
:102170007EE140F2D800C2F20000C089B0F5807F55
:1021800004DDFFE701208DF8060003E000208DF854
:102190000600FFE76CE140F2D800C2F2000040897F
:1021A000B0F5807F04DDFFE701208DF8060003E035
:1021B00000208DF80600FFE75AE140F20040C4F627
:1021C0000000802103F060F98DF8060050E140F630
:1021D0000000C4F600004FF4004103F055F98DF8FB
:1021E000060045E140F21410C2F20000008940F2FE
:1021F000A801C2F200010989401AFEF745F98128B9
:1022000004DBFFE701208DF8060003E000208DF8D5
:102210000600FFE72CE140F21410C2F20000008932
:1022200040F2A801C2F200014989401AFEF72CF9D8
:10223000812804DBFFE701208DF8060003E0002081
:102240008DF80600FFE713E140F21410C2F200001F
:10225000008940F2A801C2F20001C988401AFEF7C5
:1022600013F9812804DBFFE701208DF8060003E065
:1022700000208DF80600FFE7FAE040F21410C2F2E9
:102280000000008940F2A801C2F200010988401A4A
:10229000FEF7FAF8812804DBFFE701208DF806003D
:1022A00003E000208DF80600FFE7E1E040F21410A3
:1022B000C2F20000008940F2A801C2F20001498880
:1022C000401AFEF7E1F8812804DBFFE701208DF8D2
:1022D000060003E000208DF80600FFE7C8E040F2AA
:1022E0001410C2F20000008940F2A801C2F20001FD
:1022F0008988401AFEF7C8F8812804DBFFE701202F
:102300008DF8060003E000208DF80600FFE7AFE03F
:1023100040F21410C2F20000008940F2B801C2F28B
:1023200000010989401AFEF7AFF8812804DBFFE7B6
:1023300001208DF8060003E000208DF80600FFE77D
:1023400096E040F21410C2F20000008940F2B80199
:10235000C2F20001C989401AFEF796F8812804DB11
:10236000FFE701208DF8060003E000208DF806004D
:10237000FFE77DE040F21410C2F20000008940F255
:10238000B801C2F200010988401AFEF77DF88128E1
:1023900004DBFFE701208DF8060003E000208DF844
:1023A0000600FFE764E040F21410C2F2000000896A
:1023B00040F2B801C2F20001C988401AFEF764F881
:1023C000812804DBFFE701208DF8060003E00020F0
:1023D0008DF80600FFE74BE040F21410C2F2000057
:1023E000008940F2B801C2F200014988401AFEF7A4
:1023F0004BF8812804DBFFE701208DF8060003E09D
:1024000000208DF80600FFE732E040F21410C2F21F
:102410000000008940F2B801C2F200014989401A67
:10242000FEF732F8812804DBFFE701208DF8060073
:1024300003E000208DF80600FFE719E040F21410D9
:10244000C2F20000008940F2B801C2F2000189899D
:10245000401AFEF719F8812804DBFFE701208DF808
:10246000060003E000208DF80600FFE700E0FFE72C
:102470009DF8060002B080BD82B08DF807004FF6CF
:10248000FF70ADF804009DF8070001380146009187
:10249000422800F216810099DFE811F043004B005A
:1024A000130163001301130113011301130113013D
:1024B0001301130113011301130113016B007300C6
:1024C0007B0083008B009300DB00EB0013019B007B
:1024D000A300AB00B300E300F3001301BB00C30093
:1024E000CB00D300130153005B0013011301130150
:1024F00013011301130113011301FB001301130155
:10250000130113011301130113011301130113012B
:1025100013011301130113011301130113010B0123
:10252000030140F29800C2F200008088ADF8040078
:10253000C8E040F29800C2F200004088ADF8040004
:10254000C0E040F29800C2F20000C088ADF804007C
:10255000B8E040F21410C2F20000C088ADF80400E8
:10256000B0E040F29800C2F200000088ADF804002C
:10257000A8E040F2C800C2F200000089ADF80400F3
:10258000A0E040F2C800C2F200008089ADF804006B
:1025900098E040F2C800C2F20000C088ADF8040024
:1025A00090E040F2C800C2F200000088ADF80400DC
:1025B00088E040F2C800C2F200004088ADF8040094
:1025C00080E040F2C800C2F200008088ADF804004C
:1025D00078E040F2D800C2F20000C088ADF80400F4
:1025E00070E040F2D800C2F200000088ADF80400AC
:1025F00068E040F2D800C2F200004088ADF8040064
:1026000060E040F2D800C2F200008088ADF804001B
:1026100058E040F2D800C2F200000089ADF8040092
:1026200050E040F2D800C2F200008089ADF804000A
:1026300048E040F2D800C2F20000C089ADF80400C2
:1026400040E040F2D800C2F200004089ADF804003A
:1026500038E040F29800C2F20000C089ADF80400F2
:1026600030E040F29800C2F200000089ADF80400AA
:1026700028E040F29800C2F200004089ADF8040062
:1026800020E040F29800C2F200008089ADF804001A
:1026900018E040F21010C2F200004088ADF80400CB
:1026A00010E040F21410C2F200000089ADF80400FE
:1026B00008E040F21410C2F200004089ADF80400B6
:1026C00000E0FFE7BDF8040002B070470000000022
:1026D00080B584B08DF80F0042F2F030C4F674106B
:1026E00002909DF80F000138014601912F2800F259
:1026F0000E810199DFE811F08E00BD000B010B0186
:102700000B010B010B010B010B010B010B010B0169
:102710000B010B010B010B010B010B010B010B0159
:102720000B010B010B0130000B010B010B010B0125
:102730000B010B015F000B010B010B010B010B01E6
:102740000B010B010B010B010B010B010B010B0129
:102750000B010B010B01EC0040F29800C2F20000EB
:10276000408900EE100AB8EE400A10EE100A10F090
:102770002DFE41EC100B9FED6C1B53EC112B51EC1B
:10278000100B10F025FD41EC100B51EC100B10F06C
:102790002DFC02909DED020A9FED651AB4EE410AF0
:1027A000F1EE10FA06DDFFE742F2E030C4F67410F5
:1027B0000290FFE7ACE040F29800C2F2000080898E
:1027C00000EE100AB8EE400A10EE100A10F0FEFDFE
:1027D00041EC100B9FED541B53EC112B51EC100BE3
:1027E00010F0F6FC41EC100B51EC100B10F0FEFB5E
:1027F00002909DED020A9FED4E1AB4EE410AF1EEF1
:1028000010FA06DDFFE742F2E030C4F674100290E1
:10281000FFE77DE040F29800C2F20000808800EE01
:10282000100AB8EE400A10EE100A10F0CFFD41EC8D
:10283000100B9FED3B1B53EC112B51EC100B10F0C8
:10284000C7FC41EC100B51EC100B10F0CFFB0290C9
:102850009DED020A9FED361AB4EE410AF1EE10FA30
:1028600006DDFFE742F2E030C4F674100290FFE7A5
:102870004EE040F29800C2F20000408800EE100ADC
:10288000B8EE400A10EE100A10F0A0FD41EC100B5B
:102890009FED231B53EC112B51EC100B10F098FC07
:1028A00041EC100B51EC100B10F0A0FB02909DEDD1
:1028B000020A9FED1F1AB4EE410AF1EE10FA06DD8E
:1028C000FFE742F2E030C4F674100290FFE71FE029
:1028D00040F21010C2F20000408800EE100AB8EE7C
:1028E000400A10EE100A10F071FD41EC100B9FED44
:1028F0000A1B53EC112B51EC100B10F069FC41EC4E
:10290000100B51EC100B10F071FB029000E0FFE790
:102910009DED020A04B080BD6666666666E64F40BD
:10292000CDCCCCCCCC4C42400000000000803440E8
:102930000028A0460000000080B584B08DF80F008C
:1029400042F2F030C4F6741002909DF80F00014678
:10295000019118280DD0FFE701981F2838D0FFE714
:102960000198422800F09280FFE7019843285ED04A
:10297000BBE040F29800C2F20000408900EE100A6D
:10298000B8EE400A10EE100A10F020FD41EC100BDA
:102990009FED5D1B53EC112B51EC100B10F018FC4C
:1029A00041EC100B51EC100B10F020FB02909DED50
:1029B000020A9FED581AB4EE410AF1EE10FA06DD54
:1029C000FFE742F2E030C4F674100290FFE78DE0BA
:1029D00040F29800C2F20000808900EE100AB8EEC2
:1029E000400A10EE100A10F0F1FC41EC100B9FEDC4
:1029F000461B53EC112B51EC100B10F0E9FB41EC92
:102A0000100B51EC100B10F0F1FA02909DED020A40
:102A10009FED401AB4EE410AF1EE10FA06DDFFE731
:102A200042F2E030C4F674100290FFE75EE040F23C
:102A30001410C2F20000008900EE100AB8EE400A3D
:102A400010EE100A10F0C2FC41EC100B9FED2C1B95
:102A500053EC112B51EC100B10F0BAFB41EC100BA6
:102A600051EC100B10F0C2FA02909DED020A9FED9E
:102A7000281AB4EE410AF1EE10FA06DDFFE742F241
:102A8000E030C4F674100290FFE72FE040F214101B
:102A9000C2F20000408900EE100AB8EE400A10EEC3
:102AA000100A10F093FC41EC100B9FED131B53EC3C
:102AB000112B51EC100B10F08BFB41EC100B51EC77
:102AC000100B10F093FA02909DED020A9FED101A80
:102AD000B4EE410AF1EE10FA06DDFFE742F2E03013
:102AE000C4F674100290FFE700E0FFE79DED020AD4
:102AF00004B080BD00BF00BF9A99999999193140DF
:102B0000CDCCCCCCCC4C31409A9999999999244010
:102B100000D084460010244680B582B08DF80700AE
:102B20008DF8061000208DF805009DF8070001388B
:102B300001460091302800F21F820099DFE811F071
:102B400031004A001C0263007A009100A800A8002E
:102B5000A800BF00BF00BF00D600ED001C020401AA
:102B60001C021C021C021C021C021C021C021C0275
:102B700017011C021C021C021C021C021C02170171
:102B80001C021C021C021C021C021C021C02300142
:102B90004901620179019201A901C001D501EC014D
:102BA00003029DF8060050B1FFE740F60000C4F6AE
:102BB00000004FF48041012202F07EFC09E040F663
:102BC0000000C4F600004FF48041002202F074FCC3
:102BD000FFE7D5E19DF8060050B1FFE740F60000A1
:102BE000C4F600004FF40051012202F065FC09E038
:102BF00040F60000C4F600004FF40051002202F03D
:102C00005BFCFFE7BCE106F0D7FA8DF804009DF805
:102C1000060038B1FFE79DF8040040F0100007F00F
:102C200057FF06E09DF8040000F0EF0007F050FFAA
:102C3000FFE7A5E106F0C0FA8DF804009DF8060054
:102C400038B1FFE79DF8040040F0200007F040FF96
:102C500006E09DF8040000F0DF0007F039FFFFE711
:102C60008EE106F0A9FA8DF804009DF8060038B14F
:102C7000FFE79DF8040040F0800007F029FF06E020
:102C80009DF8040000F07F0007F022FFFFE777E1E6
:102C900006F092FA8DF804009DF8060038B1FFE7BF
:102CA0009DF8040040F0040007F012FF06E09DF8D4
:102CB000040000F0FB0007F00BFFFFE760E106F007
:102CC0007BFA8DF804009DF8060038B1FFE79DF807
:102CD000040040F0400007F0FBFE06E09DF8040011
:102CE00000F0BF0007F0F4FEFFE749E106F064FAE8
:102CF0008DF804009DF8060038B1FFE79DF8040048
:102D000040F0080007F0E4FE06E09DF8040000F043
:102D1000F70007F0DDFEFFE732E106F04DFA8DF82F
:102D200004009DF8060038B1FFE79DF8040040F06C
:102D3000010007F0CDFE06E09DF8040000F0FE0063
:102D400007F0C6FEFFE71BE19DF8060038B1FFE77C
:102D50004FF090401021012202F0AEFB06E04FF050
:102D600090401021002202F0A7FBFFE708E19DF848
:102D7000060050B1FFE740F20040C4F600004FF4F7
:102D80000051012202F098FB09E040F20040C4F635
:102D900000004FF40051002202F08EFBFFE7EFE04D
:102DA0009DF8060050B1FFE740F60000C4F60000B1
:102DB0004FF48061012202F07FFB09E040F6000041
:102DC000C4F600004FF48061002202F075FBFFE7BB
:102DD000D6E09DF8060050B1FFE740F60000C4F6CB
:102DE00000004FF40061012202F066FB09E040F6AA
:102DF0000000C4F600004FF40061002202F05CFB0A
:102E0000FFE7BDE09DF8060048B1FFE740F2004053
:102E1000C4F600001021012202F04EFB08E040F24F
:102E20000040C4F600001021002202F045FBFFE73D
:102E3000A6E09DF8060050B1FFE740F60000C4F69A
:102E400000004FF48051012202F036FB09E040F609
:102E50000000C4F600004FF48051002202F02CFB69
:102E6000FFE78DE09DF8060048B1FFE740F2004023
:102E7000C4F600000821012202F01EFB08E040F227
:102E80000040C4F600000821002202F015FBFFE715
:102E900076E09DF8060048B1FFE740F60040C4F632
:102EA00000000421012202F007FB08E040F6004088
:102EB000C4F600000421002202F0FEFAFFE75FE002
:102EC0009DF8060040B1FFE74FF090404FF40041FD
:102ED000012202F0F1FA07E04FF090404FF4004178
:102EE000002202F0E9FAFFE74AE09DF8060048B147
:102EF000FFE740F20040C4F600002021012202F06A
:102F0000DBFA08E040F20040C4F600002021002275
:102F100002F0D2FAFFE733E09DF8060048B1FFE780
:102F200040F20040C4F600008021012202F0C4FA01
:102F300008E040F20040C4F600008021002202F0C8
:102F4000BBFAFFE71CE09DF8060050B1FFE740F632
:102F50000000C4F600004FF40041012202F0ACFA78
:102F600009E040F60000C4F600004FF400410022E2
:102F700002F0A2FAFFE703E001208DF80500FFE769
:102F80009DF8050002B080BD80B584B008F05AF805
:102F900040F2D850C2F200000168029140680390EC
:102FA00000F0CEF9029A03460398D21A884114D24F
:102FB000FFE740F2B850C2F20000006809F0D6FB0B
:102FC00000F0BEF910F5967241F1000040F2D851C0
:102FD000C2F200010A604860FFE740F20810C2F246
:102FE0000000016800914068019000F0A9F9009A82
:102FF00003460198D21A88410FD2FFE708F00CF877
:1030000000F09EF910F57A7241F1000040F20811CB
:10301000C2F200010A604860FFE704B080BD000012
:1030200080B507F0F9FF08F035F807F079FD80BDAD
:1030300083B080B5ADF5037D8793869285918290AC
:103040000020819085A880908299809A6846FDF73B
:1030500009FAFFE781996846405C40B1FFE7819932
:10306000481C81906846405C06F0CAF900E000E028
:10307000F0E70DF5037DBDE8804003B07047000028
:1030800080B584B002F0A8FE06F076F905F0FEFDEA
:1030900005F09AFD05F0CEFD05F02CFF05F072FF5E
:1030A00005F0B8FF05F010FC05F070FC05F0AAFE75
:1030B00005F0E4FE05F054FD05F082FA40F2B01090
:1030C000C2F2000040F21411C2F20001092201F024
:1030D000C9F840F20040C4F60000802102910122AC
:1030E000039202F0E9F9039A40F60000C4F60000EA
:1030F00001904FF4804102F0DFF90198039A4FF4F8
:10310000005102F0D9F90198039A402102F0D4F954
:1031100001980299039A02F0CFF943F6CC10C0F659
:103120000100FFF785FF04B080BD0000FFE7FEE768
:1031300080B540F29020C2F2000001F061FC80BD39
:1031400080B540F23020C2F2000001F059FC80BD91
:1031500084B003900398006840F20741C4F2020172
:10316000884206D8FFE740F60000C4F20200009053
:1031700005E040F62000C4F202000090FFE700984E
:1031800002900398007808384CF6CD41CCF6CC413B
:10319000A0FB011000090190029803994A6C22F0EB
:1031A000030210448864039940F68000C4F20200D0
:1031B000C864019800F01F01012088400399086548
:1031C00004B0704782B00190019800790090009996
:1031D00040F6FC00C4F2020000EB81000199486552
:1031E000019940F64010C4F2020088650098013849
:1031F00000F01F01012088400199C86502B07047A6
:1032000084B003900291019200930398C16C006D09
:1032100048600398406D28B1FFE70398816DC06D49
:103220004860FFE70398016C406C00F01F0201202A
:103230009040486000980399096848600398806846
:10324000102809D1FFE7019803990968886002985E
:1032500003990968C86008E00298039909688860C2
:10326000019803990968C860FFE704B0704700003F
:103270007047000081B0EFF3108072B60090FFE756
:10328000FEE7000083B002904AF20040C4F2000062
:1032900000900298006846F60001C4F200018842DE
:1032A00005D1FFE7009800F554700090FFE7009803
:1032B0000299086402980068D0F8800020F4F810A1
:1032C000029A1168526B40EA0240C1F880000098EF
:1032D00070300299486402980068D0F8800020F0AD
:1032E0007060029A1168926B40EA0260C1F8800037
:1032F0000098B03002998864009800F5C470029973
:10330000C864009800F5187002990865009800F5E7
:103310001E700299486500980190FFE70198009996
:1033200001F55471884208D2FFE701990020086036
:10333000FFE7019804300190F0E703B07047000008
:1033400040F29001C2F2000108684968704700002D
:1033500080B5C4B02490239100208DF88B001F907D
:103360002398C0680021C4F27F01884201D0FFE7A2
:1033700000E0FFE7FFE7249890F85800012805D106
:10338000FFE702208DF8970000F044BC249901204B
:1033900081F85800FFE7FFE72498006805F09AF9E4
:1033A000002840F02384FFE72498006823990A68E6
:1033B000496805F0A3F92498006805F08BF91E9080
:1033C0002498006805F066F91D901E98002840F0CA
:1033D000B881FFE71D98002840F0B381FFE72398EC
:1033E0008068B0F1004F0ED1FFE724980068239960
:1033F0000968002205F0AEF9249800684FF00041FA
:1034000005F054FA0CE024980068239A1168926839
:1034100005F0A0F924980068002105F047FAFFE7BD
:103420002398406924990968C96801F0180189083E
:10343000884021902398006904281CD0FFE7249835
:10344000006823990A680969219B05F0D5F9249839
:103450000068239A1169926905F000FA24980068BF
:10346000239A1169127F013AB2FA82F25209520686
:1034700005F0E0F964E124980068002105F0FAF80D
:10348000400348B9FFE724980068002105F0F2F8EE
:10349000C0F384601C9018E024980068002105F0B7
:1034A000E9F890FAA0F04290429820B9FFE7202076
:1034B0008DF80F0105E04298B0FA80F08DF80F0109
:1034C000FFE79DF80F011C90FFE71C981B902398C5
:1034D0000068400330B9FFE723980068C0F38460B8
:1034E0001A9015E02398006890FAA0F04090409858
:1034F00020B9FFE720208DF8070105E04098B0FAD9
:1035000080F08DF80701FFE79DF807011A90FFE7AB
:103510001B981A99884207D1FFE724980068002277
:10352000114605F0AFF9FFE724980068012105F086
:10353000A1F8400348B9FFE724980068012105F08D
:1035400099F8C0F38460199018E02498006801216C
:1035500005F090F890FAA0F03E903E9820B9FFE771
:1035600020208DF8FF0005E03E98B0FA80F08DF83D
:10357000FF00FFE79DF8FF001990FFE719981890EA
:1035800023980068400330B9FFE723980068C0F330
:103590008460179015E02398006890FAA0F03C90A2
:1035A0003C9820B9FFE720208DF8F70005E03C9813
:1035B000B0FA80F08DF8F700FFE79DF8F70017905C
:1035C000FFE718981799884207D1FFE72498006809
:1035D0000121002205F056F9FFE724980068022136
:1035E00005F048F8400348B9FFE724980068022135
:1035F00005F040F8C0F38460169018E02498006845
:10360000022105F037F890FAA0F03A903A9820B9E4
:10361000FFE720208DF8EF0005E03A98B0FA80F03F
:103620008DF8EF00FFE79DF8EF001690FFE7169882
:10363000159023980068400330B9FFE7239800688D
:10364000C0F38460149015E02398006890FAA0F00D
:103650003890389820B9FFE720208DF8E70005E082
:103660003898B0FA80F08DF8E700FFE79DF8E700A2
:103670001490FFE715981499884207D1FFE7249822
:1036800000680221002205F0FDF8FFE72498006899
:10369000032104F0EFFF400348B9FFE724980068D6
:1036A000032104F0E7FFC0F38460139018E024982E
:1036B0000068032104F0DEFF90FAA0F036903698FF
:1036C00020B9FFE720208DF8DF0005E03698B0FA3A
:1036D00080F08DF8DF00FFE79DF8DF001390FFE733
:1036E0001398129023980068400330B9FFE723989D
:1036F0000068C0F38460119015E02398006890FA88
:10370000A0F03490349820B9FFE720208DF8D7003E
:1037100005E03498B0FA80F08DF8D700FFE79DF807
:10372000D7001190FFE712981199884207D1FFE75F
:10373000249800680321002205F0A4F8FFE7FFE7C2
:10374000FFE72498006804F0B5FF002840F04481AA
:10375000FFE724980068239A1168D26805F016F8EC
:103760002398C0680021C4F27F01884240F0338171
:10377000FFE724980068109023980068400330B950
:10378000FFE723980068C0F384600F9015E023984A
:10379000006890FAA0F03290329820B9FFE720201C
:1037A0008DF8CF0005E03298B0FA80F08DF8CF00A8
:1037B000FFE79DF8CF000F90FFE70F98013000F072
:1037C0001F0009287DD8FFE723980068400330B91F
:1037D000FFE723980068C0F384600E9015E02398FB
:1037E000006890FAA0F03090309820B9FFE72020D0
:1037F0008DF8C70005E03098B0FA80F08DF8C7006A
:10380000FFE79DF8C7000E90FFE70E98013000F02B
:103810001F0080060D9023980068400330B9FFE731
:1038200023980068C0F384600C9015E0239800682A
:1038300090FAA0F02E902E9820B9FFE720208DF866
:10384000BF0005E02E98B0FA80F08DF8BF00FFE7CA
:103850009DF8BF000C90FFE70D980C99013101F025
:103860001F020121914008430B90239800684003F8
:1038700030B9FFE723980068C0F384600A9015E030
:103880002398006890FAA0F02C902C9820B9FFE7BC
:1038900020208DF8B70005E02C98B0FA80F08DF864
:1038A000B700FFE79DF8B7000A90FFE70B980A9969
:1038B000013101F01F0101EB410140EA0150099083
:1038C00082E023980068400330B9FFE7239800683E
:1038D000C0F38460089015E02398006890FAA0F087
:1038E0002A902A9820B9FFE720208DF8AF0005E044
:1038F0002A98B0FA80F08DF8AF00FFE79DF8AF008E
:103900000890FFE70898013000F01F00800607903C
:1039100023980068400330B9FFE723980068C0F39C
:103920008460069015E02398006890FAA0F0289033
:10393000289820B9FFE720208DF8A70005E02898F7
:10394000B0FA80F08DF8A700FFE79DF8A700069079
:10395000FFE707980699013101F01F02012191400C
:103960000843059023980068400330B9FFE7239887
:103970000068C0F38460049015E02398006890FA12
:10398000A0F02690269820B9FFE720208DF89F0010
:1039900005E02698B0FA80F08DF89F00FFE79DF8CB
:1039A0009F000490FFE705990498013000F01F0084
:1039B00000EB40020020CFF6206000EB02500843ED
:1039C00040F000700990FFE710980999239A9268D7
:1039D00004F0C0FEFFE7FFE72398408848F20801A3
:1039E000084200F00281FFE7249801680120B1F14C
:1039F000A04F03900CD0FFE7249800684FF60071A9
:103A0000CAF6FF710844B0FA80F040090390FFE75E
:103A10000398C10740F20070C5F2000000291CBFE6
:103A200040F20030C5F2000004F014FE209023980C
:103A3000006840F20001CCF22131884208D0FFE753
:103A4000239800681021C9F2C001884251D1FFE7D4
:103A50009DF88200000600284BD4FFE724980068F8
:103A6000B0F1A04F44D1FFE7249801680120B1F1E3
:103A7000A04F02900CD0FFE7249800684FF6007129
:103A8000CAF6FF710844B0FA80F040090290FFE7DF
:103A90000298C10740F20070C5F2000000291CBF67
:103AA00040F20030C5F20000209941F4000104F01A
:103AB00095FE40F20000C2F2000000684FEA90104C
:103AC00042F66351C0F23E51A0FB01104FEA901044
:103AD00000EB40014FF00C0000EB81001F90FFE76E
:103AE0001F9820B1FFE71F9801381F90F8E7FFE704
:103AF0007AE0239800680021CCF25271884232D1DA
:103B0000FFE79DF88300C00768BBFFE724980068C3
:103B1000B0F1A04F26D1FFE7249801680120B1F150
:103B2000A04F01900CD0FFE7249800684FF6007179
:103B3000CAF6FF710844B0FA80F040090190FFE72F
:103B40000198C10740F20070C5F2000000291CBFB7
:103B500040F20030C5F20000209941F0807104F07D
:103B60003DFEFFE73FE0239800680021CCF684315A
:103B7000884236D1FFE79DF882004006002830D405
:103B8000FFE72498006840F20011C5F20001884266
:103B900026D0FFE7249801680120B1F1A04F0090E2
:103BA0000CD0FFE7249800684FF60071CAF6FF7149
:103BB0000844B0FA80F040090090FFE70098C10780
:103BC00040F20070C5F2000000291CBF40F2003036
:103BD000C5F20000209941F4800104F0FFFDFFE7E9
:103BE00000E0FFE7FFE7FFE7FFE708E02499C86D83
:103BF00040F02000C86501208DF88B00FFE7FFE74B
:103C00002499002081F85800FFE79DF88B008DF87B
:103C10009700FFE79DF8970044B080BD81B0009009
:103C200001B0704781B0009001B0704781B0009042
:103C300001B0704780B58CB00A9000208DF8270045
:103C400005900A9820B9FFE701208DF82F00C8E100
:103C50000A98406940B1FFE70A9890F824000128CB
:103C600001D1FFE7FFE7FFE70A98C06D50B9FFE712
:103C70000A9800F0BBF90A99002008660A9981F8B1
:103C80005800FFE70A98006804F00CFD28B1FFE730
:103C90000A98006804F0B4FCFFE70A98006804F092
:103CA00011FDF0B9FFE70A98006804F0C3FC40F288
:103CB0000000C2F200000068800942F66351C0F2C1
:103CC0003E51A0FB01108109022000EB410005904C
:103CD000FFE7059820B1FFE7059801380590F8E760
:103CE000FFE70A98006804F0EDFC70B9FFE70A9955
:103CF000C86D40F01000C8650A99086E40F00100D8
:103D0000086601208DF82700FFE70A98006804F094
:103D1000E1FC07900A98C06DC006002800F15381AD
:103D2000FFE70798002840F04E81FFE70A98C06D32
:103D300040F0020020F480700A99C8650A98006873
:103D400004F0B8FC002868D1FFE70A980168012058
:103D5000B1F1A04F04900CD0FFE70A9800684FF62D
:103D60000071CAF6FF710844B0FA80F0400904906F
:103D7000FFE70498C10740F20070C5F20000002977
:103D80001CBF40F20030C5F2000040F20031C5F225
:103D90000001884210D1FFE74FF0A04004F08AFCF8
:103DA000029040F20010C5F2000004F083FC0146CE
:103DB00002980843039007E040F20040C5F200007B
:103DC00004F078FC0390FFE7039828BBFFE70A980C
:103DD00001680120B1F1A04F01900CD0FFE70A98D3
:103DE00000684FF60071CAF6FF710844B0FA80F01F
:103DF00040090190FFE70198C10740F20070C5F249
:103E0000000000291CBF40F20030C5F200000A99F2
:103E1000496804F0D5FCFFE7FFE70A994A7FC86BC1
:103E200040EA42308A68CB681843104391F8241066
:103E300040EA014008900A9890F8240001280BD12C
:103E4000FFE70A98816A0020CFF6FE7000EB41413F
:103E5000089808430890FFE70A98C06A50B1FFE746
:103E60000A99C86A096B00F47870014308980843FE
:103E70000890FFE70A980068C06844F20701CFF68F
:103E8000F0710840089908430A990968C8600A98BF
:103E90000068006920F040600A9A1168526B104374
:103EA00008610A98006804F0F5FB0690079800285E
:103EB00068D1FFE70698002864D1FFE70A99087FD8
:103EC00091F83810800340EA410008900A98006891
:103ED000C06844F202018843089908430A990968B6
:103EE000C8600A980069A0B1FFE70A9801680869EC
:103EF00040F4803008610A980068D0F8C00043F6AA
:103F0000FF7188430A9A116812691043C1F8C00012
:103F100011E00A980168086920F4803008610A9865
:103F20000068D0F8C00043F6FF7188430A99096819
:103F3000C1F8C000FFE70A9890F84000012819D1A5
:103F4000FFE70A980068006940F2FD7120EA01026B
:103F50000A9B1968586CD3F848E0D3F84CC040EA83
:103F60000E0040EA0C001B6D1843104340F00100A6
:103F7000086106E00A980168086920F001000861FC
:103F8000FFE7FFE70A98406901280CD1FFE70A988C
:103F90000068006B20F00F000A9A1168126A013A5B
:103FA0001043086306E00A980168086B20F00F00D0
:103FB0000863FFE70A98C06D40F0010020F002009E
:103FC0000A99C86508E00A99C86D40F01000C865F4
:103FD00001208DF82700FFE79DF827008DF82F00BE
:103FE000FFE79DF82F000CB080BD000080B5A6B0A3
:103FF00025900020249023902290219020900CA8BE
:104000005021FCF7D4FA25980068B0F1A04F72D186
:10401000FFE74FF400400C904FF000501C900CA8AC
:1040200002F00AF918B1FFE7FFF724F9FFE740F2C1
:10403000E800C2F200000168013101600068012857
:1040400010D1FFE7FFE741F24C00C4F20200016823
:1040500041F400510160006800F400500B900B988F
:10406000FFE7FFE7FFE741F24C00C4F202000168FE
:1040700041F002010160006800F002000A900A9815
:10408000FFE74FF4A04020900320219000200490EF
:10409000229040F20040C4F6000020A901F040F850
:1040A000049940F23020C2F2000005901C22C4F2B4
:1040B00002020260052242608160C16080220261CA
:1040C0004FF4807242614FF4806282612022C261AB
:1040D000016200F041FD18B1FFE7FFF7CBF8FFE701
:1040E000FFE7259840F23021C2F200014165259892
:1040F0008862FFE7B4E02598006840F20011C5F23D
:104100000001884240F0AB80FFE74FF400400C9084
:104110004FF000501C900CA802F08EF818B1FFE789
:10412000FFF7A8F8FFE740F2E800C2F200000168DC
:10413000013101600068012810D1FFE7FFE741F27B
:104140004C00C4F20200016841F4005101600068B3
:1041500000F4005009900998FFE7FFE7FFE741F2FC
:104160004C00C4F20200016841F0040101600068E3
:1041700000F0040008900898FFE7FFE741F24C00C8
:10418000C4F20200016841F001010160006800F022
:10419000010007900798FFE7FFE741F24C00C4F2E7
:1041A0000200016841F002010160006800F00200B5
:1041B00006900698FFE70F202090032000902190A2
:1041C00000200290229040F60000C4F6000020A9D2
:1041D000019100F0A5FF009A01990298C323209352
:1041E000219222904FF0904000F09AFF009A01999E
:1041F00002984FF4004320932192229040F2004015
:10420000C4F6000000F08CFF029940F29020C2F248
:10421000000003900822C4F20202026024224260DD
:104220008160C160802202614FF4807242614FF46C
:10423000806282612022C261016200F08DFC18B1AF
:10424000FFE7FFF717F8FFE7FFE7259840F2902117
:10425000C2F20001416525988862FFE7FFE7FFE7AA
:1042600026B080BD80B588B006900591049206986E
:1042700001680120B1F1A04F01900CD0FFE7069832
:1042800000684FF60071CAF6FF710844B0FA80F07A
:1042900040090190FFE70198C10740F20070C5F2A4
:1042A000000000291CBF40F20030C5F2000004F0FD
:1042B000D9F902900698006804F00CFA002840F042
:1042C000B780FFE7FFE7069890F85800012804D16F
:1042D000FFE702208DF81F00B3E00699012081F866
:1042E0005800FFE7FFE70698006840F20041C5F27A
:1042F000000188420CD0FFE7029848B1FFE702981E
:10430000052805D0FFE70298092840F08680FFE7DE
:104310000698FDF7B7FC8DF80F009DF80F000028F8
:1043200073D1FFE70698C06D40F4807040F60161DC
:1043300088430699C8650698006840F20011C5F2E6
:104340000001884204D1FFE74FF0A040009003E055
:10435000069800680090FFE700980699096888426F
:1043600003D0FFE7029830B9FFE70699C86D20F443
:104370008010C865FFE70698C06DC004002806D508
:10438000FFE70699086E20F00600086603E006992C
:1043900000200866FFE70698416D41F66D30C0F6D3
:1043A0000000C8620698416D41F66D40C0F60000FD
:1043B00008630698416D41F64140C0F6000048632D
:1043C000069801681C200860FFE70699002081F824
:1043D0005800FFE706980168486840F01000486000
:1043E00006980168C86840F00100C8600698016836
:1043F000406D4031059A049B00F05AFC8DF80F0087
:104400000698006804F098F906E0FFE70699002096
:1044100081F85800FFE7FFE709E001208DF80F0061
:10442000FFE70699002081F85800FFE7FFE703E067
:1044300002208DF80F00FFE79DF80F008DF81F0098
:10444000FFE79DF81F0008B080BD000080B58AB06E
:1044500008900791069200208DF81700089818B16F
:10446000FFE7079820B9FFE701208DF82700AEE1AC
:104470000798C069012801D1FFE7FFE70798806826
:10448000042801D1FFE7FFE7FFE7089840790128FA
:1044900004D1FFE702208DF8270098E10899012058
:1044A0004871FFE7FFE708990220087107988068C4
:1044B000042878D1FFE701F015F80290069848BB70
:1044C000FFE7FFE708980068406B000400281BD551
:1044D000FFE701F007F80299401A022813D3FFE71B
:1044E00008980068406B000400280BD5FFE7089986
:1044F000086940F0080008610899032008718DF8E8
:10450000270064E1FFE7DDE70798406A089909683A
:10451000086426E0FFE708980068406BC00FD0B140
:10452000FFE700F0DFFF0299401A022812D3FFE7ED
:1045300008980068406BC00F58B1FFE708990869F8
:1045400040F0080008610899032008718DF82700E1
:104550003DE1FFE7DFE70798406A0899096848648A
:10456000FFE708980068806C069901F0100240F29D
:10457000FF31914088430799896A9140084308991F
:104580000968886408980068C06C069901F01002F8
:10459000FF21914088430799C96A914008430899CF
:1045A0000968C864FFE70798C06901281ED1FFE7C2
:1045B00008980068806B0490069800F010011F2096
:1045C00000FA01F10498884304900798006A039068
:1045D0000398069901F0100100FA01F104980843CC
:1045E00004900498089909688863FFE708980068B0
:1045F000C06B0490069800F01001072000FA01F14A
:1046000004988843049007988069012803D1FFE744
:104610000020009013E007988069022803D1FFE78B
:10462000012000900AE00798406918B9FFE70120CF
:10463000009002E000200090FFE7FFE7FFE7079906
:10464000886849690843009908430390069800F078
:1046500010014FF4807000FA01F10498884304902F
:1046600007980279039840F48071012A08BF084630
:104670000390069800F010014FF4007000FA01F169
:1046800004988843049007984279039840F4007195
:10469000012A08BF08460390049820F44040049083
:1046A00007980068022820D1FFE702F0D9F90190AD
:1046B000019846F60101C0F68911884205D3FFE74B
:1046C000049840F4004004900EE001984BF2014140
:1046D000C0F2C441884205D3FFE7049840F480400B
:1046E000049000E0FFE7FFE705E007980168049801
:1046F00008430490FFE70398069901F0100100FABF
:1047000001F1049808430490049808990968C86363
:10471000069800F010014FF4804000FA01F208986A
:104720000168086890430860089800680068049071
:10473000069800F0100140F6FE7000FA01F10498AE
:10474000884304900798C06803900398069901F085
:10475000100100FA01F104980843049004980899A4
:1047600009680860069800F01001C02000FA01F204
:10477000089801680868904308600798C068C0F30B
:10478000830003900798006900F03C01039840EA19
:104790008110039008980068006E069901F01002DD
:1047A00040F60F719140884303999140084308995E
:1047B00009680866089901200871FFE70899002038
:1047C0004871FFE79DF817008DF82700FFE79DF877
:1047D00027000AB080BD000080B582B0009000982C
:1047E00020B9FFE701208DF8070016E00098007956
:1047F00038B9FFE7009900204871009800F012F8DE
:10480000FFE7009902200871009900200861009AD2
:10481000012111718DF80700FFE79DF8070002B034
:1048200080BD000080B588B00790002006900590FC
:104830000490039002900798006840F60001C5F2CA
:10484000000188422AD1FFE7FFE741F24C00C4F2A1
:104850000200016841F480310160006800F480309A
:1048600001900198FFE7FFE741F24C00C4F202001B
:10487000016841F001010160006800F00100009052
:104880000098FFE72020029003200390002004906E
:104890004FF0904002A900F043FCFFE708B080BD54
:1048A00082B0019000208DF80300019890F8250057
:1048B000022807D0FFE701990420C86301208DF882
:1048C00003002DE001980168086820F00E000860E0
:1048D0000198816C086820F4807008600198016874
:1048E000086820F0010008600198016C406C00F03D
:1048F0001F020120904048600198C16C006D486023
:104900000198406D58B1FFE70198416D086820F4A7
:10491000807008600198816DC06D4860FFE7FFE717
:104920000199012081F82500FFE70199002081F815
:104930002400FFE79DF8030002B0704780B582B005
:10494000019000208DF80300019890F825000228BE
:1049500011D0FFE701990420C8630199012081F873
:104960002500FFE70199002081F82400FFE70120DE
:104970008DF803003FE001980168086820F00E0000
:10498000086001980168086820F00100086001983B
:10499000816C086820F4807008600198016C406C9C
:1049A00000F01F020120904048600198C16C006D2A
:1049B00048600198406D58B1FFE70198416D086863
:1049C00020F4807008600198816DC06D4860FFE739
:1049D0000199012081F82500FFE70199002081F865
:1049E0002400FFE70198806B20B1FFE70198816BFD
:1049F0008847FFE7FFE79DF8030002B080BD000095
:104A000080B584B003900398006C0068029003980E
:104A100000680068019002980399496C01F01F0139
:104A2000C8404007002825D5FFE79DF8040040074F
:104A300000281FD5FFE7039800680068800600285B
:104A400007D4FFE703980168086820F004000860B5
:104A5000FFE70398016C406C00F01F0204209040B7
:104A600048600398006B20B1FFE70398016B88470B
:104A7000FFE76EE002980399496C01F01F01C840FE
:104A8000800700282FD5FFE79DF804008007002845
:104A900029D5FFE7039800680068800600280BD43A
:104AA000FFE703980168086820F00A00086003998E
:104AB000012081F82500FFE70398016C406C00F0AD
:104AC0001F02022090404860FFE70399002081F810
:104AD0002400FFE70398C06A20B1FFE70398C16A8A
:104AE0008847FFE734E002980399496C01F01F0101
:104AF000C8400007002829D5FFE79DF804000007FB
:104B0000002823D5FFE703980168086820F00E000D
:104B100008600398026C406C00F01F01012000FA4D
:104B200001F151600399C863039981F82500FFE7FB
:104B30000399002081F82400FFE70398406B20B11F
:104B4000FFE70398416B8847FFE700E0FFE7FFE7D7
:104B5000FFE704B080BD000080B584B002900298E9
:104B600020B9FFE701208DF80F009CE00298006853
:104B700040F20741C4F20201884218D8FFE70299C7
:104B800008684FF6F872CBF6FD7210444CF6CD4231
:104B9000CCF6CC42A0FB02026FF0030000EA9200C8
:104BA000486402990020C4F20200086418E00299E7
:104BB00008684FF6F832CBF6FD7210444CF6CD4241
:104BC000CCF6CC42A0FB02026FF0030000EA920098
:104BD0004864029940F20040C4F202000864FFE712
:104BE0000299022081F8250002980068006801906F
:104BF000019847F6F0718843019002998868D1F8CE
:104C00000CC00B694A6940EA0C00184310438A69DA
:104C10001043CA691043096A01430198084301908F
:104C200001980299096808600298FEF791FA0298C3
:104C30008068B0F5804F04D1FFE7029900204860FA
:104C4000FFE702990879896C08600298C16C006DD1
:104C500048600298406888B1FFE7029840680428DD
:104C60000CD8FFE70298FEF7ADFA0298416D0020DC
:104C700008600298816DC06D486007E002990020CD
:104C80004865029988650299C865FFE70299002086
:104C9000C863029A012182F82510029981F8240044
:104CA0008DF80F00FFE79DF80F0004B080BD0000F5
:104CB00080B586B0049003910292019300208DF894
:104CC0000300FFE7049890F82400012804D1FFE7CF
:104CD00002208DF8170065E00499012081F8240076
:104CE000FFE7FFE7049890F8250001284BD1FFE784
:104CF0000499022081F8250004990020C8630498D3
:104D00000168086820F00100086004980399029A7D
:104D1000019BFEF775FA0498006B38B1FFE7049821
:104D20000168086840F00E0008600CE00498016813
:104D3000086820F00400086004980168086840F0E2
:104D40000A000860FFE70498806C0068C003002830
:104D500007D5FFE70498816C086840F4807008600C
:104D6000FFE70498406D38B1FFE70498416D08688B
:104D700040F480700860FFE704980168086840F01C
:104D80000100086009E0FFE70499002081F8240091
:104D9000FFE702208DF80300FFE79DF803008DF880
:104DA0001700FFE79DF8170006B080BD80B584B0FE
:104DB0000290029820B9FFE701208DF80F0057E11B
:104DC0000298006846F20041C4F20001884201D115
:104DD000FFE7FFE702988068B0F5407F01D1FFE769
:104DE000FFE7029890F85C0040B9FFE702990020C5
:104DF00081F85D00029800F03FF9FFE70298016832
:104E0000886920F01000886100F06CFB0190FFE7DA
:104E10000298006880690007002815D5FFE700F0B8
:104E200061FB0199401A0B280DD3FFE70299086E28
:104E300040F0010008660299032081F85C0001201F
:104E40008DF80F0014E1E3E702980168886940F0EB
:104E50000100886100F046FB0190FFE702980068BE
:104E60008069C007A8B9FFE700F03CFB0199401A30
:104E70000B280DD3FFE70299086E40F00100086689
:104E80000299032081F85C0001208DF80F00EFE00B
:104E9000E4E702980168886940F00200886102989E
:104EA000006846F20041C4F20001884208D1FFE7E1
:104EB0000298406846F20051C4F200010860FFE722
:104EC0000298007C012807D1FFE7029801688869F1
:104ED00020F04000886106E002980168886940F08F
:104EE00040008861FFE70298407C012807D1FFE776
:104EF00002980168886940F48040886106E0029861
:104F00000168886920F480408861FFE70298807C0E
:104F1000012807D1FFE702980168886920F48050D2
:104F2000886106E002980168886940F480508861D1
:104F3000FFE702980068806920F44070029A1168C7
:104F400092681043886102980168886920F0A40083
:104F5000886102980168086920F0100008610298D1
:104F6000C068012807D1FFE702980168886940F00E
:104F7000040088612BE00298C06830B3FFE7029814
:104F8000C068022819D0FFE702980168886940F0DC
:104F90008000886102980168086940F0100008618B
:104FA0000298C068032807D1FFE702980168886962
:104FB00040F020008861FFE706E0029801688869F8
:104FC00040F020008861FFE700E0FFE7FFE7029A7A
:104FD000116853699069D2F81CE0A0F1010C6FF0E0
:104FE000FF0000EB0E2040EA4C60126A013A1043C9
:104FF0000022CFF6FF7202EB03421043C861029811
:105000008068B0F5407F1CD1FFE7029A1168536AAF
:10501000906AD2F82CE001386FF0FF0C0CEB0E2CEC
:1050200040EA0C00D2F830C06FF00F0202EB0C1215
:1050300010430022CFF6FF7202EB03421043C86018
:10504000FFE702980168C26BD1F8C0001043C1F8B5
:10505000C0000298FEF716F90299002088650299AF
:105060000866029A012182F85C108DF80F00FFE7B4
:105070009DF80F0004B080BD80B59CB01B9000204F
:105080001A90199018901790169002A85021FBF7CB
:105090008EFA1B98006846F20041C4F20001884273
:1050A0003CD1FFE74FF4805002904FF000700F901A
:1050B00002A801F0C1F818B1FFE7FEF7DBF8FFE73F
:1050C000FFE741F25800C4F20200016841F00071AC
:1050D0000160006800F0007001900198FFE7FFE7B1
:1050E00041F24C00C4F20200016841F0010101608C
:1050F000006800F0010000900098FFE74FF4C050F6
:1051000016900220179000201890199009201A90EC
:105110004FF0904016A900F003F8FFE71CB080BDE7
:105120008BB00A90099100200890FFE70998006869
:105130000899C840002800F0A581FFE70998006899
:10514000089A01219140084007900798002800F034
:105150009581FFE70998406800F00300012807D017
:10516000FFE70998406800F0030002282FD1FFE70D
:105170000A988068069008984100032000FA01F11F
:105180000698884306900998C0680899490000FA73
:1051900001F106980843069006980A9988600A98D3
:1051A000406806900899012000FA01F106988843AA
:1051B000069009984068C0F30010089900FA01F1C0
:1051C00006980843069006980A994860FFE70998F0
:1051D000406800F00300032818D0FFE70A98C06871
:1051E000069008984100032000FA01F106988843D0
:1051F0000690099880680899490000FA01F106981C
:105200000843069006980A99C860FFE70998406825
:1052100000F00300022826D1FFE70A9808996FF0F2
:10522000030202EA51010844006A0690089800F05F
:10523000070081000F2000FA01F1069888430690CC
:1052400009980069089901F00701890000FA01F145
:1052500006980843069006980A99089B02EA5302AA
:1052600011440862FFE70A98006806900898410018
:10527000032000FA01F106988843069009984068D7
:1052800000F003000899490000FA01F1069808436C
:10529000069006980A990860099880798007002886
:1052A00000F0EB80FFE7FFE741F26000C4F202008C
:1052B000016841F001010160006800F00100059003
:1052C0000598FFE7089820F003000821C4F20101C7
:1052D00040580690089800F0030081000F2000FA63
:1052E00001F10698884306900A98B0F1904F03D1D7
:1052F000FFE70020049042E00A9840F20041C4F623
:105300000001884203D1FFE70120039034E00A98AE
:1053100040F60001C4F60001884203D1FFE70220F5
:10532000029026E00A9840F60041C4F60001884247
:1053300003D1FFE70320019018E00A9841F2000131
:10534000C4F60001884203D1FFE7042000900AE080
:105350000A9941F20042C4F600020620914208BFB9
:1053600005200090FFE700980190FFE70198029068
:10537000FFE702980390FFE703980490FFE7049883
:10538000089901F00301890000FA01F10698084329
:1053900006900698089921F003010822C4F2010240
:1053A000885040F20840C4F2010000680690079956
:1053B00006988843069009988079C006002805D58C
:1053C000FFE70799069808430690FFE7069840F222
:1053D0000841C4F20101086040F20C40C4F201002F
:1053E0000068069007990698884306900998807986
:1053F0008006002805D5FFE7079906980843069020
:10540000FFE7069840F20C41C4F20101086040F247
:105410000440C4F20100006806900799069888438A
:105420000690099880798007002805D5FFE707993D
:10543000069808430690FFE7069840F20441C4F23C
:105440000101086040F20040C4F2010000680690CB
:10545000079906988843069009988079C00728B173
:10546000FFE70799069808430690FFE7069840F281
:105470000041C4F201010860FFE7FFE7089801302E
:10548000089053E60BB0704782B00190ADF802105F
:1054900001980069BDF80210084204D0FFE701201E
:1054A0008DF8010003E000208DF80100FFE79DF872
:1054B000010002B07047000082B00190ADF8021008
:1054C0008DF801209DF8010028B1FFE7BDF802002A
:1054D0000199886104E0BDF8020001998862FFE744
:1054E00002B0704740F2E050C2F20000006870471E
:1054F00083B001900091019890F8410020283BD1A1
:10550000FFE7FFE7019890F84000012804D1FFE78A
:1055100002208DF80B0033E00199012081F8400052
:10552000FFE7FFE70199242081F841000198016815
:10553000086820F00100086001980168086820F4FC
:1055400080500860009A019801680868104308605C
:1055500001980168086840F0010008600199202066
:1055600081F84100FFE70199002081F84000FFE742
:1055700000208DF80B0003E002208DF80B00FFE700
:105580009DF80B0003B0704784B00290019102981F
:1055900090F84100202840D1FFE7FFE7029890F8FB
:1055A0004000012804D1FFE702208DF80F0038E009
:1055B0000299012081F84000FFE7FFE702992420CB
:1055C00081F8410002980168086820F00100086035
:1055D0000298006800680090009820F470600090C5
:1055E0000199009840EA012000900098029909680A
:1055F000086002980168086840F00100086002999C
:10560000202081F84100FFE70299002081F8400046
:10561000FFE700208DF80F0003E002208DF80F0057
:10562000FFE79DF80F0004B07047000080B582B01E
:105630000090009820B9FFE701208DF807007BE07B
:10564000009890F8410040B9FFE70099002081F8E8
:105650004000009800F0F4FAFFE70099242081F858
:10566000410000980168086820F001000860009877
:105670000168406820F070600861009801688868DF
:1056800020F4004088600098C068012807D1FFE737
:1056900000980168806840F40040886006E0009847
:1056A0000168806840F404408860FFE70098C068A3
:1056B000022807D1FFE700980168486840F40060BD
:1056C000486006E000980168486820F4006048607F
:1056D000FFE700980168486848F20002C0F2002223
:1056E0001043486000980168C86820F40040C86012
:1056F000009A1168106953699269184340EA0220C0
:10570000C860009A1168D069126A10430860009856
:105710000168086840F001000860009900204864B2
:10572000009A202182F8411000990863009981F8BD
:1057300042008DF80700FFE79DF8070002B080BD2A
:1057400010B588B084460C980B98DDF828E0CDF8A9
:1057500018C0ADF81610ADF81420ADF81230ADF841
:105760001000069890F84100202840F02681FFE7BD
:105770000A9820B1FFE7BDF8100040B9FFE706998D
:105780004FF40070486401208DF81F0019E1FFE715
:10579000069890F84000012804D1FFE702208DF818
:1057A0001F000EE10699012081F84000FFE7FFE7A6
:1057B000FFF798FE0390069803996A4611604FF42C
:1057C00000410122192302F0F1FD20B1FFE7012081
:1057D0008DF81F00F5E00699222081F84100069916
:1057E000402081F842000699002048640A99069AF0
:1057F0005162BDF81010069A5185069948630698C3
:10580000BDF81610BDF81420BDF81230DDF830C018
:10581000039CEE46CEF80440CEF800C002F0DCFC5B
:1058200050B1FFE7FFE70699002081F84000FFE74D
:1058300001208DF81F00C4E00698408DB0F5807FF0
:1058400014D3FFE70699FF2008850698BDF81610C7
:1058500090F82820EC4642F20043C8F20003CCF84E
:1058600000304FF0807302F077FD14E00698408D11
:10587000069908850698BDF8161090F82820EC4681
:1058800042F20043C8F20003CCF800304FF000733E
:1058900002F062FDFFE7FFE706980C9B03996A465A
:1058A00011600421002202F081FD20B1FFE70120F8
:1058B0008DF81F0085E006980068406A0699496ADD
:1058C00008700699486A013048620699088D0138C7
:1058D00008850699488D013848850698408DE8B3BB
:1058E000FFE70698008DC8BBFFE706980C9B03995D
:1058F0006A4611608021002202F058FD20B1FFE7C6
:1059000001208DF81F005CE00698408DB0F5807F87
:1059100011D3FFE70699FF2008850698BDF81610F9
:1059200090F82820EC460023CCF800304FF080732C
:1059300002F012FD11E00698408D06990885069840
:10594000BDF8161090F82820EC460023CCF8003063
:105950004FF0007302F000FDFFE7FFE7FFE7069856
:10596000408D002898D1FFE706980C99039A02F021
:105970007FFD20B1FFE701208DF81F0021E0069890
:1059800001682020C86106990A6851684EF6000334
:10599000CFF6006319405160069981F841000699DD
:1059A000002081F84200FFE70699002081F84000BE
:1059B000FFE700208DF81F0003E002208DF81F0094
:1059C000FFE79DF81F0008B010BD000010B588B0BB
:1059D00084460C980B98DDF828E0CDF818C0ADF897
:1059E0001610ADF81420ADF81230ADF8100006987E
:1059F00090F84100202840F01B81FFE70A9820B171
:105A0000FFE7BDF8100040B9FFE706994FF40070BA
:105A1000486401208DF81F000EE1FFE7069890F81A
:105A20004000012804D1FFE702208DF81F0003E1A8
:105A30000699012081F84000FFE7FFE7FFF752FDDC
:105A40000390069803996A4611604FF400410122C1
:105A5000192302F0ABFC20B1FFE701208DF81F00F5
:105A6000EAE00699212081F841000699402081F85A
:105A700042000699002048640A99069A5162BDF8CE
:105A80001010069A5185069948630698BDF81610BD
:105A9000BDF81420BDF81230DDF830C0039CEE468E
:105AA000CEF80440CEF800C002F0F6FB50B1FFE79C
:105AB000FFE70699002081F84000FFE701208DF8FC
:105AC0001F00B9E00698408DB0F5807F11D3FFE745
:105AD0000699FF2008850698BDF8161090F8282032
